:100000000C9448000C945D000C945D000C945D0011
:100010000C945D000C945D000C945D000C945D00EC
:100020000C945D000C945D000C945D000C945D00DC
:100030000C945D000C945D000C945D000C945D00CC
:100040000C945D000C945D000C945D000C945D00BC
:100050000C945D000C945D000C945D000C945D00AC
:100060000C945D000C945D000C945D000C945D009C
:100070000C945D000C945D000C945D00C300D700EF
:10008000C500C700C900CB00CD00CF00D100D30010
:1000900011241FBECFEFD0E1DEBFCDBF11E0A0E045
:1000A000B1E0EAECF4E002C005900D92A030B10797
:1000B000D9F70E945F000C9463020C9400000E9428
:1000C000990000E023E040E061E080E00E94080247
:1000D00028E044E061E471E081E00E94BA012FE38E
:1000E0008DE093E0215080409040E1F700C0000097
:1000F00025E042E06EE872E082E00E94BA012FE360
:100100008DE093E0215080409040E1F700C0000076
:1001100022E041E06BED73E083E00E94BA012FE33F
:100120008DE093E0215080409040E1F700C0000056
:10013000CFCF8AEB84B98AE487B91AB815B818B852
:100140001BB80895882321F02B982C9A2D9A089596
:100150002B9A0895882321F02B9A2C982D9A089594
:100160002C9A0895882321F02B9A2C9A2D98089583
:100170002D9A089590E08A309105B8F4FC01E25C74
:10018000FF4F0C9449028EE708958DE6089589E7A4
:10019000089583E308958BE508958FE5089580E73A
:1001A00008958FE708958BE7089580E0089580E330
:1001B0000895982F82FF04C061FB882780F901C051
:1001C00080E093FF07C060FF14C0826012C08460AB
:1001D00012C0886094FF05C060FF10C080610EC02F
:1001E0008062992384F461FF0CC080640AC0806837
:1001F000089561FDECCF62FDECCFECCF62FDF0CF56
:10020000F0CF62FDF4CF0895982F82FF06C0862FAD
:10021000817062FF03C0826001C080E094FF02C071
:1002200061FD8460992314F460FD886091FF05C02E
:1002300061FF0DC080610BC0806290FF02C061FD54
:10024000806495FF07C061FF05C08068089562FD66
:10025000F3CFF3CF0895982F81FF03C0862F8170CD
:1002600001C080E090FF05C060FF14C0826012C032
:10027000846096FF07C060FF10C088600EC0806178
:100280000EC0806295FF10C060FF0CC080640AC081
:100290008068089562FDECCFECCF61FDF0CF62FD88
:1002A000F0CFF0CF62FDF4CF08950F931F93CF935B
:1002B000DF93D62F0E94BA00C82F6D2F0E942B010A
:1002C000082F6D2F8C2F0E940401182F6D2F8C2F5B
:1002D0000E94D900C82F802F0E942F02812F0E94D8
:1002E0002F028C2F0E942F02DF91CF911F910F912F
:1002F00008950F931F93CF93DF93C62F883E23E07B
:10030000920714F087EE93E09C01992324F42227AE
:100310003327281B390BC90164E670E00E943502BF
:10032000462FEAE0F0E0C901BF010E943502082F24
:10033000CB01BF010E943502D82F442389F06C2FD6
:100340001C2F02C060E010E0842F0E945501612F35
:100350008D2F0E9455016C2F802F0E94550105C0E2
:10036000882381F31C2F60E0EFCFDF91CF911F91A5
:100370000F910895FF920F931F93CF93DF93182F40
:10038000EB01042FF22E823079F08330C1F08130FE
:1003900009F581E00E94A2008F2D0E942F02602F9C
:1003A000CE010E94790123C081E00E94AA008F2D16
:1003B0000E942F02602FCE010E9479011CC081E0B3
:1003C0000E94B2008F2D0E942F02602FCE010E944A
:1003D000790115C0822F0E942F02602FCE010E944A
:1003E0007901123041F0133051F0113059F480E0AE
:1003F0000E94A20007C080E00E94AA0003C080E023
:100400000E94B200DF91CF911F910F91FF9008954C
:100410000F9394B1926894B92098289A237020641D
:100420004370440F440F242BA62FA170B0E0A29577
:10043000B295B07FBA27A07FBA27A22BE82FE17030
:10044000F0E0EE0FFF1FE295F295F07FFE27E07FD0
:10045000FE27AE2BACBD01700DBD0F9108958EBD72
:100460000DB407FEFDCF8EB5089597FB072E16F449
:10047000009407D077FD09D00E944F0207FC05D0F9
:100480003EF4909581959F4F0895709561957F4FAB
:100490000895EE0FFF1F0590F491E02D0994AA1B1B
:1004A000BB1B51E107C0AA1FBB1FA617B70710F05F
:1004B000A61BB70B881F991F5A95A9F78095909591
:0A04C000BC01CD010895F894FFCFB0
:00000001FF
