S0210000546865726D6973746F72457870616E73696F6E4D6F64756C652E73726563B7
S11300000C943E000C945B000C945B000C945B001D
S11300100C945B000C945B000C945B000C945B00F0
S11300200C945B000C945B000C945B000C945B00E0
S11300300C9467030C945B000C945B000C945B00C1
S11300400C945B000C945B000C945B000C945B00C0
S11300500C945B000C945B000C945B000C945B00B0
S11300600C945B000C945B000C945B000C945B00A0
S11300700C945B000C945B000C945B0011241FBE79
S1130080CFEFD0E1DEBFCDBF11E0A0E0B1E0ECEFF7
S1130090F1E102C005900D92AA32B107D9F72BE025
S11300A0AAE2B1E001C01D92A038B207E1F70E94B4
S11300B018010C94FC080C940000A0E0B1E0EAE202
S11300C0F1E022E431E08D91808312821182339633
S11300D0E217F307C1F7EAE7F0E0808187608083E5
S11300E0ACE7B0E08C9180628C93ABE7B0E08C918C
S11300F080688C938C9180628C93808180688083EB
S113010008950FB6F8940F928D3008F082E1ECE771
S1130110F0E09081907E90839081892B8083EAE740
S1130120F0E08081806480830F900FBE808186FD23
S1130130FDCF8091790090E00895CF93DF93C82F8D
S1130140D0E0FE01E050FF4F80810E9481009E01BB
S1130150220F331FC20FD31FC65DDE4F9A838983DC
S1130160DF91CF9108959CB5282F23709C7F922B0B
S11301709CBD9DB582FB882780F99E7F892B8DBD10
S11301800895811104C08CB580628CBD08958CB52E
S11301908F7D8CBD08959CB5937F892B8CBD08956C
S11301A00FB6F8940F9240E0692F0E94BD080F909B
S11301B00FBE08950FB6F8940F9241E0692F0E9484
S11301C0BD080F900FBE08950FB6F8940F9280915A
S11301D00801909109010E94DA000F900FBE089562
S11301E040E060E080E00E947E0841E061E080E061
S11301F00E947E0841E067E080E00E947E0841E0C2
S113020061E081E00E947E0841E061E081E00E94BB
S11302107E080E94E40080E58CBD8DB58EB50895FE
S11302200CB406FE04C08EBD0DB407FEFDCF0895C8
S1130230AF92BF92CF92DF92EF92FF920F930E9400
S11302405D000E94F00082E00E94B30081E00E9401
S1130250C10084E00E94CB0041E067E081E00E949D
S11302607E0841E060E082E00E947E0841E067E0B1
S113027081E00E94BD0841E060E082E00E94BD0888
S1130280A12CB12CC12CD12CE12CF12C01E020E0CB
S113029030E044E650E06AE071E08AE797E00E94CB
S11302A0F60304E020E030E044E650E061E171E070
S11302B087E997E00E94F60303E020E030E044E69B
S11302C050E065E171E08AED97E00E94F60305E0F5
S11302D020E030E044E650E06DE171E08FEA97E021
S11302E00E94F6030E940D0580E090E00F91FF90BC
S11302F0EF90DF90CF90BF90AF900895FC010396EC
S1130300928381832FEF3FEF348323839683858306
S11303109087878310820895FC01118610860895C2
S1130320CF93DF939C01FB01DC011196CD91DC910D
S11303301297D383C2838C819D81958384838C811E
S11303409D81DC0113967C936E9312977D836C835D
S113035031872087F90180818F5F8083DF91CF917E
S11303600895CF93DF93EB01488159814F3F2FEFDD
S1130370520721F4FC01A781B0850DC0DC0113965E
S113038001C0DF011296ED91FC9113972081318118
S113039042175307B0F71296ED91FC911397FB8324
S11303A0EA83D583C483BD83AC831396DC93CE9355
S11303B0129799878887FC0120812F5F2083DF9122
S11303C0CF910895CF93DF93FC01A085B185C281BD
S11303D0D381848195819D838C83C481D5818281DD
S11303E093819B838A831196CD91DC911297CE17CA
S11303F0DF0731F48C819D8112969C938E93119723
S1130400118610868C9181508C93DF91CF91089541
S113041031E1FC013083319722E220833197A3E359
S1130420A08331976083319770833197108231971D
S113043060E8608331971082319762E0608331977E
S113044063E06083319764E06083319765E06083A3
S1130450319766E06083319767E06083319768E0A5
S11304606083319769E06083319760E160833197FD
S11304703083319732E13083319733E130833197E0
S113048034E13083319735E13083319736E130837D
S1130490319737E13083319738E13083319739E14F
S11304A03083319730E23083319731E230833197B2
S11304B02083319723E220833197408331975083FF
S11304C0319726E22083319727E22083319728E26F
S11304D02083319729E22083319720E320833197C9
S11304E021E32083869708951092890089EF8093F1
S11304F088008BE080938100EFE6F0E080818260E9
S113050080831092850010928400A0917E0BB0919C
S11305107F0BCD91CDBFDD91DEBFFF91EF91DF91D8
S1130520CF91BF91AF919F918F917F916F915F9187
S11305304F913F912F911F910F91FF90EF90DF907A
S1130540CF90BF90AF909F908F907F906F905F906F
S11305504F903F902F901F900F900FBE0F900895D3
S113056081E008950F920FB6F8940F921F92112410
S11305702F923F924F925F926F927F928F929F92AF
S1130580AF92BF92CF92DF92EF92FF920F931F939D
S11305902F933F934F935F936F937F938F939F9387
S11305A0AF93BF93CF93DF93EF93FF93A0917E0B11
S11305B0B0917F0B0DB60D920EB60D920E940D07F1
S11305C0A0917E0BB0917F0BCD91CDBFDD91DEBFAD
S11305D0FF91EF91DF91CF91BF91AF919F918F9157
S11305E07F916F915F914F913F912F911F910F9147
S11305F0FF90EF90DF90CF90BF90AF909F908F903F
S11306007F906F905F904F903F902F901F900F902E
S11306100FBE0F9008950F920FB6F8940F921F9289
S113062011242F923F924F925F926F927F928F92FA
S11306309F92AF92BF92CF92DF92EF92FF920F936D
S11306401F932F933F934F935F936F937F938F9356
S11306509F93AF93BF93CF93DF93EF93FF93A091B7
S11306607E0BB0917F0B0DB60D920EB60D920E94CB
S11306704F0581110E940D07A0917E0BB0917F0B55
S1130680CD91CDBFDD91DEBFFF91EF91DF91CF9191
S1130690BF91AF919F918F917F916F915F914F9196
S11306A03F912F911F910F91FF90EF90DF90CF908A
S11306B0BF90AF909F908F907F906F905F904F907E
S11306C03F902F901F900F900FBE0F9008950E949F
S11306D00B031895CF93DF93EC010E943F058091A3
S11306E0420190914301892B31F487E491E0909386
S11306F04301809342012091440130914501CE0190
S1130700820F931F833C49E0940770F4281739073C
S113071070F4C0914201D0914301C20FD31F909352
S113072045018093440105C0C0E0D0E002C0C0E0B0
S1130730D0E00E940C06CE01DF91CF910895089578
S1130740E091340BF091350B8081811107C08FEF5C
S11307509FEF90930C0B80930B0B0895E091340B57
S1130760F091350B0580F681E02D0680F781E02DB0
S11307708281938190930C0B80930B0B0895CF93FC
S1130780DF93EC01E0917E0BF0917F0B93838283E6
S11307908091130B9091140BC817D90768F46091DA
S11307A07E0B70917F0B8091320B9091330B6E5FB7
S11307B07F4F0E94B10117C060917E0B70917F0B37
S11307C08091340B9091350B6E5F7F4F0E94B10185
S11307D080910B0B90910C0BC817D90720F4D09380
S11307E00C0BC0930B0BDF91CF9108954F925F9246
S11307F06F927F928F929F92AF92BF92CF92DF922D
S1130800EF92FF920F931F93CF93DF934C01EB0171
S11308105A012901C114D10439F4CA010E946A039E
S11308206C01892B09F4E7C086E290E00E946A0318
S11308303C01009779F0FC01D08EC78AF1E0AF1A31
S1130840B108CA0CDB1C8881F301818F8881811176
S113085005C014C0C6010E949F03CDC0D3015A969F
S1130860FE0131969E01285F3F4FEF0181918D93E8
S11308708881882319F0E217F307B9F7F30110A26E
S1130880102F063008F015E0F301168BE3012296D1
S1130890CE010E948C01C3010C960E948C01F301CD
S11308A07186608686E090E0811B91099587848734
S11308B0738A628A11A212A213A214A215A2A2011F
S11308C0B401C6010E940802F30191838083E114FC
S11308D0F10419F0F701718260820FB6F8940F9257
S11308E08091150B8F5F8093150B80917E0B9091F7
S11308F07F0B892B09F03FC070927F0B60927E0BB7
S11309008091150B813009F045C00F2EF8E4EF2ECD
S1130910FBE0FF2EF02D0F2EFEE7CF2EFBE0DF2EA7
S1130920F02DC7010E947E01F9E0EF0EF11CEC14DA
S1130930FD04B9F78FE39BE00E947E0186E39BE010
S11309400E947E0189E29BE00E947E0180E29BE09E
S11309500E947E0186E19BE00E947E018FE39BE082
S11309609093350B8093340B86E39BE09093330B89
S11309708093320B0FC08091110B81110BC0E09159
S11309807E0BF0917F0B8689081720F070927F0B05
S113099060927E0B80910D0B8F5F80930D0BF301A2
S11309A086899091120B981710F48093120B90E0A3
S11309B09C01220F331F220F331F220F331F820F7C
S11309C0931FBE01885B944F0E9490010F900FBE4D
S11309D08091110B882359F0E0917E0BF0917F0BED
S11309E08689801730F40E94B20281E005C081E05C
S11309F003C081E001C08FEFDF91CF911F910F9170
S1130A00FF90EF90DF90CF90BF90AF909F908F902A
S1130A107F906F905F904F900895AF92BF92CF9266
S1130A20DF92EF92FF920F93A12CB12CC12CD12C09
S1130A30E12CF12C00E020E030E044E650E064E2F8
S1130A4071E080ED96E00E94F603813081F4F89421
S1130A508FEF9FEF90930C0B80930B0B81E08093AF
S1130A60110B1092140B1092130B0E9474020F912D
S1130A70FF90EF90DF90CF90BF90AF90089580915A
S1130A800A0B8F5F80930A0B08950FB6F8940F92A8
S1130A908091130B9091140B0F900FBE0895CF9279
S1130AA0DF92EF92FF920F931F93CF93DF93809186
S1130AB00A0B81119BC08091130B9091140B01962A
S1130AC09093140B8093130BE090130BF090140B82
S1130AD0E114F104B9F48091340B9091350B209119
S1130AE0320B3091330B3093350B2093340B9093AE
S1130AF0330B8093320B80910E0B8F5F80930E0B20
S1130B000E94A00380910B0B90910C0BE816F90640
S1130B1010F4D12C53C0D12CCC24C394E091340BC9
S1130B20F091350B9081911107C08FEF9FEF909357
S1130B300C0B80930B0B42C0E091340BF091350BFE
S1130B400580F681E02DC681D7812A813B81E2169A
S1130B50F30628F430930C0B20930B0B2FC08E015B
S1130B600E5F1F4FC8010E94E2018C899D89892B69
S1130B7021F0CE010C960E94E2012E898091120B85
S1130B80821710F42093120B30E0C901880F991FCB
S1130B90880F991F880F991F820F931FB801885BD4
S1130BA0944F0E949001E0917E0BF0917F0B9E89FF
S1130BB08689981708F4B2CFDC2CB0CFE0917E0B75
S1130BC0F0917F0B868990E0FC01EE0FFF1FEE0F82
S1130BD0FF1FEE0FFF1F8E0F9F1FFC01E85BF44FFA
S1130BE08081823048F0DD24D39406C08091100BBC
S1130BF08F5F8093100BD12C80910F0B882311F001
S1130C00DD24D3948D2DDF91CF911F910F91FF900F
S1130C10EF90DF90CF900895DF92EF92FF920F93C1
S1130C201F93CF93DF930FB6F8940F9280910A0B22
S1130C30815080930A0B80910A0B811162C08091CC
S1130C40150B811133C060C0D7011596ED91FC914D
S1130C501697C681D781CE010C960E94E2018E01BF
S1130C600E5F1F4FC8010E94E2012E898091120B72
S1130C70821710F42093120B30E0C901880F991FDA
S1130C80880F991F880F991F820F931FB801885BE3
S1130C90944F0E949001E0917E0BF0917F0B9E890E
S1130CA08689981758F0D0920F0B08C00F2EF9E2DE
S1130CB0EF2EFBE0FF2EF02DDD24D394F70180818D
S1130CC08111C2CF8091100B882399F08091100B71
S1130CD0882379F0C1E00E944F058111C0930F0B66
S1130CE08091100B81508093100B8091100B811117
S1130CF0F2CF80910F0B813031F40E94B20281E077
S1130D0003C080E001C080E00F900FBEDF91CF915F
S1130D101F910F91FF90EF90DF9008950F931F9311
S1130D20CF93DF938C01EB010E943F058091130B5D
S1130D309091140BF80120813181C20FD31F8217C7
S1130D40930748F4C217D30710F5D183C0838C17D7
S1130D509D0790F407C0C217D307A8F08C179D070E
S1130D6090F015C080917E0B90917F0B02960E94AB
S1130D70E201CE010E94BF030E940C0681110BC048
S1130D800E94B20208C0F801D183C083EBCFF801FE
S1130D90D183C083F1CFDF91CF911F910F9108953B
S1130DA000E21BE00F2EF8E4EF2EFBE0FF2EF02D07
S1130DB029C00E943F05D801CC910E940C06CC2387
S1130DC009F10FB6F8940F92D8011596ED91FC91A4
S1130DD01697C681D781CE0102960E94E2018091C6
S1130DE0150B81508093150B80911F0B81508093BC
S1130DF01F0B0F900FBE8F89988D0E949F03CE0109
S1130E000E949F0380911F0B8111D3CFF701808132
S1130E108230C0F30E94B202F5CF80910A0B88237E
S1130E2021F081E080930F0B089510920F0B8091B5
S1130E30120B90E0FC01EE0FFF1FEE0FFF1FEE0FF1
S1130E40FF1F8E0F9F1FFC01E85BF44F808181110F
S1130E5017C08091120B81508093120B8091120B5A
S1130E6090E0FC01EE0FFF1FEE0FFF1FEE0FFF1FC0
S1130E708E0F9F1FFC01E85BF44F8081882349F3A8
S1130E808091120B90E09C01220F331F220F331F1D
S1130E90220F331F280F391FD901A85BB44F1196B5
S1130EA0ED91FC9112970280F381E02D1296FC9350
S1130EB0EE931197255B344FE217F30729F422814F
S1130EC03381FD0132832183FC01EE0FFF1FEE0FFE
S1130ED0FF1FEE0FFF1F8E0F9F1FFC01E85BF44FF7
S1130EE00180F281E02D8681978190937F0B80931E
S1130EF07E0B0895CF93DF9300D0CDB7DEB70E9469
S1130F0045059A83898341E060E081E00E947E0880
S1130F1010E001E01027412F60E0802F0E94BD08FF
S1130F206AEF70E0CE0101960E948E06F3CFCF9354
S1130F30DF9300D0CDB7DEB70E9445059A8389833D
S1130F4000E0102F812F0E949D001F5F1830D1F701
S1130F506AE070E0CE0101960E948E06F2CFCF9334
S1130F60DF9300D0CDB7DEB70E9445059A8389830D
S1130F7041E061E082E00E947E0840E061E082E0BE
S1130F800E94BD0804E610E041E061E082E00E94B6
S1130F90BD08802F912F00000197E9F740E061E040
S1130FA082E00E94BD086AEF70E0CE0101960E94C3
S1130FB08E06EACFCF93DF93CDB7DEB727970FB670
S1130FC0F894DEBF0FBECDBF8FE189831A8201E0A2
S1130FD011E00E9445059F838E830FB6F8940F920B
S1130FE081E091E00E94D00080E00E94100180E046
S1130FF00E94100180E00E94100180E00E94100114
S113100081E091E00E94DA000F900FBE0FB6F894D1
S11310100F9281E091E00E94D00080E80E941001CC
S113102081E00E94100180E00E94100180E00E9493
S1131030100181E091E00E94DA000F900FBE8CE174
S11310408B8382E08C830FB6F8940F9281E091E059
S11310500E94D0008B810E9410018C810E9410019B
S11310608B810E9410018C810E94100181E091E02B
S11310700E94DA000F900FBEFF24F394FD828D814D
S11310802981880F880F2295269526952370282B71
S11310902B832981220F220F2C830FB6F8940F92F1
S11310A0802F912F0E94D0008B810E9410018C818F
S11310B00E9410013D812A81330F330F229526951A
S11310C026952370232B2B832A81220F220F2C8316
S11310D08B810E9410018C810E941001802F912F1E
S11310E00E94DA000F900FBE2A812F5F2A8364E6E4
S11310F070E0CE0106960E948E06C0CF8130B9F012
S113110018F0823039F1089584B124B150E051953A
S113111041955109482781E090E002C0880F991F4A
S11311206A95E2F748235923422744B9089587B1C1
S113113027B150E0519541955109482781E090E04D
S113114002C0880F991F6A95E2F748235923422762
S113115047B908958AB12AB150E051954195510992
S1131160482781E090E002C0880F991F6A95E2F752
S11311704823592342274AB908958130B9F018F019
S1131180823039F1089585B125B150E051954195EA
S11311905109482781E090E002C0880F991F6A95A1
S11311A0E2F748235923422745B9089588B128B165
S11311B050E0519541955109482781E090E002C0E3
S11311C0880F991F6A95E2F748235923422748B9A3
S11311D008958BB12BB150E05195419551094827A1
S11311E081E090E002C0880F991F6A95E2F74823D6
S10F11F0592342274BB90895F894FFCF0F
S11311FC020305060708090A0101535441545553C7
S113120C004144430054454D504F555400455854E7
S10D121C5744540049444C450000B7
S9030000FC
