:100000000C9449000C945B000C945B000C945B0016
:100010000C945B000C945B000C945B000C945B00F4
:100020000C945B000C945B000C945B000C945B00E4
:100030000C949C000C945D000C945B000C945B0091
:100040000C945B000C945B000C945B000C945B00C4
:100050000C945B000C945B000C945B000C945B00B4
:100060000C945B000C945B000C945B000C945B00A4
:100070000C945B000C945B000C945B00FC018E0202
:1000800008036C03A903F0033B04C6045B05F701F6
:10009000510611241FBECFEFD0E1DEBFCDBF21E05E
:1000A000A0E0B1E001C01D92AD38B207E1F70E94B7
:1000B00038010C942F090C9400001F920F920FB678
:1000C0000F921124EF92FF920F931F932F933F9360
:1000D0004F935F936F937F938F939F93AF93BF9350
:1000E000CF93DF93EF93FF930F2EF3E0EF2EF1E02A
:1000F000FF2EF02D01E111E0E7018C2F8E190E94F7
:10010000BC078993C017D107C1F7FF91EF91DF9129
:10011000CF91BF91AF919F918F917F916F915F919F
:100120004F913F912F911F910F91FF90EF900F9062
:100130000FBE0F901F9018951F920F920FB60F923F
:1001400011242F933F934F935F936F937F938F93DC
:100150009F93AF93BF93EF93FF93A8951092850061
:100160001092840041E067E082E00E941308109240
:10017000000180910201813049F028F0823049F07D
:100180008330C9F536C01092010135C010920101CB
:1001900032C0E0910C01609105016E1788F42E2F9A
:1001A00030E070E0A901461B570BF8ECF49FC0014A
:1001B000F59F900D1124620F731F0E94150910C046
:1001C00070E02E2F30E0AB01421B530BF8ECF49F94
:1001D000C001F59F900D1124620F731F0E94150935
:1001E0006B30710518F4E093010105C01092010114
:1001F00002C01092010181E591E00E941307813055
:1002000051F080911D018093020181E591E00E94EF
:10021000B3018111FACF809102018093190180917D
:100220000D0180931B018091010180931A0180913F
:10023000000180931C0144E069E171E081E092E0FB
:100240000E94520840E067E082E00E941308FF919C
:10025000EF91BF91AF919F918F917F916F915F913E
:100260004F913F912F910F900FBE0F901F901895B7
:1002700090E080E80FB6F89480936100909361005D
:100280000FBE0E946C0181E00E94A6010E949301B2
:100290000E9472010E944D01FFCFEFE6F0E08081E5
:1002A00082608083A0E8B0E088E08C93E1E8F0E031
:1002B00086E0808310928500109284001C928081D9
:1002C0008470808381E792E0909389008093880016
:1002D00081E086BB7894089541E061E080E00E946F
:1002E000D4070895EAE7F0E0808184608083ACE77A
:1002F000B0E08C9180628C93ABE7B0E08C91806829
:100300008C938C9180628C938081806880838CE94F
:1003100090E090938B0080938A00EFE6F0E080817C
:1003200084608083089522E032E044E061E171E07E
:1003300085E491E00E948C0820E032E041E06DE12C
:1003400071E081E591E00E94790808950E94070913
:10035000882341F00E949F08E8EDF0E080818260F0
:10036000808381E008950F931F93CF93DF9300D094
:1003700000D0CDB7DEB7FC0181818C3099F4818546
:10038000803669F480818295807F8093ED00AFEEA6
:10039000B0E08C918F738C931092EE0010821186D6
:1003A00080E038C58F010E94B2088F3F09F42DC547
:1003B00090E6D80119969C9319978C938295807F2B
:1003C0008093ED00EEEEF0E01192E83FF105E1F7E9
:1003D000D8011196EC918E2F90E0FC013197EB3013
:1003E000F10508F00EC5E25CFF4F0C942909F801F5
:1003F00086818111F9C30AC4D8011B968C911B9781
:100400008823E9F114968C911497982F92959695DC
:10041000977015968C911597880F880F880F890F04
:100420008093F30013968C911397982F929596953D
:10043000977014968C911497880F880F880F890FE6
:100440008093F20012968C911297982F9295969520
:10045000977013968C911397880F880F880F890FC8
:100460008093F10012968C91880F880F880F8093EB
:10047000F000EFEEF0E080818061808319C0F80128
:1004800082818695869586959381F0E29F9F800D67
:1004900011248093F300D80112968C918295880FD5
:1004A000807E8093F200EFEEF0E080818F7E80838B
:1004B000F8018681882391F080E02AEF30E0D801AE
:1004C0001796ED91FC911897E80FF11D9081F901B5
:1004D00090838F5F16969C91891788F3D8011A969E
:1004E0008C91882331F0E0EFF0E08081846080839C
:1004F00005C0E0EFF0E080818B7F8083EFEEF0E0DD
:100500009081D80116968C91892B808380818F737E
:10051000808380818064808380E07CC4F80183854F
:10052000882381F18481982F929596959770858183
:10053000880F880F880F890F8093F3008381982F8D
:100540009295969597708481880F880F880F890FF0
:100550008093F2008281982F92959695977083816F
:10056000880F880F880F890F8093F1008281880F90
:10057000880F880F8093F000EFEEF0E080818061BB
:10058000808317C082818695869586959381B0E297
:100590009B9F800D11248093F300F8018281829546
:1005A000880F807E8093F200EFEEF0E080818F7EF6
:1005B0008083D80116968C91882391F080E02AEFF1
:1005C00030E0D8011796ED91FC911897E80FF11DD6
:1005D0009081F90190838F5F16969C91891788F31B
:1005E000D8011A961C921A97E0EFF0E080818B7F79
:1005F0008083EFEEF0E0908116968C91892B8083BA
:1006000080818F73808380818064808380E002C4D6
:10061000F8018385882381F18481982F929596959E
:1006200097708581880F880F880F890F8093F3005A
:100630008381982F9295969597708481880F880F63
:10064000880F890F8093F2008281982F929596955A
:1006500097708381880F880F880F890F8093F1002E
:100660008281880F880F880F8093F000EFEEF0E012
:1006700080818061808317C082818695869586956A
:100680009381B0E29B9F800D11248093F300F801C9
:1006900082818295880F807E8093F200EFEEF0E0F9
:1006A00080818F7E808381E0D8011A968C931A977F
:1006B000E0EFF0E0808184608083EFEEF0E09081F5
:1006C00016968C91892B808380818F7380838081A3
:1006D0008064808380E09EC319821A821B821C8200
:1006E0001092F7008A81982F9295969597708B813A
:1006F000880F880F880F890F8093F6008981982FC3
:100700009295969597708A81880F880F880F890F28
:100710008093F5008981880F880F880F24EF30E0DF
:10072000F9018083EFEEF0E09081D80116968C916C
:10073000892B8083D9018C918B7F8C938C918E7FB8
:100740008C9380818F73808380818068808380E038
:1007500061C319821A821B821C821092F7008A815F
:10076000982F9295969597708B81880F880F880F98
:10077000890F8093F6008981982F929596959770AE
:100780008A81880F880F880F890F8093F5008981EF
:10079000880F880F880F44EF50E0FA018083EFEE56
:1007A000F0E09081D80116968C911697892B808362
:1007B0001A961C92DA018C9184608C9320EF30E0C1
:1007C000D9018C918B7F8C93DA018C918E7F8C93E5
:1007D00080818F73808380818068808380E01AC3EA
:1007E00019821A821B821C821092F7008A81982F2C
:1007F0009295969597708B81880F880F880F890F37
:100800008093F6008981982F9295969597708A81AA
:10081000880F880F880F890F8093F5008981880FD2
:10082000880F880F44EF50E0FA018083EFEEF0E08C
:100830009081D80116968C911697892B808381E040
:100840001A968C93DA018C9184608C9320EF30E0BF
:10085000D9018C9184608C9380818F7D8083DA01B3
:100860008C918E7F8C9380818F7380838081806850
:10087000808380E0CFC2F8018385882381F1848161
:10088000982F9295969597708581880F880F880F7D
:10089000890F8093F3008381982F92959695977096
:1008A0008481880F880F880F890F8093F2008281DE
:1008B000982F9295969597708381880F880F880F4F
:1008C000890F8093F1008281880F880F880F8093B1
:1008D000F000EFEEF0E080818061808317C08281BC
:1008E0008695869586959381B0E29B9F800D112415
:1008F0008093F300F80182818295880F807E809337
:10090000F200EFEEF0E080818F7E80838FEF9FEF2B
:10091000DC0189839A83AB83BC838093F7008A814F
:10092000982F9295969597708B81880F880F880FD6
:10093000890F8093F6008981982F929596959770EC
:100940008A81880F880F880F890F8093F50089812D
:10095000880F880F880F24EF30E0D9018C93EFEED9
:10096000F0E09081D80116968C91892B8083D90173
:100970008C918B7F8C938C9181608C9380818F7311
:10098000808380818068808380E044C2F801838511
:10099000882381F18481982F92959695977085810F
:1009A000880F880F880F890F8093F3008381982F19
:1009B0009295969597708481880F880F880F890F7C
:1009C0008093F2008281982F9295969597708381FB
:1009D000880F880F880F890F8093F1008281880F1C
:1009E000880F880F8093F000EFEEF0E08081806147
:1009F000808317C082818695869586959381B0E223
:100A00009B9F800D11248093F300F80182818295D1
:100A1000880F807E8093F200EFEEF0E080818F7E81
:100A200080838FEF9FEFDC0189839A83AB83BC8344
:100A30008093F7008A81982F9295969597708B8175
:100A4000880F880F880F890F8093F6008981982F6F
:100A50009295969597708A81880F880F880F890FD5
:100A60008093F5008981880F880F880F44EF50E04C
:100A7000DA018C93EFEEF0E09081D80116968C911C
:100A80001697892B80831A961C92DA018C918460C8
:100A90008C9320EF30E0D9018C918B7F8C93DA011D
:100AA0008C9181608C9380818F738083808180683A
:100AB000808380E0AFC1F8018385882381F1848140
:100AC000982F9295969597708581880F880F880F3B
:100AD000890F8093F3008381982F92959695977054
:100AE0008481880F880F880F890F8093F20082819C
:100AF000982F9295969597708381880F880F880F0D
:100B0000890F8093F1008281880F880F880F80936E
:100B1000F000EFEEF0E080818061808317C0828179
:100B20008695869586959381B0E29B9F800D1124D2
:100B30008093F300F80182818295880F807E8093F4
:100B4000F200EFEEF0E080818F7E80838FEF9FEFE9
:100B5000DC0189839A83AB83BC838093F7008A810D
:100B6000982F9295969597708B81880F880F880F94
:100B7000890F8093F6008981982F929596959770AA
:100B80008A81880F880F880F890F8093F5008981EB
:100B9000880F880F880F44EF50E0DA018C93EFEE56
:100BA000F0E09081D80116968C911697892B80835E
:100BB00081E01A968C93DA018C9184608C9320EFFB
:100BC00030E0D9018C9184608C9380818F7D80830B
:100BD000DA018C9181608C9380818F738083808116
:100BE0008068808380E016C180E02AEF30E0D80181
:100BF0001796ED91FC911897E80FF11D9081F9017E
:100C000090838F5F16969C91891788F319821A82B8
:100C10001B821C821092F7008A81982F92959695DC
:100C200097708B81880F880F880F890F8093F6004B
:100C30008981982F9295969597708A81880F880F51
:100C4000880F890F8093F5008981880F880F880F9E
:100C500044EF50E0DA018C93EFEEF0E09081D801A0
:100C600016968C911697892B808381E01A968C9327
:100C7000DA018C9184608C9320EF30E0D9018C9163
:100C800084608C93808180628083DA018C918E7F76
:100C90008C9380818F73808380818068808380E0E3
:100CA000B9C0F8018385882381F18481982F9295BA
:100CB000969597708581880F880F880F890F80938C
:100CC000F3008381982F9295969597708481880F71
:100CD000880F880F890F8093F2008281982F929558
:100CE000969597708381880F880F880F890F80935E
:100CF000F1008281880F880F880F8093F000EFEE5B
:100D0000F0E080818061808317C08281869586951E
:100D100086959381B0E29B9F800D11248093F30010
:100D2000F80182818295880F807E8093F200EFEE39
:100D3000F0E080818F7E8083D80116968C91882385
:100D400091F080E02AEF30E0D8011796ED91FC9108
:100D50001897E80FF11D9081F90190838F5F169627
:100D60009C91891788F38FEF9FEFDC0189839A8329
:100D7000AB83BC838093F7008A81982F92959695D8
:100D800097708B81880F880F880F890F8093F600EA
:100D90008981982F9295969597708A81880F880FF0
:100DA000880F890F8093F5008981880F880F880F3D
:100DB00044EF50E0DA018C93EFEEF0E09081D8013F
:100DC00016968C911697892B808381E01A968C93C6
:100DD000DA018C9184608C9320EF30E0D9018C9102
:100DE00084608C93808180628083DA018C91816041
:100DF0008C9380818F73808380818068808380E082
:100E000009C0F801118680E005C08FE1D80119966C
:100E10008C938FEF0F900F900F900F90DF91CF91E9
:100E20001F910F910895EF92FF921F93CF93DF933D
:100E3000FC019185992309F492C09F3109F491C076
:100E40009F3F09F490C0EF0180818295807F80935D
:100E5000ED000E94D208182F803259F020F4882328
:100E600009F483C072C0803409F464C0803A09F088
:100E70006CC00F2EFFEEEF2EF12CF02DF7018081CC
:100E80008F708E838F8198850E94EA088091F00090
:100E900082FB882780F98A87F701808184FF2DC033
:100EA00081E08B87E3EFF0E08081869586958695DB
:100EB0008D83A2EFB0E08C91908186958695869582
:100EC000F0E29F9F800D11248C83E1EFF0E08081A0
:100ED0009C9186958695869520E2929F800D11249F
:100EE0008B838091F0009081869586958695E0E2CF
:100EF0009E9F800D11248A8313C01B86E3EFF0E0D0
:100F000080818295869587708B838091F200908195
:100F1000990F990F990F829586958770890F8A830B
:100F20001987EFEEF0E080818F7380831092EE00DE
:100F300080E01CC080E48987EFEEF0E080818F7351
:100F400080831092EE0080E011C01987EFEEF0E090
:100F500080818F7380831092EE0082E007C082E070
:100F600005C082E003C082E001C081E0DF91CF9143
:100F70001F91FF90EF900895ECE7F0E09081907E54
:100F800090838D3008F082E1ECE7F0E09081892BCE
:100F90008083EAE7F0E0808180648083808186FD41
:100FA000FDCF8091790008958130B9F018F082303A
:100FB00039F1089584B124B150E05195419551091A
:100FC000482781E090E002C0880F991F6A95E2F7F8
:100FD00048235923422744B9089587B127B150E0E7
:100FE000519541955109482781E090E002C0880F52
:100FF000991F6A95E2F748235923422747B9089574
:101000008AB12AB150E0519541955109482781E0B4
:1010100090E002C0880F991F6A95E2F74823592390
:1010200042274AB908958130B9F018F0823039F179
:10103000089585B125B150E0519541955109482752
:1010400081E090E002C0880F991F6A95E2F748237B
:101050005923422745B9089588B128B150E05195E8
:1010600041955109482781E090E002C0880F991FFF
:101070006A95E2F748235923422748B908958BB16E
:101080002BB150E0519541955109482781E090E0FE
:1010900002C0880F991F6A95E2F748235923422717
:1010A0004BB90895CF93DF93CDB7DEB72C970FB62A
:1010B000F894DEBF0FBECDBF798768871C864F834B
:1010C0009C838B8382E08A83CE0101960E94B301C8
:1010D0008111FACFCE0101960E9413078130D1F31E
:1010E0002C960FB6F894DEBF0FBECDBFDF91CF9127
:1010F0000895CF93DF93EC0178876F831B864E832F
:101100003B832A8388E08983CE010E94B301811149
:10111000FBCFDF91CF910895CF93DF93EC017887D8
:101120006F831B864E833B832A8382E08983CE01B3
:101130000E94B3018111FBCFDF91CF91089580E030
:10114000ADEEB0E03EEE20E0982F9295907F9C931C
:10115000E32FF22F1192E83FF105E1F78F5F863020
:1011600099F70895EDEEF0E0208110828091EF0074
:10117000807C69F081E0ADEEB0E0EFEEF0E0982F1A
:101180009295907F9C939081907C29F401C080E09F
:101190002093ED0008958F5F863089F72093ED004E
:1011A0008FEF08958091EF00807C61F08091EE00D8
:1011B000982F907E903241F0903441F0903A41F077
:1011C0008F7108958FEF089580E2089580E4089567
:1011D00080EA0895CF93DF93BC018091EF008F7078
:1011E00099F090E0CAEFD0E0AFEEB0E02881FB01CB
:1011F000E90FF11D20839F5F2C91492F50E02F7044
:1012000030E04217530794F3DF91CF91089581E0C6
:101210008093D80086E08093E20084E08093E3002E
:1012200083E18093E40081E00895AA1BBB1B51E198
:1012300007C0AA1FBB1FA617B70710F0A61BB70B46
:10124000881F991F5A95A9F780959095BC01CD01EB
:101250000895EE0FFF1F0590F491E02D0994F89486
:02126000FFCFBE
:00000001FF
