:100000000C943E000C9450000C9450000C94500042
:100010000C9450000C9450000C9450000C94500020
:100020000C9450000C9450000C9450000C94500010
:100030000C9491000C9452000C9450000C945000BD
:100040000C9450000C9450000C9450000C945000F0
:100050000C9450000C9450000C9450000C945000E0
:100060000C9450000C9450000C9450000C945000D0
:100070000C9450000C9450000C94500011241FBE9E
:10008000CFEFD0E1DEBFCDBF21E0A0E0B1E001C005
:100090001D92AD38B207E1F70E942D010C94F808CB
:1000A0000C9400001F920F920FB60F921124EF9242
:1000B000FF920F931F932F933F934F935F936F93F1
:1000C0007F938F939F93AF93BF93CF93DF93EF93E0
:1000D000FF930F2EF3E0EF2EF1E0FF2EF02D01E164
:1000E00011E0E7018C2F8E190E949E078993C0179B
:1000F000D107C1F7FF91EF91DF91CF91BF91AF9100
:100100009F918F917F916F915F914F913F912F912F
:100110001F910F91FF90EF900F900FBE0F901F90C7
:1001200018951F920F920FB60F9211242F933F93A1
:100130004F935F936F937F938F939F93AF93BF93EF
:10014000EF93FF93A895109285001092840041E0F0
:1001500067E082E00E94EF071092000180910201A7
:10016000813049F028F0823049F08330C9F536C03B
:100170001092010135C01092010132C0E0910C01D2
:10018000609105016E1788F42E2F30E070E0A90110
:10019000461B570BF8ECF49FC001F59F900D1124FE
:1001A000620F731F0E94E40810C070E02E2F30E031
:1001B000AB01421B530BF8ECF49FC001F59F900D6F
:1001C0001124620F731F0E94E4086B30710518F44C
:1001D000E093010105C01092010102C010920101DB
:1001E00081E591E00E94F606813051F080911D0179
:1001F0008093020181E591E00E94AA018111FACF6A
:10020000809102018093190180910D0180931B015F
:100210008091010180931A018091000180931C015B
:1002200044E069E171E081E092E00E94280840E04A
:1002300067E082E00E94EF07FF91EF91BF91AF91DD
:100240009F918F917F916F915F914F913F912F91EE
:100250000F900FBE0F901F90189590E080E80FB69A
:10026000F89480936100909361000FBE0E94610139
:1002700081E00E949B010E9488010E9467010E9408
:100280004201FFCFEFE6F0E0808182608083A0E84A
:10029000B0E088E08C93E1E8F0E086E080831092A3
:1002A0008500109284001C9280818470808381E795
:1002B00092E0909389008093880081E086BB7894D7
:1002C000089541E062E087E00E94B6070895EAE7FA
:1002D000F0E0808184608083ACE7B0E08C91806244
:1002E0008C93ABE7B0E08C9180688C938C918062AA
:1002F0008C938081806880838CE990E090938B0060
:1003000080938A00EFE6F0E0808184608083089526
:1003100022E032E044E061E171E085E491E00E9496
:10032000620820E032E041E06DE171E081E591E0BA
:100330000E944F0808950E94D608882349F00E9421
:100340007508E8EDF0E080818260808381E00895A7
:1003500080E008950F931F93CF93DF9300D000D0D8
:10036000CDB7DEB78C01DC0111968C9111978C30E2
:10037000B1F419968C911997803669F48C91829515
:10038000807F8093ED00EFEEF0E080818F738083BB
:100390001092EE001C92F801118680E01EC50E94AA
:1003A00087088F3F09F414C590E6D80119969C93ED
:1003B00019978C938295807F8093ED00EEEEF0E0AC
:1003C0001192E83FF105E1F7F8018181863009F4E7
:1003D000FEC188F4833009F419C130F4813001F191
:1003E000823009F0F1C49BC0843009F470C18530BB
:1003F00009F0EAC4A7C1893009F44AC338F4873048
:1004000009F42EC2883009F0DFC4B1C28A3021F06D
:100410008B3009F0D9C42CC486818111CEC3DFC3CF
:10042000F8018385882369F1948192959695977058
:100430008581880F880F880F890F8093F30093813F
:100440009295969597708481880F880F880F890FF1
:100450008093F20092819295969597708381880F90
:10046000880F880F890F8093F1008281880F880F91
:10047000880F8093F000EFEEF0E080818061808350
:1004800017C082818695869586959381B0E29B9F61
:10049000800D11248093F300F80182818295880FEA
:1004A000807E8093F200EFEEF0E080818F7E80838B
:1004B000D80116968C91882391F080E02AEF30E0E5
:1004C000D8011796ED91FC911897E80FF11D9081D6
:1004D000F90190838F5F16969C91891788F3D80154
:1004E0001A968C91882331F0E0EFF0E080818460EF
:1004F000808305C0E0EFF0E080818B7F8083EFEEAA
:10050000F0E09081D80116968C91892B80838081B0
:100510008F73808380818064808380E05EC4F80173
:100520008385882369F1948192959695977085814A
:10053000880F880F880F890F8093F300938192951D
:10054000969597708481880F880F880F890F809304
:10055000F20092819295969597708381880F880F0B
:10056000880F890F8093F1008281880F880F880F90
:100570008093F000EFEEF0E080818061808317C00F
:1005800082818695869586959381B0E29B9F800DAA
:1005900011248093F300F80182818295880F807E78
:1005A0008093F200EFEEF0E080818F7E8083D801AF
:1005B00016968C91882391F080E02AEF30E0D801E4
:1005C0001796ED91FC911897E80FF11D9081F901B4
:1005D00090838F5F16969C91891788F3D8011A969D
:1005E0001C921A97E0EFF0E080818B7F8083EFEE22
:1005F000F0E0908116968C91892B808380818F7397
:10060000808380818064808380E0E7C3F8018385F4
:10061000882369F194819295969597708581880FCA
:10062000880F880F890F8093F30093819295969598
:1006300097708481880F880F880F890F8093F2004C
:1006400092819295969597708381880F880F880F75
:10065000890F8093F1008281880F880F880F809323
:10066000F000EFEEF0E080818061808317C082812E
:100670008695869586959381B0E29B9F800D112487
:100680008093F300F80182818295880F807E8093A9
:10069000F200EFEEF0E080818F7E808381E0D80170
:1006A0001A968C931A97E0EFF0E080818460808343
:1006B000EFEEF0E0908116968C91892B80838081FB
:1006C0008F73808380818064808380E086C31982F9
:1006D0001A821B821C821092F7009A81929596953D
:1006E00097708B81880F880F880F890F8093F60091
:1006F00099819295969597708A81880F880F880FB7
:10070000890F8093F5008981880F880F880F24EF67
:1007100030E0F9018083EFEEF0E09081D801169689
:100720008C91892B8083D9018C918B7F8C938C91B8
:100730008E7F8C9380818F7380838081806880839B
:1007400080E04BC319821A821B821C821092F70030
:100750009A819295969597708B81880F880F880F54
:10076000890F8093F60099819295969597708A816A
:10077000880F880F880F890F8093F5008981880F73
:10078000880F880F44EF50E0FA018083EFEEF0E02D
:100790009081D80116968C911697892B80831A9692
:1007A0001C92DA018C9184608C9380EF90E0DC01E4
:1007B0002C912B7F2C93DA018C918E7F8C938081EE
:1007C0008F73808380818068808380E006C3198274
:1007D0001A821B821C821092F7009A81929596953C
:1007E00097708B81880F880F880F890F8093F60090
:1007F00099819295969597708A81880F880F880FB6
:10080000890F8093F5008981880F880F880F44EF46
:1008100050E0FA018083EFEEF0E09081D801169667
:100820008C911697892B808381E01A968C93DA013C
:100830008C9184608C9380EF90E0DC012C9124609B
:100840002C9380818F7D8083DA018C918E7F8C93B5
:1008500080818F73808380818068808380E0BDC2C7
:10086000F8018385882369F1948192959695977014
:100870008581880F880F880F890F8093F3009381FB
:100880009295969597708481880F880F880F890FAD
:100890008093F20092819295969597708381880F4C
:1008A000880F880F890F8093F1008281880F880F4D
:1008B000880F8093F000EFEEF0E08081806180830C
:1008C00017C082818695869586959381B0E29B9F1D
:1008D000800D11248093F300F80182818295880FA6
:1008E000807E8093F200EFEEF0E080818F7E808347
:1008F0008FEF9FEFDC0189839A83AB83BC838FEFFB
:100900008093F7009A819295969597708B81880FC6
:10091000880F880F890F8093F6009981929596959C
:1009200097708A81880F880F880F890F8093F50050
:100930008981880F880F880F24EF30E0D9018C93CC
:10094000EFEEF0E09081D80116968C91892B808390
:10095000D9018C918B7F8C938C9181608C93808159
:100960008F73808380818068808380E036C2F80145
:100970008385882369F194819295969597708581F6
:10098000880F880F880F890F8093F30093819295C9
:10099000969597708481880F880F880F890F8093B0
:1009A000F20092819295969597708381880F880FB7
:1009B000880F890F8093F1008281880F880F880F3C
:1009C0008093F000EFEEF0E080818061808317C0BB
:1009D00082818695869586959381B0E29B9F800D56
:1009E00011248093F300F80182818295880F807E24
:1009F0008093F200EFEEF0E080818F7E80838FEFB6
:100A00009FEFDC0189839A83AB83BC838FEF809354
:100A1000F7009A819295969597708B81880F880F31
:100A2000880F890F8093F60099819295969597701B
:100A30008A81880F880F880F890F8093F50089813C
:100A4000880F880F880F44EF50E0DA018C93EFEEA7
:100A5000F0E09081D80116968C911697892B8083AF
:100A60001A961C92DA018C9184608C9380EF90E04E
:100A7000DC012C912B7F2C93DA018C9181608C937B
:100A800080818F73808380818068808380E0A5C1AE
:100A9000F8018385882369F19481929596959770E2
:100AA0008581880F880F880F890F8093F3009381C9
:100AB0009295969597708481880F880F880F890F7B
:100AC0008093F20092819295969597708381880F1A
:100AD000880F880F890F8093F1008281880F880F1B
:100AE000880F8093F000EFEEF0E0808180618083DA
:100AF00017C082818695869586959381B0E29B9FEB
:100B0000800D11248093F300F80182818295880F73
:100B1000807E8093F200EFEEF0E080818F7E808314
:100B20008FEF9FEFDC0189839A83AB83BC838FEFC8
:100B30008093F7009A819295969597708B81880F94
:100B4000880F880F890F8093F6009981929596956A
:100B500097708A81880F880F880F890F8093F5001E
:100B60008981880F880F880F44EF50E0DA018C9359
:100B7000EFEEF0E09081D80116968C911697892BB4
:100B8000808381E01A968C93DA018C9184608C9337
:100B900080EF90E0DC012C9124602C9380818F7D8C
:100BA0008083DA018C9181608C9380818F73808344
:100BB00080818068808380E010C180E02AEF30E08F
:100BC000D8011796ED91FC911897E80FF11D9081CF
:100BD000F90190838F5F16969C91891788F319828B
:100BE0001A821B821C821092F7009A819295969528
:100BF00097708B81880F880F880F890F8093F6007C
:100C000099819295969597708A81880F880F880FA1
:100C1000890F8093F5008981880F880F880F44EF32
:100C200050E0DA018C93EFEEF0E09081D801169657
:100C30008C911697892B808381E01A968C93DA0128
:100C40008C9184608C9380EF90E0DC012C91246087
:100C50002C93808180628083DA018C918E7F8C93CB
:100C600080818F73808380818068808380E0B5C0BD
:100C7000F8018385882369F1948192959695977000
:100C80008581880F880F880F890F8093F3009381E7
:100C90009295969597708481880F880F880F890F99
:100CA0008093F20092819295969597708381880F38
:100CB000880F880F890F8093F1008281880F880F39
:100CC000880F8093F000EFEEF0E0808180618083F8
:100CD00017C082818695869586959381B0E29B9F09
:100CE000800D11248093F300F80182818295880F92
:100CF000807E8093F200EFEEF0E080818F7E808333
:100D0000D80116968C91882391F080E02AEF30E08C
:100D1000D8011796ED91FC911897E80FF11D90817D
:100D2000F90190838F5F16969C91891788F34FEF96
:100D30005FEFBA0149835A836B837C838FEF809383
:100D4000F7009A819295969597708B81880F880FFE
:100D5000880F890F8093F6009981929596959770E8
:100D60008A81880F880F880F890F8093F500898109
:100D7000880F880F880F44EF50E0DA018C93EFEE74
:100D8000F0E09081D80116968C911697892B80837C
:100D900081E01A968C93DA018C9184608C9380EFB9
:100DA00090E0DC012C9124602C9380818062808310
:100DB000DA018C9181608C9380818F738083808134
:100DC0008068808380E009C0F801118680E005C05A
:100DD0008FE1D80119968C938FEF0F900F900F90A1
:100DE0000F90DF91CF911F910F910895EF92FF9295
:100DF0001F93CF93DF93EC018985882309F491C079
:100E00008F3109F490C08F3F09F48FC0888182959B
:100E1000807F8093ED000E94A708182F803259F040
:100E200020F4882309F483C072C0803409F464C0BC
:100E3000803A09F06CC00F2EFFEEEF2EF12CF02D52
:100E4000F70180818F708E838F8198850E94BA0808
:100E50008091F00082FB882780F98A87F7018081E2
:100E600084FF2DC081E08B87E3EFF0E080818695E1
:100E7000869586958D83A2EFB0E08C9190818695C2
:100E800086958695F0E29F9F800D11248C83E1EF7B
:100E9000F0E080819C9186958695869520E2929FD0
:100EA000800D11248B838091F0009081869586952A
:100EB0008695E0E29E9F800D11248A8313C01B86D5
:100EC000E3EFF0E080818295869587708B83809137
:100ED000F2009081990F990F990F829586958770EE
:100EE000890F8A831987EFEEF0E080818F7380830A
:100EF0001092EE0080E01CC080E48987EFEEF0E005
:100F000080818F7380831092EE0080E011C019877A
:100F1000EFEEF0E080818F7380831092EE0082E02C
:100F200007C082E005C082E003C082E001C081E02A
:100F3000DF91CF911F91FF90EF900895ECE7F0E0E3
:100F40009081907E90838D3008F082E1ECE7F0E0B4
:100F50009081892B8083EAE7F0E080818064808340
:100F6000808186FDFDCF8091790008958130A9F0C0
:100F700018F0823099F522C024B184B141954827F8
:100F800081E090E0FC0102C0EE0FFF1F6A95E2F7DE
:100F9000BF016423622764B9089527B187B14195E1
:100FA000482781E090E0FC0102C0EE0FFF1F6A9528
:100FB000E2F7BF016423622767B908952AB18AB1B5
:100FC0004195482781E090E0FC0102C0EE0FFF1F31
:100FD0006A95E2F7BF01642362276AB908958130F8
:100FE000A9F018F0823099F522C025B185B141955C
:100FF000482781E090E0FC0102C0EE0FFF1F6A95D8
:10100000E2F7BF016423622765B9089528B188B16A
:101010004195482781E090E0FC0102C0EE0FFF1FE0
:101020006A95E2F7BF016423622768B908952BB17E
:101030008BB14195482781E090E0FC0102C0EE0FA2
:10104000FF1F6A95E2F7BF01642362276BB9089519
:10105000CF93DF93CDB7DEB72C970FB6F894DEBFF2
:101060000FBECDBF798768871C864F839C838B8397
:1010700082E08A83CE0101960E94AA018111FACFF3
:10108000CE0101960E94F6068130D1F32C960FB660
:10109000F894DEBF0FBECDBFDF91CF910895CF93FF
:1010A000DF93EC0178876F831B864E833B832A8313
:1010B00088E08983CE010E94AA018111FBCFDF91D4
:1010C000CF910895CF93DF93EC0178876F831B86D0
:1010D0004E833B832A8382E08983CE010E94AA014A
:1010E0008111FBCFDF91CF91089520E0ADEEB0E00C
:1010F0008EEE90E0322F3295307F3C93FC011192BE
:10110000E83FF105E1F72F5F2630A1F70895EDEEF6
:10111000F0E0208110828091EF00807C69F081E016
:10112000ADEEB0E0EFEEF0E0982F9295907F9C93BB
:101130009081907C29F401C080E02093ED00089517
:101140008F5F863089F72093ED008FEF08958091AF
:10115000EF00807C69F09091EE00892F807E8032D4
:1011600041F0803431F0803A21F0892F8F71089559
:101170008FEF0895CF93DF932091EF002F7099F0B8
:1011800060E0CAEFD0E0AFEEB0E02881FC01E60FEE
:10119000F11D20836F5F2C91462F50E02F7030E0BF
:1011A0004217530794F3DF91CF91089581E0809324
:1011B000D80086E08093E20084E08093E30083E13E
:1011C0008093E40081E00895AA1BBB1B51E107C096
:1011D000AA1FBB1FA617B70710F0A61BB70B881FC7
:1011E000991F5A95A9F780959095BC01CD01089556
:0411F000F894FFCFA1
:00000001FF
