:100000000C943E000C9453000C9453000C94530039
:100010000C9453000C9453000C9453000C94530014
:100020000C9453000C9453000C9453000C94530004
:100030000C9453000C9453000C9453000C945300F4
:100040000C9453000C9453000C9453000C945300E4
:100050000C9453000C9453000C9453000C945300D4
:100060000C9453000C9453000C9453000C945300C4
:100070000C9453000C9453000C94530011241FBE95
:10008000CFEFD0E1DEBFCDBF11E0A0E0B1E0E8E509
:10009000F4E002C005900D92A038B107D9F70E9494
:1000A00055000C942A020C9400000E94EF0000E01E
:1000B00023E040E061E080E00E94FF0128E044E0AE
:1000C00060E071E081E00E94A1012FE78AE196E003
:1000D000215080409040E1F700C0000028E042E05D
:1000E00064E071E081E00E94A1012FE78AE196E0DF
:1000F000215080409040E1F700C0000028E042E03D
:1001000068E071E081E00E94A1012FE78AE196E0BA
:10011000215080409040E1F700C0000028E047E017
:100120006CE071E081E00E94A1012FE78AE196E096
:10013000215080409040E1F700C0000028E044E0FA
:1001400060E171E081E00E94A1012FE78AE196E081
:10015000215080409040E1F700C0000028E041E0DD
:1001600064E171E081E00E94A1012FE78AE196E05D
:10017000215080409040E1F700C0000028E046E0B8
:1001800068E171E081E00E94A1012FE78AE196E039
:10019000215080409040E1F700C0000028E045E099
:1001A0006CE171E081E00E94A1012FE78AE196E015
:1001B000215080409040E1F700C0000028E043E07B
:1001C00060E271E081E00E94A1012FE78AE196E000
:1001D000215080409040E1F700C000006FCF8AEBD3
:1001E00084B98AE487B988E18AB915B818B81BB808
:1001F0005B9A5C9A0895882321F02B9A2C982D986D
:1002000008952B980895882321F02B982C9A2D98E7
:1002100008952C980895882321F02B982C982D9AD6
:1002200008952D98089580528B3530F4E82FF0E032
:10023000EC5DFE4F8081089580E00895982F82FF45
:1002400004C061FB882780F901C080E093FF06C0ED
:1002500060FD826061FD846062FD886094FF04C07F
:1002600060FD806162FD806297FF06C061FD806471
:1002700062FF02C0806808950895982F82FF06C02B
:10028000862F817062FF03C0826001C080E094FF0E
:1002900002C061FD846097FF02C060FD886091FF2D
:1002A00004C061FD806162FD806290FF02C061FD5B
:1002B000806495FF04C061FF02C0806808950895BE
:1002C000982F81FF03C0862F817001C080E090FFCE
:1002D00004C060FD826062FD846096FF06C060FD20
:1002E000886061FD806162FD806295FF06C060FDEF
:1002F000806462FF02C08068089508950F931F9381
:10030000CF93DF93C62F0E941301D82F6C2F0E942A
:100310006001082F6C2F8D2F0E943D01182F6C2F2C
:100320008D2F0E941E01C82F802F0E942402812F32
:100330000E9424028C2FDF91CF911F910F910C947A
:100340002402FF920F931F93CF93DF93082FEB01AB
:10035000142FF22E823041F0833051F0813059F465
:1003600081E00E94FB0007C081E00E94030103C0FE
:1003700081E00E940B018F2D0E9424028881612F51
:100380008A3029F480E20E947E01612F06C00E941B
:100390007E018981612F8A3029F480E20E947E01EA
:1003A000612F06C00E947E018A81612F8A3009F484
:1003B00080E20E947E01023061F0033091F0013052
:1003C000C1F480E0DF91CF911F910F91FF900C94C9
:1003D000FB0080E0DF91CF911F910F91FF900C9473
:1003E000030180E0DF91CF911F910F91FF900C945A
:1003F0000B01DF91CF911F910F91FF9008950F9303
:1004000094B1926894B92098289A2370206443701C
:1004100094E0499FA0011124242BA62FA170B0E0E5
:1004200094E0AA0FBB1F9A95E1F72A2BE82FE17001
:10043000F0E035E0EE0FFF1F3A95E1F72E2B2CBDD3
:1004400001700DBD0F9108958EBD0DB407FEFDCF57
:080450008EB50895F894FFCF6A
:100458004572720041434300456E64007274640043
:10046800686F7400636F6C00626F62006C6F6C0081
:10047800484F450000000000000000000000000098
:10048800000800007E306D79335B5F707F7B000071
:100498000000000000777F4E7E4F475F37063C37ED
:1004A8000E00157E6773055B0F3E3E00373B6D00FF
:1004B8000000000800771F0D3D4F477B17043837B1
:1004C8000600151D6773055B0F1C1C00373B6D008C
:00000001FF
