:100000000C943E000C945B000C945B000C945B0021
:100010000C945B000C945B000C945B000C945B00F4
:100020000C945B000C945B000C945B000C945B00E4
:100030000C94EB020C945B000C945B000C945B0042
:100040000C945B000C945B000C945B000C945B00C4
:100050000C945B000C945B000C945B000C945B00B4
:100060000C945B000C945B000C945B000C945B00A4
:100070000C945B000C945B000C945B0011241FBE7D
:10008000CFEFD0E1DEBFCDBF11E0A0E0B1E0E0E80E
:10009000FCE102C005900D92AA30B107D9F725E026
:1000A000AAE0B1E001C01D92A135B207E1F70E94BC
:1000B0005D000C943E0E0C940000AF92BF92CF9264
:1000C000DF92EF92FF920F9341E060E081E00E94A7
:1000D0008600A12CB12CC12CD12CE12CF12C01E0FB
:1000E00020E030E045E550E060E071E088EF90E02E
:1000F0000E94C1060E94110880E090E00F91FF90DD
:10010000EF90DF90CF90BF90AF9008958130A9F02D
:1001100018F0823019F1089524B184B1419548272F
:1001200081E090E0FC0102C0EE0FFF1F6A95E2F74C
:10013000BF016423622764B9089527B187B141954F
:10014000482781E090E0FC0102C0EE0FFF1F6A9596
:10015000E2F7BF016423622767B908952AB18AB123
:100160004195482781E090E0FC0102C0EE0FFF1F9F
:100170006A95E2F7BF01642362276AB90895813066
:10018000A9F018F0823019F1089525B185B1419593
:10019000482781E090E0FC0102C0EE0FFF1F6A9546
:1001A000E2F7BF016423622765B9089528B188B1D9
:1001B0004195482781E090E0FC0102C0EE0FFF1F4F
:1001C0006A95E2F7BF016423622768B908952BB1ED
:1001D0008BB14195482781E090E0FC0102C0EE0F11
:1001E000FF1F6A95E2F7BF01642362276BB9089588
:1001F000C1E088B18C2788B988EE93E00E94E509B8
:10020000F8CFFC010396928381832FEF3FEF348375
:100210002383968385839087878310820895FC01CA
:10022000118610860895CF93DF939C01FB01DC01BA
:100230001196CD91DC911297D383C2838C819D81DD
:10024000958384838C819D81DC0113967C936E93CE
:1002500012977D836C8331872087F90180818F5FBE
:100260008083DF91CF910895CF93DF93EB01488195
:1002700059814F3F2FEF520721F4FC01A781B08530
:100280000DC0DC0113961296ED91FC91139720811D
:1002900031814217530710F0DF01F5CF1296ED912F
:1002A000FC911397FB83EA83D583C483BD83AC831E
:1002B0001396DC93CE93129799878887FC0120814F
:1002C0002F5F2083DF91CF910895CF93DF93FC01BF
:1002D000A085B185C281D381848195819D838C83E2
:1002E000C481D581828193819B838A831196CD912C
:1002F000DC911297CE17DF0731F48C819D81129625
:100300009C938E931197118610868C9181508C93BB
:10031000DF91CF91089531E1FC013083319722E2E2
:1003200020833197A3E3A083319760833197708353
:1003300031971082319760E860833197108231974E
:1003400062E06083319763E06083319764E06083AB
:10035000319765E06083319766E06083319767E0AD
:100360006083319768E06083319769E060833197FB
:1003700060E1608331973083319732E13083319788
:1003800033E13083319734E13083319735E1308385
:10039000319736E13083319737E13083319738E157
:1003A0003083319739E13083319730E230833197B0
:1003B00031E2308331972083319723E220833197D4
:1003C000408331975083319726E22083319727E28B
:1003D0002083319728E22083319729E220833197C7
:1003E00020E32083319721E320838697089510929C
:1003F000890089EF809388008BE080938100EFE68D
:10040000F0E08081826080831092850010928400E9
:10041000A091F604B091F704CD91CDBFDD91DEBF80
:10042000FF91EF91DF91CF91BF91AF919F918F910C
:100430007F916F915F914F913F912F911F910F91FC
:10044000FF90EF90DF90CF90BF90AF909F908F90F4
:100450007F906F905F904F903F902F901F900F90E4
:100460000FBE0F90089581E0089508950F920FB682
:10047000F8940F921F9211242F923F924F925F9205
:100480006F927F928F929F92AF92BF92CF92DF92A4
:10049000EF92FF920F931F932F933F934F935F938E
:1004A0006F937F938F939F93AF93BF93CF93DF937C
:1004B000EF93FF93A091F604B091F7040DB60D925F
:1004C0000EB60D920E94410AA091F604B091F70475
:1004D000CD91CDBFDD91DEBFFF91EF91DF91CF9147
:1004E000BF91AF919F918F917F916F915F914F914C
:1004F0003F912F911F910F91FF90EF90DF90CF9040
:10050000BF90AF909F908F907F906F905F904F9033
:100510003F902F901F900F900FBE0F9008950F9255
:100520000FB6F8940F921F9211242F923F924F9280
:100530005F926F927F928F929F92AF92BF92CF9273
:10054000DF92EF92FF920F931F932F933F934F935E
:100550005F936F937F938F939F93AF93BF93CF934B
:10056000DF93EF93FF93A091F604B091F7040DB6DB
:100570000D920EB60D920E94610881110E94410AEF
:10058000A091F604B091F704CD91CDBFDD91DEBF0F
:10059000FF91EF91DF91CF91BF91AF919F918F919B
:1005A0007F916F915F914F913F912F911F910F918B
:1005B000FF90EF90DF90CF90BF90AF909F908F9083
:1005C0007F906F905F904F903F902F901F900F9073
:1005D0000FBE0F9008950E948F021895CF93DF935E
:1005E000EC010E94490880910A0190910B01892B2E
:1005F00031F48FE091E090930B0180930A014091D8
:100600000C0150910D019E01240F351F273E83E000
:10061000380770F44217530770F4C0910A01D09163
:100620000B01C40FD51F30930D0120930C0105C0A1
:10063000C0E0D0E002C0C0E0D0E00E942009CE01BE
:10064000DF91CF910895089510920D0110920C0141
:10065000089520910C0130910D0187EE93E0821BEB
:10066000930B08951F93CF93DF93EC01142F8C8D80
:100670008823E9F1411117C0482F50E08C819D81FA
:100680000E94350E2C8D8C819D81820F911D9D8342
:100690008C832A813B818217930748F18881998155
:1006A0009D838C8324C0482F50E08E819F810E94BF
:1006B000350E2C8D30E03195219531098E819F8149
:1006C000820F931F9F838E83688179818617970796
:1006D00030F48A819B81280F391F3F832E8312308B
:1006E00031F48A8D882319F08A8D81508A8F8A8D02
:1006F0008F5F8A8F80E0DF91CF911F910895FC0179
:10070000CB01448D4423A1F050E026813781240F92
:10071000351F37832683628173812617370720F0C0
:100720002081318137832683668177810E94350E4F
:1007300008950F931F93CF93DF93EC010FB6F894B6
:100740000F928E8D1816B4F48989882399F08E0142
:100750000F5E1F4F03C08989882361F0C8010E9482
:10076000E00A81110E94A00B8E8D81508E8F8E8D9C
:1007700018168CF38FEF8E8F0F900FBE0FB6F89474
:100780000F928D8D1816B4F48885882399F08E0108
:10079000085F1F4F03C08885882361F0C8010E944D
:1007A000E00A81110E94A00B8D8D81508D8F8D8D5F
:1007B00018168CF38FEF8D8F0F900FBEDF91CF91B6
:1007C0001F910F910895CF93DF93EC010FB6F8942A
:1007D0000F92888199812C8D30E07B8D729FA001D2
:1007E000739F500D1124FC01E40FF51FFB83EA8376
:1007F0001A8E9D838C83421B530B840F951F9F83FE
:100800008E838FEF8D8F8E8F61110CC0888588232A
:1008100089F0CE0108960E94E00A813059F40E94C6
:10082000360208C0CE0108960E940101CE01419611
:100830000E9401010F900FBE81E0DF91CF910895DA
:100840000F931F93CF93DF93082F162F6623C9F0C2
:10085000869FC001112480960E94EE02EC01009751
:1008600021F416C0D983C88305C09C01215E3F4F87
:10087000398328830B8F1C8F61E0CE010E94E30334
:1008800007C08FE190E00E94EE02EC01009751F763
:10089000CE01DF91CF911F910F9108959F92AF925A
:1008A000BF92CF92DF92EF92FF920F931F93CF935D
:1008B000DF9300D000D01F92CDB7DEB78C016B0163
:1008C0005D834C83A22EB12C992493947C0188E003
:1008D000E80EF11C0FB6F8940F92F801928D838DFB
:1008E000981718F0F2E0AF1219C04A2DB601C801EE
:1008F0000E943203F8019189992349F0C801419679
:100900000E94E00A813031F40E94360203C0811156
:100910000E9436020F900FBE81E051C0EC81FD8134
:10092000EF2B21F40F900FBE80E049C0B11005C03D
:10093000CE0101960E94620BB92C0F900FBE0E944F
:1009400049080FB6F8940F92F801858D8F3F09F48E
:10095000158EF801868D8F3F09F4168E0F900FBE0D
:10096000BE016C5F7F4FCE0101960E946D0B81111D
:1009700020C00FB6F8940F92F801928D0F900FBE21
:10098000F801838D98130FC06C817D81C7010E948F
:100990009F0AC8010E9499030E94200981119ACFE1
:1009A0000E94360297CFC8010E9499030E94200935
:1009B00091CFC8010E9499030E94200980E00F9006
:1009C0000F900F900F900F90DF91CF911F910F918B
:1009D000FF90EF90DF90CF90BF90AF909F900895E1
:1009E0000F931F93CF93DF93EC018A019A8D8B8D28
:1009F000981710F02230E1F4422FCE010E9432030A
:100A00008E8D8F3F81F489898823A1F0CE01419694
:100A10000E94E00A882381F00115110579F081E038
:100A2000F80180830CC08E8D8F5F8E8F81E007C0B0
:100A300080E005C081E003C081E001C081E0DF917A
:100A4000CF911F910F910895CF93DF93FC01EB019C
:100A5000928D838D9817C8F4828D8F5F828F868DDB
:100A60008F3F71F48189882391F0CF0141960E94D4
:100A7000E00A882371F0209771F081E088830CC030
:100A8000868D8F5F868F81E007C080E005C081E0A2
:100A900003C081E001C081E0DF91CF9108959F9272
:100AA000AF92BF92CF92DF92EF92FF920F931F937C
:100AB000CF93DF9300D000D01F92CDB7DEB78C016B
:100AC0006B015D834C83B22EA12C992493947C01FD
:100AD00081E1E80EF11C0FB6F8940F92F801828DB7
:100AE000882349F1E680F780B601C8010E947F03A0
:100AF000B11010C0F801828D8150828F80858823CB
:100B0000B1F0C80108960E94E00A813081F40E9489
:100B100036020DC0F801F782E6828189882339F018
:100B2000C80141960E94E00A81110E9436020F908E
:100B30000FBE81E04FC04C815D81452B21F40F90A9
:100B40000FBE80E047C0A11005C0CE0101960E94F3
:100B5000620BA92C0F900FBE0E9449080FB6F894A3
:100B60000F92F801858D8F3F09F4158EF801868D5F
:100B70008F3F09F4168E0F900FBEBE016C5F7F4F42
:100B8000CE0101960E946D0B81111EC00FB6F89424
:100B90000F92F801828D0F900FBE81110FC06C81F2
:100BA0007D81C7010E949F0AC8010E9499030E948B
:100BB0002009811190CF0E9436028DCFC8010E947A
:100BC00099030E94200987CFC8010E9499030E94BF
:100BD000200980E00F900F900F900F900F90DF9101
:100BE000CF911F910F91FF90EF90DF90CF90BF902A
:100BF000AF909F9008950F931F93CF93DF93EC01D5
:100C00008A018A8D8823F1F0CE010E947F038A8DAC
:100C100081508A8F8D8D8F3F81F488858823A1F044
:100C2000CE0108960E94E00A882381F00115110583
:100C300079F081E0F80180830CC08D8D8F5F8D8FFE
:100C400081E007C080E005C081E003C081E001C011
:100C500081E0DF91CF911F910F9108950F931F9322
:100C6000CF93DF93EC018A8D882349F00E811F8199
:100C7000CE010E947F031F830E8381E001C080E0CC
:100C8000DF91CF911F910F9108950FB6F8940F92B5
:100C9000FC01828D0F900FBE08950FB6F8940F924D
:100CA000FC01228D0F900FBEFC01838D821B0895E5
:100CB000FC01828D08950E9423030895FC01928D0A
:100CC00081E0911180E00895FC01228D81E0938DF7
:100CD000291380E00895E0911905F0911A058081AB
:100CE000811107C08FEF9FEF9093FA048093F9046E
:100CF0000895E0911905F0911A050580F681E02D1F
:100D00000680F781E02D828193819093FA0480938D
:100D1000F9040895CF93DF93EC01E091F604F0918C
:100D2000F704938382838091010590910205C8178F
:100D3000D90768F46091F6047091F7048091170563
:100D4000909118056E5F7F4F0E94340117C060912B
:100D5000F6047091F7048091190590911A056E5F61
:100D60007F4F0E9434018091F9049091FA04C817D2
:100D7000D90720F4D093FA04C093F904DF91CF91FE
:100D800008954F925F926F927F928F929F92AF924F
:100D9000BF92CF92DF92EF92FF920F931F93CF9368
:100DA000DF934C015B012A013901C114D10439F4EC
:100DB000CA010E94EE026C01009709F4D9C086E2D4
:100DC00090E00E94EE02EC01009771F0D88ECF8A7D
:100DD00081E0481A5108C40CD51CD5018C91898F2B
:100DE0008C91811105C015C0C6010E942303C0C0AB
:100DF000AE01465E5F4FF501319627E0CF0131919C
:100E0000DA013D93AD01DC018C91882311F0215072
:100E1000A9F718A2102F043008F013E01E8B5E0112
:100E2000B2E0AB0EB11CC5010E940F01CE010C96C1
:100E30000E940F01D987C88784E090E0811B910947
:100E40009D878C87DB8BCA8B19A21AA21BA21CA2BE
:100E50001DA2A301B401C6010E948B01998388835E
:100E6000E114F10419F0F701D183C0830FB6F894AF
:100E70000F92809103058F5F809303058091F604A4
:100E80009091F704892BA9F5D093F704C093F60449
:100E9000809103058130E1F58DE295E00E9401012A
:100EA00086E395E00E9401018FE395E00E94010135
:100EB00088E495E00E94010184E295E00E9401012E
:100EC0008BE195E00E9401018EE095E00E94010116
:100ED00085E095E00E94010184E295E090931A0577
:100EE000809319058BE195E0909318058093170581
:100EF0000FC08091FF0481110BC0E091F604F091C6
:100F0000F7048689081720F0D093F704C093F604FD
:100F10008091FB048F5F8093FB048E899091000584
:100F2000981710F48093000590E09C01220F331F66
:100F3000220F331F220F331F820F931FB501835DD2
:100F40009A4F0E9413010F900FBE8091FF048823D7
:100F500059F0E091F604F091F7048689801730F497
:100F60000E94360281E005C081E003C081E001C03B
:100F70008FEFDF91CF911F910F91FF90EF90DF9056
:100F8000CF90BF90AF909F908F907F906F905F9029
:100F90004F9008950F931F93CF93DF93EC010FB6FB
:100FA000F8940F92009721F4C091F604D091F704C1
:100FB0008E010E5F1F4FC8010E9465018C899D89BB
:100FC000892B21F0CE010C960E946501B80185E0C5
:100FD00095E00E941301809104058F5F80930405C2
:100FE0008091FB048F5F8093FB040F900FBE809174
:100FF000FF04882389F08091F6049091F704C817C4
:10100000D90719F40E94360207C00FB6F8940F9260
:101010000E946B060F900FBEDF91CF911F910F9131
:101020000895AF92BF92CF92DF92EF92FF920F930B
:10103000A12CB12CC12CD12CE12CF12C00E020E012
:1010400030E045E550E064E071E085E09AE00E9420
:10105000C106813081F4F8948FEF9FEF9093FA04EA
:101060008093F90481E08093FF04109202051092AE
:1010700001050E94F7010F91FF90EF90DF90CF9054
:10108000BF90AF900895F8941092FF040E9435022B
:1010900008958091F8048F5F8093F80408950FB647
:1010A000F8940F9280910105909102050F900FBE68
:1010B000089580910105909102050895809103059E
:1010C0000895CF92DF92EF92FF920F931F93CF93E9
:1010D000DF938091F80481119AC08091010590916D
:1010E000020501969093020580930105E0900105A9
:1010F000F0900205E114F104B9F480911905909182
:101100001A05209117053091180530931A05209380
:10111000190590931805809317058091FC048F5F43
:101120008093FC040E946B068091F9049091FA046C
:10113000E816F90608F454C0D12CCC24C39401C09D
:10114000DC2CE0911905F0911A058081811107C00E
:101150008FEF9FEF9093FA048093F90442C0E091DF
:101160001905F0911A050580F681E02DC681D78119
:101170002A813B81E216F30628F43093FA04209387
:10118000F9042FC08E010E5F1F4FC8010E94650138
:101190008C899D89892B21F0CE010C960E946501D6
:1011A0002E8980910005821710F42093000530E00D
:1011B000C901880F991F880F991F880F991F820FE7
:1011C000931FB801835D9A4F0E941301E091F604CA
:1011D000F091F7049E898689981708F0B1CFB1CFB6
:1011E000D12CE091F604F091F704868990E0FC019F
:1011F000EE0FFF1FEE0FFF1FEE0FFF1F8E0F9F1F43
:10120000FC01E35DFA4F8081823040F409C0809197
:10121000FE048F5F8093FE04D12C02C0DD24D394A2
:101220008091FD04882311F0DD24D3948D2DDF916E
:10123000CF911F910F91FF90EF90DF90CF90089585
:10124000DF92EF92FF920F931F93CF93DF930FB62E
:10125000F8940F928091F80481508093F804809163
:10126000F804811161C080910305882309F45EC0F0
:101270000F2EFEE0EF2EF5E0FF2EF02DDD24D394AF
:1012800030C0E0911305F0911405C681D781CE01DD
:101290000C960E9465018E010E5F1F4FC8010E94CF
:1012A00065018E8990910005981710F480930005D0
:1012B00090E09C01220F331F220F331F220F331F98
:1012C000820F931FB801835D9A4F0E941301E09132
:1012D000F604F091F7049E898689981710F0D09251
:1012E000FD04F70180818111CCCF8091FE04882319
:1012F00099F08091FE04882379F0C1E00E94610892
:101300008111C093FD048091FE0481508093FE04FE
:101310008091FE048111F2CF8091FD04813041F46F
:101320000E94360281E005C080E003C080E001C079
:1013300080E00F900FBEDF91CF911F910F91FF9032
:10134000EF90DF9008950F931F93CF93DF938C015D
:10135000EB010E9449088091010590910205F80176
:1013600020813181C20FD31F8217930748F4C2171F
:10137000D30710F5D183C0838C179D0790F407C065
:10138000C217D307A8F08C179D0790F015C0809165
:10139000F6049091F70402960E946501CE010E9426
:1013A0008A060E94200981110BC00E94360208C0E3
:1013B000F801D183C083EBCFF801D183C083F1CF93
:1013C000DF91CF911F910F910895CF93DF93EC019F
:1013D0000097B1F00E9449088091010590910205A3
:1013E000C80FD91F8091F6049091F70402960E94CD
:1013F0006501CE010E948A060E942009811102C067
:101400000E943602DF91CF9108950F2EFDE2EF2E5C
:10141000F5E0FF2EF02DC5E0D5E028C00E94490878
:1014200018810E942009112309F10FB6F8940F9238
:10143000E0910A05F0910B0506811781C80102961B
:101440000E9465018091030581508093030580917E
:1014500004058150809304050F900FBEF801878921
:10146000908D0E942303C8010E94230380910405EC
:101470008111D4CFF70180818230C0F30E943602FF
:10148000F5CF8091F804882321F081E08093FD045A
:1014900008951092FD048091000590E0FC01EE0F8C
:1014A000FF1FEE0FFF1FEE0FFF1F8E0F9F1FFC0190
:1014B000E35DFA4F8081811117C080910005815052
:1014C000809300058091000590E0FC01EE0FFF1F66
:1014D000EE0FFF1FEE0FFF1F8E0F9F1FFC01E35D3E
:1014E000FA4F8081882349F3E0910005F0E0CF01B5
:1014F000880F991F880F991F880F991FE80FF91FF0
:10150000E35DFA4FA181B28112960D90BC91A02D9E
:10151000B283A183CF010396A817B90731F41296BD
:101520008D919C911397928381830180F281E02DAC
:10153000868197819093F7048093F6040895CF9362
:10154000DF93EB016091F6047091F704645F7F4FC5
:101550000E9434018091F6049091F70402960E9453
:10156000650180910105909102058C0F9D1F0E94DD
:101570008A06DF91CF910895CF93DF93EA01E0913E
:10158000F604F091F7047068758764876091F6043B
:101590007091F704645F7F4F0E9413018091F604FD
:1015A0009091F70402960E94650180910105909147
:1015B00002058C0F9D1F0E948A06DF91CF9108952E
:1015C0000F931F93CF93DF93DC011596ED91FC9160
:1015D0001697C681D7818E01045F1F4FC8010E94F4
:1015E00065018091F80481111CC00A501109C801DD
:1015F0000E9465018E8990910005981710F48093E0
:10160000000590E09C01220F331F220F331F220F91
:10161000331F820F931FB801835D9A4F0E941301FD
:1016200005C0B8018EE095E00E941301E091F60438
:10163000F091F7049E898689891720F481E08093D0
:10164000FD0401C080E0DF91CF911F910F910895BB
:101650000F931F93CF93DF937068FC0171836083B6
:10166000C681D7810E9465018E010E5F1F4FC801A0
:101670000E9465018E8990910005981710F480935F
:10168000000590E09C01220F331F220F331F220F11
:10169000331F820F931FB801835D9A4F0E9413017D
:1016A000E091F604F091F7049E898689891720F469
:1016B00081E08093FD0401C080E0DF91CF911F9114
:1016C0000F9108952091FC04FC01208320910105D5
:1016D000309102053283218308950FB6F8940F925A
:1016E00020910105309102054091FC04DC015C91E0
:1016F000541739F011964D915C91129724173507C4
:10170000C8F4DC011196ED91FC911297DB014D912B
:101710005C91D901AE1BBF0BA417B50768F4E21B9F
:10172000F30B4E0F5F1FFB01518340830E94620B3E
:1017300080E003C081E001C081E00F900FBE0895FA
:1017400081E08093FD040895E091F604F091F704A0
:1017500084859585E091F604F091F704A091F60454
:10176000B091F70456964C9124E030E0241B3109E7
:101770003587248708950F931F93CF93C82F8B012C
:101780000FB6F8940F92E091F604F091F70441A19E
:1017900052A163A174A1452B462B472BD1F4E091B4
:1017A000F604F091F70481E085A30115110589F095
:1017B0008091F6049091F70402960E946501809151
:1017C000010590910205800F911F0E948A060E94D8
:1017D00036020F900FBE0FB6F8940F92E091F60408
:1017E000F091F70461A172A183A194A16115710523
:1017F00081059105D9F0CC2349F0E091F604F091F0
:10180000F70411A212A213A214A210C0E091F604D0
:10181000F091F70401A112A123A134A101501109F3
:101820002109310901A312A323A334A3E091F604F3
:10183000F091F70415A20F900FBECF911F910F9159
:1018400008954F925F926F927F928F929F92AF9284
:10185000BF92EF92FF920F931F9349015A010FB667
:10186000F8940F92E091F604F091F70425A122304C
:1018700081F1E091F604F091F70441A052A063A039
:1018800074A0DC01CB0180959095A095B095842142
:101890009521A621B72181A392A3A3A3B4A3E0918C
:1018A000F604F091F70481E085A3E114F10489F0D6
:1018B0008091F6049091F70402960E946501809150
:1018C0000105909102058E0D9F1D0E948A060E94BF
:1018D00036020F900FBE0FB6F8940F920115110546
:1018E00069F0E091F604F091F70481A192A1A3A11F
:1018F000B4A1F80180839183A283B383E091F604BD
:10190000F091F70485A18130B1F0E091F604F091F7
:10191000F70481A192A1A3A1B4A180949094A09472
:10192000B09488229922AA22BB2281A292A2A3A2C9
:10193000B4A281E001C080E0E091F604F091F704E8
:1019400015A20F900FBE1F910F91FF90EF90BF90C7
:10195000AF909F908F907F906F905F904F90089581
:10196000CF92DF92EF92FF920F931F93CF93DF936B
:10197000EC010FB6F8940F920115110549F0C9A0BA
:10198000DAA0EBA0FCA0F801C082D182E282F3824F
:101990008DA192E09DA32230B1F018F4213031F0F6
:1019A0002AC02330E9F0243001F125C0C9A0DAA013
:1019B000EBA0FCA04C295D296E297F2949A35AA3DD
:1019C0006BA37CA318C049A15AA16BA17CA14F5F56
:1019D0005F4F6F4F7F4F49A35AA36BA37CA30BC0EC
:1019E00049A35AA36BA37CA306C0823071F149A31B
:1019F0005AA36BA37CA3813051F58E010E5F1F4F5C
:101A0000C8010E9465018E8990910005981710F415
:101A10008093000590E09C01220F331F220F331F9B
:101A2000220F331F820F931FB801835D9A4F0E94CC
:101A30001301E091F604F091F7049E8986898917D5
:101A400040F40E94360281E005C080E003C081E0DE
:101A500001C081E00F900FBEDF91CF911F910F91D8
:101A6000FF90EF90DF90CF900895AF92BF92CF920A
:101A7000DF92EF92FF920F931F93CF93DF93EC01CE
:101A800057010115110549F0C9A0DAA0EBA0FCA08F
:101A9000F801C082D182E282F3823DA182E08DA36F
:101AA0002230B1F018F4213031F029C02330E1F0B8
:101AB0002430F9F024C089A19AA1ABA1BCA1482B84
:101AC000592B6A2B7B2B49A35AA36BA37CA317C06A
:101AD00089A19AA1ABA1BCA10196A11DB11D89A3A9
:101AE0009AA3ABA3BCA30BC049A35AA36BA37CA32B
:101AF00006C03230E9F149A35AA36BA37CA331306D
:101B0000C9F58091F80481111DC08E010E5F1F4F31
:101B1000C8010E9465018E8990910005981710F404
:101B20008093000590E09C01220F331F220F331F8A
:101B3000220F331F820F931FB801835D9A4F0E94BB
:101B4000130107C0BE01645F7F4F8EE095E00E94E5
:101B50001301E091F604F091F7049E8986898917B4
:101B600058F4A114B10451F081E0F501808307C05D
:101B700080E005C081E003C081E001C081E0DF9129
:101B8000CF911F910F91FF90EF90DF90CF90BF907A
:101B9000AF900895EF92FF920F931F93CF93DF932F
:101BA000EC018B018DA192E09DA349A15AA16BA1EB
:101BB0007CA14F5F5F4F6F4F7F4F49A35AA36BA329
:101BC0007CA38130B9F58091F80481111EC07E019B
:101BD00082E0E80EF11CC7010E9465018E89909198
:101BE0000005981710F48093000590E09C01220FE7
:101BF000331F220F331F220F331F820F931FB70192
:101C0000835D9A4F0E94130107C0BE01645F7F4F3E
:101C10008EE095E00E941301E091F604F091F70444
:101C20009E898689891730F40115110519F081E024
:101C3000F8018083DF91CF911F910F91FF90EF907A
:101C40000895009721F48091F6049091F7040FB65F
:101C5000F8940F92FC0125A1223019F415A281E01D
:101C600001C080E00F900FBE0895FB01DC0102C0AF
:101C700001900D9241505040D8F70895F894FFCF4D
:0A1C80004C45440049444C45000067
:00000001FF
