S019000046726F6E7453656E736F724D6F64756C652E7372656322
S11300000C9449000C9466000C9466000C946600F1
S11300100C9466000C9466000C9466000C946600C4
S11300200C9466000C9466000C9466000C946600B4
S11300300C9407160C9466000C9466000C946600ED
S11300400C9466000C9466000C9466000C94660094
S11300500C9466000C9466000C9466000C94660084
S11300600C9466000C9466000C9466000C94660074
S11300700C9466000C9466000C9466001F06150729
S1130080FF07CD085009E0097A0AA00BD30C100E23
S1130090C60E11241FBECFEFD0E1DEBFCDBF11E0ED
S11300A0A0E0B1E0E0E7F2E502C005900D92A231D4
S11300B0B107D9F725E0A2E1B1E001C01D92AD3648
S11300C0B207E1F70E9466110C9436290C940000E3
S11300D0CF93DF931F92CDB7DEB789838CE790E08F
S11300E02CE730E0F9012081207EFC012083898106
S11300F08D3010F082E189838CE790E02CE730E0CA
S1130100F90130812981232BFC0120838AE790E0C7
S11301102AE730E0F90120812064FC0120830000FB
S11301208AE790E0FC018081882F90E08074992711
S1130130892BB1F789E790E0FC0180810F90DF9172
S1130140CF910895CF93DF9300D01F92CDB7DEB740
S113015089836A834B838981882F90E0813091055C
S113016079F18230910509F453C0892B09F078C0E4
S11301708B81882F90E022273327281B390B84E2B8
S113018090E0FC018081882F90E0282739278A811C
S1130190482F50E081E090E002C0880F991F4A95F3
S11301A0E2F7A9014823592384E290E024E230E0F5
S11301B0F9012081322F242F2327FC01208350C0F2
S11301C08B81882F90E022273327281B390B87E265
S11301D090E0FC018081882F90E0282739278A81CC
S11301E0482F50E081E090E002C0880F991F4A95A3
S11301F0E2F7A9014823592387E290E027E230E09F
S1130200F9012081322F242F2327FC01208328C0C9
S11302108B81882F90E022273327281B390B8AE211
S113022090E0FC018081882F90E0282739278A817B
S1130230482F50E081E090E002C0880F991F4A9552
S1130240E2F7A901482359238AE290E02AE230E048
S1130250F9012081322F242F2327FC012083000061
S11302600F900F900F90DF91CF910895CF93DF936C
S113027000D01F92CDB7DEB789836A834B8389810F
S1130280882F90E08130910579F18230910509F44D
S113029053C0892B09F078C08B81882F90E02227E6
S11302A03327281B390B85E290E0FC018081882FDD
S11302B090E0282739278A81482F50E081E090E098
S11302C002C0880F991F4A95E2F7A90148235923D0
S11302D085E290E025E230E0F9012081322F242FDD
S11302E02327FC01208350C08B81882F90E0222794
S11302F03327281B390B88E290E0FC018081882F8A
S113030090E0282739278A81482F50E081E090E047
S113031002C0880F991F4A95E2F7A901482359237F
S113032088E290E028E230E0F9012081322F242F86
S11303302327FC01208328C08B81882F90E022276B
S11303403327281B390B8BE290E0FC018081882F36
S113035090E0282739278A81482F50E081E090E0F7
S113036002C0880F991F4A95E2F7A901482359232F
S11303708BE290E02BE230E0F9012081322F242F30
S11303802327FC01208300000F900F900F90DF9132
S1130390CF910895CF93DF93CDB7DEB761970FB6B2
S11303A0F894DEBF0FBECDBF9E878D87788B6F8795
S11303B0498B8F859889998788871C8689898F833B
S11303C08D859E859C838B8382E08A830000CE0189
S11303D001960E94A0058823D1F70000CE01019662
S11303E00E9436108130D1F361960FB6F894DEBFC7
S11303F00FBECDBFDF91CF910895CF93DF93CDB7DB
S1130400DEB761970FB6F894DEBF0FBECDBF9E87EF
S11304108D87788B6F87498B8F8598899987888793
S11304201C8689898F838D859E859C838B8388E038
S11304308A830000CE0101960E94A0058823D1F78B
S11304400000CE0101960E9436108130D1F36196EE
S11304500FB6F894DEBF0FBECDBFDF91CF910895E4
S1130460CF93DF9300D01F92CDB7DEB719821DC0A2
S11304708DEE90E029812295207FFC0120838EEE71
S113048090E09B838A8309C08A819B81FC0110824E
S11304908A819B8101969B838A838A819B81883F81
S11304A0910590F389818F5F89838981863000F378
S11304B00F900F900F90DF91CF910895CF93DF931A
S11304C000D0CDB7DEB78DEE90E0FC0180818A8349
S11304D019821BC08DEE90E029812295207FFC01BA
S11304E020838FEE90E0FC018081882F90E0807C57
S11304F09927892B39F48DEE90E02A81FC01208321
S113050089810CC089818F5F89838981863010F34A
S11305108DEE90E02A81FC0120838FEF0F900F90E5
S1130520DF91CF910895CF93DF9300D0CDB7DEB79D
S11305308FEE90E0FC018081882F90E0807C9927E9
S1130540892B11F48FEF1CC08EEE90E0FC018081AA
S113055089838981807E8A838A81803231F08A818D
S1130560803419F08A81803A11F48A8109C0898122
S11305708F718A838A81882311F08A8101C080E087
S11305800F900F90DF91CF910895CF93DF9300D018
S11305901F92CDB7DEB79B838A83198210C08981ED
S11305A0882F90E02A813B81820F931F2AEF30E04D
S11305B0F9012081FC01208389818F5F89838981EE
S11305C0282F30E08FEE90E0FC018081882F90E0AE
S11305D08F7099272817390714F30F900F900F90F5
S11305E0DF91CF910895CF93DF93CDB7DEB76297B4
S11305F00FB6F894DEBF0FBECDBF8A8B1C861A8659
S11306008A858F831F861E861D8681E088878A8956
S11306108823B1F481E08A8388E08C8382E08D832F
S113062082E08E839D818E81890F9C81292F281BD6
S1130630822F81508B8381E08B8781E0898792C0F0
S113064082EE90E0FC018081882F90E08E779927DC
S1130650959587950196029764F082EE90E0FC01EF
S11306608081882F90E08E779927959587958F5F65
S113067001C081E08A8383EE90E0FC018081882FB1
S113068090E08E709927959587950196029764F06E
S113069083EE90E0FC018081882F90E08E70992792
S11306A0959587958F5F01C081E08B8384EE90E000
S11306B0FC018081882F90E08E709927959587950D
S11306C00196039764F084EE90E0FC018081882F0A
S11306D090E08E709927959587958F5F01C082E091
S11306E08D8384EE90E0FC018081882F90E08077F8
S11306F0992795958795959587959595879595953A
S113070087950196039794F084EE90E0FC01808134
S1130710882F90E08077992795958795959587956B
S113072095958795959587958F5F01C082E08E8317
S11307308B81282F30E08D81882F90E0280F391F7E
S11307408E81882F90E0820F931F01968830910547
S113075014F488E090E08C8381E08A878A858F8313
S11307601B86198619821DC08DEE90E02981229581
S1130770207FFC0120838EEE90E0998B888B09C04A
S113078088899989FC011082888999890196998BB5
S1130790888B88899989883F910590F389818F5F37
S11307A089838981863000F381C18B85813009F08A
S11307B074C088ED90E021E0FC0120838D859E8546
S11307C001969E878D871C8682EE90E02A812150B7
S11307D0220FFC01208383EE90E02E812695222FA8
S11307E030E021503109220F331F22953295307F9A
S11307F03227207F3227422F2B81222F30E02150B5
S11308003109220F331F242BFC01208384EE90E056
S11308102E81222F30E02150310922953295307FEC
S11308203227207F3227422F2D81222F30E0215082
S11308303109220F331F242B2160FC01208385EE14
S113084090E02D853E8536952795369527953695E6
S11308502795FC0120838DEE90E0FC0110828EEE42
S113086090E0FC0110828FEE90E020E8FC012083F0
S113087088ED90E02AE0FC012083000089ED90E0FF
S1130880FC018081882F90E084709927892BB1F333
S11308908AED90E02FEFFC01208368C08EEE90E09B
S11308A0FC01808189838981882F90E08072992757
S11308B0892BF1F019861A86188681E08F878FEECE
S11308C090E02FEE30E0F90120812F73FC012083AA
S11308D088ED90E0FC011082000089ED90E0FC01BD
S11308E08081882F90E084709927892BB1F73EC0CE
S11308F08981882F90E08F719927892B19F081E0E5
S11309008A8719868AED90E0FC0180818983898138
S1130910882F90E080729927892BE1F08C858823B9
S113092069F48AED90E02AED30E0F901208120623B
S1130930FC0120838C858F5F8C870CC08AED90E04E
S11309402AED30E0F90120812062FC01208381E05E
S11309508A8719868981882F90E08F709927892B3F
S113096029F081E08A87198681E08B878985813027
S113097009F494CF97C08F81882319F08D818F5FFC
S11309808D8381E08F838D818930A0F18E818830C1
S113099088F182E08D8382E08E831F828C8189318D
S11309A021F08C818F5F8C8324C088E08C838A81C2
S11309B0803421F08A818F5F8A831BC01A861F8648
S11309C018868FEE90E02FEE30E0F90120812F732E
S11309D0FC01208388ED90E0FC011082000089ED89
S11309E090E0FC018081882F90E084709927892B06
S11309F0B1F758C08D81863080F08D81282F30E08A
S1130A008E81882F90E001968217930744F48E819B
S1130A108F5F8E838E818D8302C08D818E839D81B5
S1130A208E81890F9C81F92FF81B8F2F81508B8326
S1130A308B818930B8F58B818823A1F18E81882F31
S1130A4090E09C01220F331F220F331F8B81882FCC
S1130A5090E0AC014F5F5F4F8D81882F90E0840F51
S1130A60951F28173907F4F08E81282F30E08E81E6
S1130A70882F90E0280F391F8E81882F90E0280F4F
S1130A80391F8B81882F90E0AC014F5F5F4F8D81C0
S1130A90882F90E0840F951F821793071CF01A8605
S1130AA081E089878A85813009F465CF8885813022
S1130AB009F47BCE8F8562960FB6F894DEBF0FBE25
S1130AC0CDBFDF91CF910895CF93DF931F92CDB720
S1130AD0DEB7898388ED90E021E0FC01208382EE7B
S1130AE090E026E0FC01208383EE90E024E0FC010A
S1130AF0208384EE90E023E1FC01208381E00F90C9
S1130B00DF91CF910895CF93DF931F92CDB7DEB7D6
S1130B10898389810E946405882311F480E00CC0D4
S1130B200E94300288ED90E028ED30E0F901208148
S1130B302260FC01208381E00F90DF91CF91089522
S1130B40CF93DF93CDB7DEB72A970FB6F894DEBF05
S1130B500FBECDBF9A87898789859A85FC018181DB
S1130B608C3039F589859A85FC0181858036D9F4E4
S1130B708DEE90E029853A85F90120812295207F28
S1130B80FC0120838FEE90E02FEE30E0F90120810C
S1130B902F73FC0120838EEE90E0FC011082898586
S1130BA09A85FC01108289859A85FC0111860C9432
S1130BB02C100E945E028C838C818F3F11F40C9464
S1130BC0251089859A8520E6FC01218789859A85E7
S1130BD02C81FC0120838DEE90E02C812295207FD6
S1130BE0FC0120838EEE90E09B838A8309C08A8176
S1130BF09B81FC0110828A819B8101969B838A835D
S1130C008A819B81883F910590F389859A85FC01AF
S1130C108181882F90E0092E000CAA0BBB0B41E0C8
S1130C2050E02AE030E0841B950B2817390710F4B4
S1130C300C941F10825C9F4FFC010C94272989851A
S1130C409A85FC018385882309F469C083EF90E0C9
S1130C5029853A852E5F3F4F2D5F3F4FF901208153
S1130C60422F440F440F440F29853A852E5F3F4F8E
S1130C702E5F3F4FF9012081229526952770240F7E
S1130C80FC01208382EF90E029853A852E5F3F4F57
S1130C902E5F3F4FF9012081422F440F440F440F30
S1130CA029853A852E5F3F4F2F5F3F4FF901208101
S1130CB0229526952770240FFC01208381EF90E074
S1130CC029853A852E5F3F4F2F5F3F4FF9012081E1
S1130CD0422F440F440F440F29853A852E5F3F4F1E
S1130CE0F9012081229526952770240FFC01208389
S1130CF080EF90E029853A852E5F3F4FF9012081EE
S1130D00220F220F220FFC0120838FEE90E02FEEA2
S1130D1030E0F90120812061FC01208330C083EFA1
S1130D2090E029853A852E5F3F4F2F5F3F4FF901B1
S1130D302081422F4295440F407E29853A852E5FBB
S1130D403F4FF9012081269526952695240FFC0115
S1130D50208382EF90E029853A852E5F3F4FF90189
S1130D6020812295220F207EFC0120838FEE90E0CB
S1130D702FEE30E0F90120812F7EFC0120831982BF
S1130D8013C08AEF90E029853A85F901478150859F
S1130D902981222F30E0240F351FF9012081FC0125
S1130DA0208389818F5F898389859A85FC01968157
S1130DB08981891730F389859A85FC018285882386
S1130DC051F080EF90E020EF30E0F90120812460C1
S1130DD0FC01208309C080EF90E020EF30E0F901AE
S1130DE020812B7FFC0120838FEE90E02FEE30E0FA
S1130DF0F901408129853A85F9012681242BFC01DA
S1130E0020838FEE90E02FEE30E0F90120812F73E4
S1130E10FC0120838FEE90E02FEE30E0F901208179
S1130E202064FC0120830C94241089859A85FC019C
S1130E308385882309F469C083EF90E029853A8586
S1130E402E5F3F4F2D5F3F4FF9012081422F440F0A
S1130E50440F440F29853A852E5F3F4F2E5F3F4F45
S1130E60F9012081229526952770240FFC01208307
S1130E7082EF90E029853A852E5F3F4F2E5F3F4FEA
S1130E80F9012081422F440F440F440F29853A85EC
S1130E902E5F3F4F2F5F3F4FF9012081229526950A
S1130EA02770240FFC01208381EF90E029853A8587
S1130EB02E5F3F4F2F5F3F4FF9012081422F440F98
S1130EC0440F440F29853A852E5F3F4FF901208155
S1130ED0229526952770240FFC01208380EF90E053
S1130EE029853A852E5F3F4FF9012081220F220F79
S1130EF0220FFC0120838FEE90E02FEE30E0F90109
S1130F0020812061FC01208330C083EF90E029859B
S1130F103A852E5F3F4F2F5F3F4FF9012081422FCB
S1130F204295440F407E29853A852E5F3F4FF90153
S1130F302081269526952695240FFC01208382EF97
S1130F4090E029853A852E5F3F4FF9012081229553
S1130F50220F207EFC0120838FEE90E02FEE30E004
S1130F60F90120812F7EFC012083198213C08AEFAE
S1130F7090E029853A85F901478150852981222FFE
S1130F8030E0240F351FF9012081FC012083898181
S1130F908F5F898389859A85FC0196818981891768
S1130FA030F389859A85FC01128680EF90E020EF6A
S1130FB030E0F90120812B7FFC0120838FEE90E04B
S1130FC02FEE30E0F901408129853A85F901268127
S1130FD0242BFC0120838FEE90E02FEE30E0F9010A
S1130FE020812F73FC0120838FEE90E02FEE30E000
S1130FF0F90120812064FC0120830C94241089854C
S11310009A85FC018385882309F469C083EF90E005
S113101029853A852E5F3F4F2D5F3F4FF90120818F
S1131020422F440F440F440F29853A852E5F3F4FCA
S11310302E5F3F4FF9012081229526952770240FBA
S1131040FC01208382EF90E029853A852E5F3F4F93
S11310502E5F3F4FF9012081422F440F440F440F6C
S113106029853A852E5F3F4F2F5F3F4FF90120813D
S1131070229526952770240FFC01208381EF90E0B0
S113108029853A852E5F3F4F2F5F3F4FF90120811D
S1131090422F440F440F440F29853A852E5F3F4F5A
S11310A0F9012081229526952770240FFC012083C5
S11310B080EF90E029853A852E5F3F4FF90120812A
S11310C0220F220F220FFC0120838FEE90E02FEEDF
S11310D030E0F90120812061FC01208330C083EFDE
S11310E090E029853A852E5F3F4F2F5F3F4FF901EE
S11310F02081422F4295440F407E29853A852E5FF8
S11311003F4FF9012081269526952695240FFC0151
S1131110208382EF90E029853A852E5F3F4FF901C5
S113112020812295220F207EFC0120838FEE90E007
S11311302FEE30E0F90120812F7EFC012083898588
S11311409A8521E0FC01228780EF90E020EF30E0D7
S1131150F90120812460FC0120838FEE90E02FEEC2
S113116030E0F901408129853A85F9012681242B53
S1131170FC0120838FEE90E02FEE30E0F901208116
S11311802F73FC0120838FEE90E02FEE30E0F90105
S113119020812064FC01208357C71D821E821F8288
S11311A0188627EF30E0CE0105960396FC01808176
S11311B0482F440F440F440FCE0105960296FC01BC
S11311C08081829586958770840FF901808326EF4C
S11311D030E0CE0105960296FC018081482F440F31
S11311E0440F440FCE0105960196FC01808182953F
S11311F086958770840FF901808325EF30E0CE0156
S113120005960196FC018081482F440F440F440F3A
S1131210CE010596FC018081829586958770840FA6
S1131220F901808384EF90E09E012B5F3F4FF90129
S11312302081220F220F220FFC0120838FEE90E0E9
S11312402FEE30E0F901408129853A85F9012681A4
S1131250242BFC01208384EF90E024EF30E0F9019B
S113126020812B7FFC01208384EF90E024EF30E089
S1131270F90120812E7FFC0120838FEE90E02FEE78
S113128030E0F90120812F73FC0120838FEE90E080
S11312902FEE30E0F90120812068FC012083D4C6C0
S11312A01D821E821F82188627EF30E0CE0105962C
S11312B00396FC018081482F440F440F440FCE0154
S11312C005960296FC018081829586958770840F2D
S11312D0F901808326EF30E0CE0105960296FC01E9
S11312E08081482F440F440F440FCE010596019688
S11312F0FC018081829586958770840FF901808333
S113130025EF30E0CE0105960196FC018081482F3F
S1131310440F440F440FCE010596FC018081829551
S113132086958770840FF901808384EF90E09E0195
S11313302B5F3F4FF9012081220F220F220FFC0166
S113134020838FEE90E02FEE30E0F9014081298573
S11313503A85F9012681242BFC01208389859A850D
S1131360FC01128684EF90E024EF30E0F901208143
S11313702460FC01208380EF90E020EF30E0F9014D
S113138020812B7FFC01208384EF90E024EF30E068
S1131390F90120812E7FFC0120838FEE90E02FEE57
S11313A030E0F90120812F73FC0120838FEE90E05F
S11313B02FEE30E0F90120812068FC01208344C62F
S11313C01D821E821F82188627EF30E0CE0105960B
S11313D00396FC018081482F440F440F440FCE0133
S11313E005960296FC018081829586958770840F0C
S11313F0F901808326EF30E0CE0105960296FC01C8
S11314008081482F440F440F440FCE010596019666
S1131410FC018081829586958770840FF901808311
S113142025EF30E0CE0105960196FC018081482F1E
S1131430440F440F440FCE010596FC018081829530
S113144086958770840FF901808384EF90E09E0174
S11314502B5F3F4FF9012081220F220F220FFC0145
S113146020838FEE90E02FEE30E0F9014081298552
S11314703A85F9012681242BFC01208389859A85EC
S113148021E0FC01228784EF90E024EF30E0F901B1
S113149020812460FC01208380EF90E020EF30E085
S11314A0F90120812460FC0120838FEE90E02FEE6F
S11314B030E0F90120812F7DFC01208384EF90E04E
S11314C024EF30E0F90120812E7FFC0120838FEE90
S11314D090E02FEE30E0F90120812F73FC0120838E
S11314E08FEE90E02FEE30E0F90120812068FC01BE
S11314F02083AAC589859A85FC018385882309F4FC
S113150069C083EF90E029853A852E5F3F4F2D5FB8
S11315103F4FF9012081422F440F440F440F298586
S11315203A852E5F3F4F2E5F3F4FF9012081229570
S113153026952770240FFC01208382EF90E02985F3
S11315403A852E5F3F4F2E5F3F4FF9012081422F96
S1131550440F440F440F29853A852E5F3F4F2F5F78
S11315603F4FF9012081229526952770240FFC0115
S1131570208381EF90E029853A852E5F3F4F2F5FCE
S11315803F4FF9012081422F440F440F440F298516
S11315903A852E5F3F4FF9012081229526952770C9
S11315A0240FFC01208380EF90E029853A852E5F8B
S11315B03F4FF9012081220F220F220FFC012083CB
S11315C08FEE90E02FEE30E0F90120812061FC01E4
S11315D0208330C083EF90E029853A852E5F3F4F0A
S11315E02F5F3F4FF9012081422F4295440F407EE7
S11315F029853A852E5F3F4FF9012081269526954E
S11316002695240FFC01208382EF90E029853A85FA
S11316102E5F3F4FF90120812295220F207EFC018D
S113162020838FEE90E02FEE30E0F90120812F7EB1
S1131630FC0120838FEF9FEFDC018D839E83AF83BA
S1131640B88727EF30E0CE0105960396FC01808130
S1131650482F440F440F440FCE0105960296FC0117
S11316608081829586958770840FF901808326EFA7
S113167030E0CE0105960296FC018081482F440F8C
S1131680440F440FCE0105960196FC01808182959A
S113169086958770840FF901808325EF30E0CE01B1
S11316A005960196FC018081482F440F440F440F96
S11316B0CE010596FC018081829586958770840F02
S11316C0F901808384EF90E09E012B5F3F4FF90185
S11316D02081220F220F220FFC0120838FEE90E045
S11316E02FEE30E0F901408129853A85F901268100
S11316F0242BFC01208384EF90E024EF30E0F901F7
S113170020812B7FFC01208384EF90E024EF30E0E4
S1131710F90120812160FC0120838FEE90E02FEEFF
S113172030E0F90120812F73FC0120838FEE90E0DB
S11317302FEE30E0F90120812068FC01208384C46D
S113174089859A85FC018385882309F469C083EF20
S113175090E029853A852E5F3F4F2D5F3F4FF90179
S11317602081422F440F440F440F29853A852E5F70
S11317703F4F2E5F3F4FF901208122952695277018
S1131780240FFC01208382EF90E029853A852E5FA7
S11317903F4F2E5F3F4FF9012081422F440F440FEA
S11317A0440F29853A852E5F3F4F2F5F3F4FF90144
S11317B02081229526952770240FFC01208381EF38
S11317C090E029853A852E5F3F4F2F5F3F4FF90107
S11317D02081422F440F440F440F29853A852E5F00
S11317E03F4FF9012081229526952770240FFC0193
S11317F0208380EF90E029853A852E5F3F4FF901E1
S11318002081220F220F220FFC0120838FEE90E013
S11318102FEE30E0F90120812061FC01208330C0EB
S113182083EF90E029853A852E5F3F4F2F5F3F4F2E
S1131830F9012081422F4295440F407E29853A8543
S11318402E5F3F4FF9012081269526952695240F7A
S1131850FC01208382EF90E029853A852E5F3F4F7B
S1131860F90120812295220F207EFC0120838FEE36
S113187090E02FEE30E0F90120812F7EFC012083DF
S11318808FEF9FEFDC018D839E83AF83B88727EFB3
S113189030E0CE0105960396FC018081482F440F69
S11318A0440F440FCE0105960296FC018081829577
S11318B086958770840FF901808326EF30E0CE018E
S11318C005960296FC018081482F440F440F440F73
S11318D0CE0105960196FC018081829586958770DC
S11318E0840FF901808325EF30E0CE01059601963F
S11318F0FC018081482F440F440F440FCE0105960C
S1131900FC018081829586958770840FF90180831C
S113191084EF90E09E012B5F3F4FF9012081220F5D
S1131920220F220FFC0120838FEE90E02FEE30E097
S1131930F901408129853A85F9012681242BFC018E
S1131940208389859A85FC01128684EF90E024EF38
S113195030E0F90120812460FC01208380EF90E0D5
S113196020EF30E0F90120812B7FFC01208384EFFC
S113197090E024EF30E0F90120812160FC01208314
S11319808FEE90E02FEE30E0F90120812F73FC01FF
S113199020838FEE90E02FEE30E0F9012081206863
S11319A0FC01208351C389859A85FC0183858823A2
S11319B009F469C083EF90E029853A852E5F3F4F93
S11319C02D5F3F4FF9012081422F440F440F440FF4
S11319D029853A852E5F3F4F2E5F3F4FF9012081C5
S11319E0229526952770240FFC01208382EF90E036
S11319F029853A852E5F3F4F2E5F3F4FF9012081A5
S1131A00422F440F440F440F29853A852E5F3F4FE0
S1131A102F5F3F4FF9012081229526952770240FCF
S1131A20FC01208381EF90E029853A852E5F3F4FAA
S1131A302F5F3F4FF9012081422F440F440F440F81
S1131A4029853A852E5F3F4FF901208122952695FD
S1131A502770240FFC01208380EF90E029853A85CC
S1131A602E5F3F4FF9012081220F220F220FFC012C
S1131A7020838FEE90E02FEE30E0F9012081206189
S1131A80FC01208330C083EF90E029853A852E5FE6
S1131A903F4F2F5F3F4FF9012081422F4295440F62
S1131AA0407E29853A852E5F3F4FF9012081269596
S1131AB026952695240FFC01208382EF90E029854A
S1131AC03A852E5F3F4FF90120812295220F207E17
S1131AD0FC0120838FEE90E02FEE30E0F9012081AD
S1131AE02F7EFC0120838FEF9FEFDC018D839E838B
S1131AF0AF83B88727EF30E0CE0105960396FC014B
S1131B008081482F440F440F440FCE01059602965E
S1131B10FC018081829586958770840FF90180830A
S1131B2026EF30E0CE0105960296FC018081482F15
S1131B30440F440F440FCE0105960196FC018081A9
S1131B40829586958770840FF901808325EF30E0B4
S1131B50CE0105960196FC018081482F440F440F65
S1131B60440FCE010596FC0180818295869587708D
S1131B70840FF901808384EF90E09E012B5F3F4F37
S1131B80F9012081220F220F220FFC0120838FEE06
S1131B9090E02FEE30E0F901408129853A85F90182
S1131BA02681242BFC01208389859A8521E0FC0170
S1131BB0228784EF90E024EF30E0F9012081246053
S1131BC0FC01208380EF90E020EF30E0F9012081D8
S1131BD02460FC0120838FEE90E02FEE30E0F901C9
S1131BE020812F7DFC01208384EF90E024EF30E0FE
S1131BF0F90120812160FC0120838FEE90E02FEE1B
S1131C0030E0F90120812F73FC0120838FEE90E0F6
S1131C102FEE30E0F90120812068FC01208314C2FA
S1131C20198213C08AEF90E029853A85F90147812A
S1131C3050852981222F30E0240F351FF90120819E
S1131C40FC01208389818F5F898389859A85FC01C2
S1131C5096818981891730F31D821E821F8218861E
S1131C6027EF30E0CE0105960396FC018081482FD2
S1131C70440F440F440FCE0105960296FC01808167
S1131C80829586958770840FF901808326EF30E072
S1131C90CE0105960296FC018081482F440F440F23
S1131CA0440FCE0105960196FC01808182958695AC
S1131CB08770840FF901808325EF30E0CE0105960B
S1131CC00196FC018081482F440F440F440FCE013C
S1131CD00596FC018081829586958770840FF901B1
S1131CE0808384EF90E09E012B5F3F4FF9012081B8
S1131CF0220F220F220FFC0120838FEE90E02FEEA3
S1131D0030E0F901408129853A85F9012681242BA7
S1131D10FC01208389859A8521E0FC01228784EFD8
S1131D2090E024EF30E0F90120812460FC0120835D
S1131D3080EF90E020EF30E0F90120812460FC0185
S1131D4020838FEE90E02FEE30E0F90120812062B5
S1131D50FC01208384EF90E024EF30E0F90120813E
S1131D602E7FFC0120838FEE90E02FEE30E0F9010E
S1131D7020812F73FC0120838FEE90E02FEE30E062
S1131D80F90120812068FC0120835EC189859A8540
S1131D90FC018385882309F469C083EF90E02985D9
S1131DA03A852E5F3F4F2D5F3F4FF9012081422F2F
S1131DB0440F440F440F29853A852E5F3F4F2E5F11
S1131DC03F4FF9012081229526952770240FFC01AD
S1131DD0208382EF90E029853A852E5F3F4F2E5F66
S1131DE03F4FF9012081422F440F440F440F2985AE
S1131DF03A852E5F3F4F2F5F3F4FF9012081229597
S1131E0026952770240FFC01208381EF90E029851B
S1131E103A852E5F3F4F2F5F3F4FF9012081422FBC
S1131E20440F440F440F29853A852E5F3F4FF90133
S1131E302081229526952770240FFC01208380EFB2
S1131E4090E029853A852E5F3F4FF9012081220FCA
S1131E50220F220FFC0120838FEE90E02FEE30E062
S1131E60F90120812061FC01208330C083EF90E0E0
S1131E7029853A852E5F3F4F2F5F3F4FF90120811F
S1131E80422F4295440F407E29853A852E5F3F4F6D
S1131E90F9012081269526952695240FFC0120839F
S1131EA082EF90E029853A852E5F3F4FF90120812A
S1131EB02295220F207EFC0120838FEE90E02FEEEE
S1131EC030E0F90120812F7EFC012083198213C0A8
S1131ED08AEF90E029853A85F90147815085298167
S1131EE0222F30E0240F351FF9012081FC012083CB
S1131EF089818F5F898389859A85FC01968189818F
S1131F00891730F38FEF9FEFDC018D839E83AF83BE
S1131F10B88727EF30E0CE0105960396FC01808157
S1131F20482F440F440F440FCE0105960296FC013E
S1131F308081829586958770840FF901808326EFCE
S1131F4030E0CE0105960296FC018081482F440FB3
S1131F50440F440FCE0105960196FC0180818295C1
S1131F6086958770840FF901808325EF30E0CE01D8
S1131F7005960196FC018081482F440F440F440FBD
S1131F80CE010596FC018081829586958770840F29
S1131F90F901808384EF90E09E012B5F3F4FF901AC
S1131FA02081220F220F220FFC0120838FEE90E06C
S1131FB02FEE30E0F901408129853A85F901268127
S1131FC0242BFC01208389859A8521E0FC0122874A
S1131FD084EF90E024EF30E0F90120812460FC01DB
S1131FE0208380EF90E020EF30E0F901208124602D
S1131FF0FC0120838FEE90E02FEE30E0F901208188
S11320002062FC01208384EF90E024EF30E0F901AA
S113201020812160FC0120838FEE90E02FEE30E0E0
S1132020F90120812F73FC0120838FEE90E02FEEC5
S113203030E0F90120812068FC01208305C08985F6
S11320409A85FC011186000007C089859A852FE1D5
S1132050FC0121878FEF01C080E02A960FB6F89427
S1132060DEBF0FBECDBFDF91CF910895CF93DF9335
S113207000D000D0CDB7DEB79C838B838B819C814D
S1132080FC0181858A838A81882331F08A818F319A
S113209019F08A818F3F11F482E011C18DEE90E036
S11320A02B813C81F90120812295207FFC01208332
S11320B00E9493028A838A81882F90E0803291055E
S11320C089F0813291051CF4892B49F0E2C08034F7
S11320D0910509F4CAC0803A910521F0DAC081E083
S11320E08983ECC08FEE90E0FC018081282F2F7053
S11320F08B819C81FC0126838B819C81FC018781DF
S113210090850E94C50280EF90E0FC018081882FB9
S113211090E0847099279595879595958795282FB4
S11321208B819C81FC0122878FEE90E0FC018081F1
S1132130882F90E080719927959587959595879537
S11321409595879595958795892B09F454C08B812E
S11321509C8121E0FC0123878B819C81029603965C
S113216023EF30E0F9012081269526952695FC0180
S113217020838B819C810296029622EF30E0F90144
S11321802081422F46954695469523EF30E0F9018C
S113219020812295220F207E240FFC0120838B8135
S11321A09C810296019621EF30E0F9012081422FB3
S11321B046954695469522EF30E0F9012081229517
S11321C0220F207E240FFC0120838B819C810296A8
S11321D020EF30E0F9012081422F4695469546953F
S11321E021EF30E0F90120812295220F207E240F77
S11321F0FC01208326C08B819C81FC0113868B818A
S11322009C810296019623EF30E0F901208122950A
S113221026952770FC0120838B819C81029622EFF6
S113222030E0F9012081422F42954695477023EF13
S113223030E0F9012081220F220F220F240FFC012C
S113224020838B819C812A81FC0121878FEE90E081
S11322502FEE30E0F90120812F73FC0120838EEEF4
S113226090E0FC011082198229C08B819C812A8113
S1132270FC0121878FEE90E02FEE30E0F901208100
S11322802F73FC0120838EEE90E0FC0110821982F2
S113229015C08B819C812A81FC0121878FEE90E0FF
S11322A02FEE30E0F90120812F73FC0120838EEEA4
S11322B090E0FC01108282E08983000089810F9004
S11322C00F900F900F90DF91CF910895AF92BF922E
S11322D0CF92DF92EF92FF920F93CF93DF93CDB71C
S11322E0DEB781E00E948305A12CB12CC12CD12C36
S11322F0E12CF12C01E020E030E044E650E060E025
S113230071E088ED98E20E94AE1CA12CB12CC12C86
S1132310D12CE12CF12C02E020E030E044E650E046
S113232067E071E086EF98E20E94AE1C0E949D1E59
S113233080E090E0DF91CF910F91FF90EF90DF90DC
S1132340CF90BF90AF900895CF93DF9300D0CDB7D7
S1132350DEB79A83898389819A819C012D5F3F4FDF
S113236089819A81FC013283218389819A812FEFAB
S11323703FEFFC013483238389819A819C012D5F83
S11323803F4F89819A81FC013683258389819A8113
S11323909C012D5F3F4F89819A81FC0130872783FF
S11323A089819A81FC0110820F900F90DF91CF9167
S11323B00895CF93DF9300D0CDB7DEB79A83898396
S11323C089819A81FC01118610860F900F90DF910C
S11323D0CF910895CF93DF9300D000D000D0CDB734
S11323E0DEB79C838B837E836D838B819C81FC0110
S11323F0818192819A8389838D819E8129813A8109
S1132400FC013383228389819A81FC0124813581F3
S11324108D819E81FC013583248389819A81FC010D
S1132420848195812D813E81FC01338322838981BE
S11324309A812D813E81FC01358324838D819E8187
S11324402B813C81FC01318720878B819C81FC019D
S1132450808121E0280F8B819C81FC0120832696BA
S11324600FB6F894DEBF0FBECDBFDF91CF910895B4
S1132470CF93DF93CDB7DEB728970FB6F894DEBFBE
S11324800FBECDBF9E838D8378876F838F819885A0
S1132490FC01808191819C838B838B819C8101963B
S11324A041F48D819E81FC01878190859A83898383
S11324B01AC08D819E8103969A83898307C089817E
S11324C09A81FC01828193819A83898389819A818B
S11324D0FC0182819381FC01208131818B819C816B
S11324E08217930760F789819A81FC0122813381E5
S11324F08F819885FC01338322838F819885FC0129
S1132500828193812F813885FC01358324838F81D7
S1132510988529813A81FC013583248389819A81B4
S11325202F813885FC01338322838F8198852D8107
S11325303E81FC01318720878D819E81FC01808151
S113254021E0280F8D819E81FC01208328960FB6FF
S1132550F894DEBF0FBECDBFDF91CF910895CF9326
S1132560DF9300D000D0CDB7DEB79C838B838B8103
S11325709C81FC01808591859A8389838B819C81D0
S1132580FC01828193812B813C81F9012481358175
S1132590FC01358324838B819C81FC01848195819A
S11325A02B813C81F90122813381FC013383228315
S11325B089819A81FC01218132818B819C81281738
S11325C0390751F48B819C81FC01248135818981F7
S11325D09A81FC01328321838B819C81FC011186C9
S11325E0108689819A81FC0180812FEF280F8981CF
S11325F09A81FC01208389819A81FC0180810F905A
S11326000F900F900F90DF91CF910895CF93DF93A8
S1132610CDB7DEB728970FB6F894DEBF0FBECDBF97
S11326209C838B837E836D8358874F838B819C81AE
S113263021E1FC0120838B819C8101979C838B8306
S11326408B819C8122E2FC0120838B819C810197F8
S11326509C838B838B819C8123E3FC0120838B816E
S11326609C8101979C838B838D819E819A8389832E
S113267029818B819C81FC0120838B819C81019722
S11326809C838B8389819A81892F99279A83898353
S113269029818B819C81FC0120838B819C81019702
S11326A09C838B838B819C81FC0110828B819C8118
S11326B001979C838B838B819C8120E8FC01208380
S11326C08B819C8101979C838B838B819C81FC01F2
S11326D010828B819C8101979C838B838B819C814D
S11326E022E0FC0120838B819C8101979C838B8356
S11326F08B819C8123E0FC0120838B819C81019749
S11327009C838B838B819C8124E0FC0120838B81BF
S11327109C8101979C838B838B819C8125E0FC01A8
S113272020838B819C8101979C838B838B819C81EB
S113273026E0FC0120838B819C8101979C838B8301
S11327408B819C8127E0FC0120838B819C810197F4
S11327509C838B838B819C8128E0FC0120838B816B
S11327609C8101979C838B838B819C8129E0FC0154
S113277020838B819C8101979C838B838B819C819B
S113278020E1FC0120838B819C8101979C838B83B6
S11327908B819C8121E1FC0120838B819C810197A9
S11327A09C838B838B819C8122E1FC0120838B8120
S11327B09C8101979C838B838B819C8123E1FC0109
S11327C020838B819C8101979C838B838B819C814B
S11327D024E1FC0120838B819C8101979C838B8362
S11327E08B819C8125E1FC0120838B819C81019755
S11327F09C838B838B819C8126E1FC0120838B81CC
S11328009C8101979C838B838B819C8127E1FC01B4
S113281020838B819C8101979C838B838B819C81FA
S113282028E1FC0120838B819C8101979C838B830D
S11328308B819C8129E1FC0120838B819C81019700
S11328409C838B838B819C8120E2FC0120838B8180
S11328509C8101979C838B838B819C8121E2FC0169
S113286020838B819C8101979C838B838B819C81AA
S113287022E2FC0120838B819C8101979C838B83C2
S11328808B819C8123E2FC0120838B819C810197B5
S11328909C838B838F8198859A83898329818B81FB
S11328A09C81FC0120838B819C8101979C838B8379
S11328B089819A81892F99279A83898329818B8198
S11328C09C81FC0120838B819C8101979C838B8359
S11328D08B819C8126E2FC0120838B819C81019762
S11328E09C838B838B819C8127E2FC0120838B81D9
S11328F09C8101979C838B838B819C8128E2FC01C2
S113290020838B819C8101979C838B838B819C8109
S113291029E2FC0120838B819C8101979C838B831A
S11329208B819C8120E3FC0120838B819C81019716
S11329309C838B838B819C8121E3FC0120838B818D
S11329409C8101979C838B838B819C8128960FB6F5
S1132950F894DEBF0FBECDBFDF91CF910895CF9322
S1132960DF93CDB7DEB70E94A115A091FE04B0910C
S1132970FF04CD91CDBFDD91DEBFFF91EF91DF91DB
S1132980CF91BF91AF919F918F917F916F915F9103
S11329904F913F912F911F910F91FF90EF90DF90F6
S11329A0CF90BF90AF909F908F907F906F905F90EB
S11329B04F903F902F901F900F900FBE0F9008954F
S11329C081E0DF91CF910895CF93DF93CDB7DEB748
S11329D0DF91CF9108950F920FB6F8940F921F9242
S11329E011242F923F924F925F926F927F928F9217
S11329F09F92AF92BF92CF92DF92EF92FF920F938A
S1132A001F932F933F934F935F936F937F938F9372
S1132A109F93AF93BF93CF93DF93EF93FF93A091D3
S1132A20FE04B091FF040DB60D920EB60D920E94F5
S1132A30A220A091FE04B091FF04CD91CDBFDD9101
S1132A40DEBFFF91EF91DF91CF91BF91AF919F9145
S1132A508F917F916F915F914F913F912F911F9132
S1132A600F91FF90EF90DF90CF90BF90AF909F9029
S1132A708F907F906F905F904F903F902F901F901A
S1132A800F900FBE0F9008950F920FB6F8940F9207
S1132A901F9211242F923F924F925F926F927F92D6
S1132AA08F929F92AF92BF92CF92DF92EF92FF925A
S1132AB00F931F932F933F934F935F936F937F9342
S1132AC08F939F93AF93BF93CF93DF93EF93FF9332
S1132AD0A091FE04B091FF040DB60D920EB60D92B6
S1132AE00E94B41F882311F00E94A220A091FE042A
S1132AF0B091FF04CD91CDBFDD91DEBFFF91EF9189
S1132B00DF91CF91BF91AF919F918F917F916F9101
S1132B105F914F913F912F911F910F91FF90EF90F3
S1132B20DF90CF90BF90AF909F908F907F906F90E9
S1132B305F904F903F902F901F900F900FBE0F907B
S1132B400895CF93DF9300D000D000D0CDB7DEB787
S1132B5080E89EE3A0E0B0E089839A83AB83BC83E2
S1132B6089819A81AB81BC81689415F8B695A79543
S1132B70979587951694D1F789839A83AB83BC8301
S1132B8089819A81AB81BC810197A109B1098983AB
S1132B909A83AB83BC8389818D8389819A81AB813C
S1132BA0BC81892F9A2FAB2FBB2789839A83AB8350
S1132BB0BC8389818E8389E890E02E81FC01208387
S1132BC088E890E02D81FC0120838BE08D8381E8EF
S1132BD090E02D81FC0120838FE690E0FC01808150
S1132BE08D838D8182608D838FE690E02D81FC0141
S1132BF0208384E890E0FC011182108226960FB6AF
S1132C00F894DEBF0FBECDBFDF91CF9108950E942F
S1132C1044151895CF93DF9300D000D0CDB7DEB71D
S1132C209C838B831A8219820E94E51E8091FC0486
S1132C309091FD04892B31F483E191E09093FD049C
S1132C408093FC042091FA043091FB048B819C81D5
S1132C50820F931F873E934038F52091FA043091F8
S1132C60FB048B819C81280F391F8091FA04909179
S1132C70FB0482179307C0F42091FC043091FD04F7
S1132C808091FA049091FB04820F931F9A838983A5
S1132C902091FA043091FB048B819C81820F931F55
S1132CA09093FB048093FA040E94F11E89819A8117
S1132CB00F900F900F900F90DF91CF910895CF93C5
S1132CC0DF9300D0CDB7DEB79A8389830F900F903E
S1132CD0DF91CF910895CF93DF93CDB7DEB71092F4
S1132CE0FB041092FA04DF91CF910895CF93DF9300
S1132CF0CDB7DEB78091FA049091FB0427EE33E060
S1132D00A901481B590BCA01DF91CF910895CF93B4
S1132D10DF9300D000D01F92CDB7DEB79C838B83A6
S1132D206D838B819C819A8389830FB6F8940F926B
S1132D3089819A81FC018081918129813A81F901FB
S1132D40238D422F50E029813A81F901248D222FCD
S1132D5030E0429FB001439F700D529F700D1124CB
S1132D609B01280F391F89819A81FC0133832283B7
S1132D7089819A81FC01128E89819A81FC012081CA
S1132D80318189819A81FC013583248389819A81E7
S1132D90FC018081918129813A81F901238D222FBF
S1132DA030E0A9014150510929813A81F901248D6A
S1132DB0222F30E0429FB001439F700D529F700D4F
S1132DC011249B01280F391F89819A81FC013783C3
S1132DD0268389819A812FEFFC01258F89819A812D
S1132DE02FEFFC01268F8D81882381F489819A81BC
S1132DF0FC0180858823A1F089819A8108960E942C
S1132E008A21813069F40E94EB140AC089819A8175
S1132E1008960E94A41189819A8141960E94A41166
S1132E200F900FBE81E00F900F900F900F900F90B6
S1132E30DF91CF910895CF93DF93CDB7DEB7299774
S1132E400FB6F894DEBF0FBECDBF8F836887498766
S1132E501C821B828885882319F41A82198211C066
S1132E608F81282F30E08885882F90E0289FA0014B
S1132E70299F500D389F500D1124CA0101969A8341
S1132E80898389819A814F960E940A169E838D8335
S1132E908D819E81892B41F18885882341F48D8120
S1132EA09E812D813E81FC01318320830AC08D8166
S1132EB09E819C01215E3F4F8D819E81FC01318367
S1132EC020838D819E812F81FC01238F8D819E81A2
S1132ED02885FC01248F8D819E8161E00E948716E4
S1132EE08D819E819C838B838B819C8129960FB6D7
S1132EF0F894DEBF0FBECDBFDF91CF910895CF937D
S1132F00DF93CDB7DEB72E970FB6F894DEBF0FBEB2
S1132F10CDBF998788877B876A875D874C872E8793
S1132F201982888599859B838A830FB6F8940F92BA
S1132F308A819B81FC01228D8A819B81FC01838D86
S1132F40281718F08E85823011F52A853B858A81F1
S1132F509B814E85B9010E94C41A8C838A819B810E
S1132F60FC018189882351F08A819B8141960E94CA
S1132F708A21813041F40E94EB1405C08C8188239E
S1132F8011F00E94EB140F900FBE81E061C08C859C
S1132F909D85892B21F40F900FBE80E059C0898153
S1132FA0882331F4CE0105960E94622281E0898350
S1132FB00F900FBE0E94E51E0FB6F8940F928A81FF
S1132FC09B81FC01858D8F3F21F48A819B81FC01CB
S1132FD0158E8A819B81FC01868D8F3F21F48A8125
S1132FE09B81FC01168E0F900FBE9E01245F3F4F04
S1132FF0CE010596B9010E947D22882301F58A81BC
S11330009B810E946F1C882399F02C853D858A81C1
S11330109B810896B9010E9411218A819B810E949B
S1133020D41B0E94F11E882391F40E94EB140FC05C
S11330308A819B810E94D41B0E94F11E76CF8A81D3
S11330409B810E94D41B0E94F11E80E001C06DCFC1
S11330502E960FB6F894DEBF0FBECDBFDF91CF9191
S11330600895CF93DF93CDB7DEB72B970FB6F894BF
S1133070DEBF0FBECDBF9E838D8378876F835A8753
S113308049872B878D819E819B838A831C828A81B9
S11330909B81FC01228D8A819B81FC01838D2817F1
S11330A018F08B85823091F52F8138858A819B8138
S11330B04B85B9010E94C41A8A819B81FC01868DCB
S11330C08F3FB9F48A819B81FC0181898823D9F0DF
S11330D08A819B8141960E948A218823A1F0898557
S11330E09A85892B81F089859A8521E0FC012083CA
S11330F00AC08A819B81FC01868D8F5F282F8A817B
S11331009B81FC01268F81E0898301C0198289811A
S11331102B960FB6F894DEBF0FBECDBFDF91CF91D3
S11331200895CF93DF93CDB7DEB728970FB6F89401
S1133130DEBF0FBECDBF9E838D8378876F838D8165
S11331409E819B838A831C828A819B81FC01228DC0
S11331508A819B81FC01838D2817A0F58A819B813C
S1133160FC01828D21E0280F8A819B81FC01228F42
S11331708A819B81FC01868D8F3FB9F48A819B8172
S1133180FC0181898823D9F08A819B8141960E9420
S11331908A218823A1F08F819885892B81F08F81E2
S11331A0988521E0FC0120830AC08A819B81FC016F
S11331B0868D8F5F282F8A819B81FC01268F81E079
S11331C0898301C01982898128960FB6F894DEBFDD
S11331D00FBECDBFDF91CF910895CF93DF93CDB7CD
S11331E0DEB72F970FB6F894DEBF0FBECDBF9A8718
S11331F089877C876B875E874D872F8719828985AE
S11332009A859B838A830FB6F8940F928A819B8157
S1133210FC01828D882309F445C08A819B81FC01CD
S1133220868197819D838C832B853C858A819B81B4
S1133230B9010E94841B8F858823D1F48A819B81E4
S1133240FC01828D2FEF280F8A819B81FC01228F44
S11332508A819B81FC018085882301F18A819B817D
S113326008960E948A218130C9F40E94EB1416C08A
S11332708A819B812C813D81FC01378326838A814D
S11332809B81FC018189882349F08A819B81419635
S11332900E948A21882311F00E94EB140F900FBE24
S11332A081E061C08D859E85892B21F40F900FBE2E
S11332B080E059C08981882331F4CE0106960E94AA
S11332C0622281E089830F900FBE0E94E51E0FB633
S11332D0F8940F928A819B81FC01858D8F3F21F4A4
S11332E08A819B81FC01158E8A819B81FC01868DDC
S11332F08F3F21F48A819B81FC01168E0F900FBEB3
S11333009E01235F3F4FCE010696B9010E947D22A4
S1133310882301F58A819B810E94381C882399F0B7
S11333202D853E858A819B814196B9010E94112198
S11333308A819B810E94D41B0E94F11E882391F4F0
S11333400E94EB140FC08A819B810E94D41B0E94AF
S1133350F11E59CF8A819B810E94D41B0E94F11EC9
S113336080E001C050CF2F960FB6F894DEBF0FBE99
S1133370CDBFDF91CF910895CF93DF93CDB7DEB763
S11333802A970FB6F894DEBF0FBECDBF9E838D8300
S113339078876F835A8749878D819E819B838A832F
S11333A01C828A819B81FC01828D8823D9F12F8123
S11333B038858A819B81B9010E94841B8A819B8103
S11333C0FC01828D2FEF280F8A819B81FC01228FC3
S11333D08A819B81FC01858D8F3FB9F48A819B8111
S11333E0FC0180858823D9F08A819B8108960E94FC
S11333F08A218823A1F089859A85892B81F0898582
S11334009A8521E0FC0120830AC08A819B81FC010A
S1133410858D8F5F282F8A819B81FC01258F81E018
S1133420898301C0198289812A960FB6F894DEBF78
S11334300FBECDBFDF91CF910895CF93DF93CDB76A
S1133440DEB72A970FB6F894DEBF0FBECDBF9887BC
S11334508F837A8769878F8198859B838A831C826F
S11334608A819B81FC01828D8823C1F08A819B81A2
S1133470FC01868197819E838D8329853A858A8183
S11334809B81B9010E94841B8A819B812D813E818D
S1133490FC013783268381E0898301C019828981F5
S11334A02A960FB6F894DEBF0FBECDBFDF91CF9141
S11334B00895CF93DF9300D01F92CDB7DEB79B83DF
S11334C08A830FB6F8940F928A819B81FC01828DC6
S11334D089830F900FBE89810F900F900F90DF9119
S11334E0CF910895CF93DF9300D000D01F92CDB732
S11334F0DEB79D838C838C819D819A8389830FB6EB
S1133500F8940F9289819A81FC01238D89819A8193
S1133510FC01828DF22FF81B8F2F8B830F900FBE2F
S11335208B810F900F900F900F900F90DF91CF91A0
S11335300895CF93DF9300D01F92CDB7DEB79B835E
S11335408A838A819B81FC01828D898389810F9082
S11335500F900F90DF91CF910895CF93DF9300D018
S113356000D0CDB7DEB79C838B838B819C819A83FB
S1133570898389819A810E945F160F900F900F9022
S11335800F90DF91CF910895CF93DF9300D000D0B7
S113359000D0CDB7DEB79B838A837D836C834E8353
S11335A019828A819B81FC01848D882309F498C047
S11335B08E818823D9F58A819B81FC01848D482FD3
S11335C050E08A819B81FC01848195812C813D811D
S11335D0B9010E942D298A819B81FC0124813581B6
S11335E08A819B81FC01848D882F90E0280F391FEC
S11335F08A819B81FC01358324838A819B81FC0120
S1133600248135818A819B81FC01828193812817E1
S1133610390708F465C08A819B81FC0120813181CE
S11336208A819B81FC01358324835AC08A819B81D2
S1133630FC01848D482F50E08A819B81FC018681A6
S113364097812C813D81B9010E942D298A819B811A
S1133650FC01268137818A819B81FC01848D882F1E
S113366090E0919581959109280F391F8A819B815A
S1133670FC01378326838A819B81FC012681378163
S11336808A819B81FC018081918128173907A8F4E4
S11336908A819B81FC01228133818A819B81FC0187
S11336A0848D882F90E0919581959109280F391F79
S11336B08A819B81FC01378326838E81823081F449
S11336C08A819B81FC01828D882351F08A819B81B0
S11336D0FC01828D2FEF280F8A819B81FC01228FB0
S11336E08A819B81FC01828D21E0280F8A819B8144
S11336F0FC01228F898126960FB6F894DEBF0FBE97
S1133700CDBFDF91CF910895CF93DF9300D000D048
S1133710CDB7DEB79A8389837C836B8389819A8151
S1133720FC01848D8823C9F189819A81FC01268159
S1133730378189819A81FC01848D882F90E0280F3C
S1133740391F89819A81FC013783268389819A8173
S1133750FC012681378189819A81FC0182819381D0
S11337602817390750F089819A81FC012081318121
S113377089819A81FC013783268389819A81FC019E
S1133780848D482F50E089819A81FC0126813781FC
S11337908B819C81B9010E942D290F900F900F906D
S11337A00F90DF91CF910895CF93DF9300D0CDB7E1
S11337B0DEB79A8389830FB6F8940F921BC0898170
S11337C09A81FC018189882351F089819A814196EB
S11337D00E948A21882321F00E94E52201C010C0A2
S11337E089819A81FC01868D8150282F89819A8153
S11337F0FC01268F89819A81FC01868D1816FCF2C2
S113380089819A812FEFFC01268F0F900FBE0FB68E
S1133810F8940F921BC089819A81FC0180858823CA
S1133820A1F089819A8108960E948A21882311F047
S11338300E94E52289819A81FC01858D8150282F7F
S113384089819A81FC01258F01C006C089819A81F2
S1133850FC01858D1816FCF289819A812FEFFC01F9
S1133860258F0F900FBE0F900F90DF91CF91089589
S1133870CF93DF9300D01F92CDB7DEB79B838A83AB
S11338800FB6F8940F928A819B81FC01828D882364
S113389019F481E0898301C019820F900FBE8981D8
S11338A00F900F900F90DF91CF910895CF93DF93F6
S11338B000D01F92CDB7DEB79B838A838A819B8118
S11338C0FC01828D882319F481E0898301C0198267
S11338D089810F900F900F90DF91CF910895CF932E
S11338E0DF9300D01F92CDB7DEB79B838A830FB6D8
S11338F0F8940F928A819B81FC01228D8A819B819D
S1133900FC01838D281719F481E0898301C0198291
S11339100F900FBE89810F900F900F90DF91CF9180
S11339200895CF93DF9300D01F92CDB7DEB79B836A
S11339308A838A819B81FC01228D8A819B81FC017F
S1133940838D281719F481E0898301C01982898144
S11339500F900F900F90DF91CF910895AF92BF9287
S1133960CF92DF92EF92FF920F931F93CF93DF9347
S1133970CDB7DEB764970FB6F894DEBF0FBECDBFE8
S11339809F838E83798768875B874A873D872C87E7
S11339900E87F88AEF86DA8AC98ABC8AAB8A2989B3
S11339A03A898A859B85B9010E944A249B838A832C
S11339B08A819B81892B09F491C08A819B81FC01B6
S11339C02789308D8A859B850197820F931F9D835C
S11339D08C834A855B852B893C89688579858A81B6
S11339E09B818A014E850E94FF224C855D852E8134
S11339F03F818C819D81B9010E9406139C018A81BB
S1133A009B81FC01318320838F859889892B39F030
S1133A108F8598892A813B81FC01318320830FB6ED
S1133A20F8940F9280914D058F5F80934D0580919E
S1133A30FE049091FF04892B69F48A819B81909301
S1133A40FF048093FE0480914D058130B1F40E94FF
S1133A50832313C080915105882379F48091FE0457
S1133A609091FF04FC0196898E85891730F08A8134
S1133A709B819093FF048093FE04809155058F5F92
S1133A80809355058A819B81FC019689809150051C
S1133A90891730F48A819B81FC01868980935005C3
S1133AA08A819B81AC014E5F5F4F8A819B81FC01BF
S1133AB08689282F30E0C901880F991F880F991F24
S1133AC0880F991F820F931F80509B4FBA010E9449
S1133AD0EA1181E089830F900FBE02C08FEF8983C2
S1133AE08981813079F480915105882359F080913E
S1133AF0FE049091FF04FC0196898E85981710F4BA
S1133B000E94EB14898164960FB6F894DEBF0FBE51
S1133B10CDBFDF91CF911F910F91FF90EF90DF9078
S1133B20CF90BF90AF900895CF93DF9300D000D093
S1133B30CDB7DEB79C838B830FB6F8940F928B813D
S1133B409C81892B29F48091FE049091FF0402C08A
S1133B508B819C819A83898389819A8102960E94B0
S1133B60AF1289819A81FC0184899589892B29F076
S1133B7089819A810C960E94AF1289819A8102965A
S1133B80BC0183E495E00E94EA1180914C058F5FAB
S1133B9080934C05809155058F5F809355050F9058
S1133BA00FBE80915105882399F08091FE04909175
S1133BB0FF0429813A812817390719F40E94EB146C
S1133BC007C00FB6F8940F920E94A4240F900FBE62
S1133BD00F900F900F900F90DF91CF910895CF9396
S1133BE0DF93CDB7DEB72A970FB6F894DEBF0FBECA
S1133BF0CDBF98878F837A87698719820E94E51ED3
S1133C0080914E0590914F059B838A838F8198857F
S1133C10FC012081318189859A85820F931F9D83C0
S1133C208C838F819885FC01208131818A819B81DD
S1133C3082179307A0F48F819885FC01208131813C
S1133C408C819D8182179307E8F42C813D818A81C0
S1133C509B8182179307B0F481E0898313C08F811D
S1133C609885FC01208131818C819D818217930785
S1133C7038F02C813D818A819B818217930710F44F
S1133C8081E089838F8198852C813D81FC0131837A
S1133C9020838981882359F08091FE049091FF0448
S1133CA002960E94AF128C819D810E9400240E9482
S1133CB0F11E8E838E81882311F40E94EB142A96C0
S1133CC00FB6F894DEBF0FBECDBFDF91CF9108953C
S1133CD0CF93DF9300D000D01F92CDB7DEB79D8382
S1133CE08C8319828C819D81892BD1F00E94E51EE1
S1133CF020914E0530914F058C819D81820F931F39
S1133D009B838A838091FE049091FF0402960E9413
S1133D10AF128A819B810E9400240E94F11E898334
S1133D208981882311F40E94EB140F900F900F9057
S1133D300F900F90DF91CF910895AF92BF92CF92E1
S1133D40DF92EF92FF920F93CF93DF931F92CDB741
S1133D50DEB7A12CB12CC12CD12CE12CF12C00E02C
S1133D6020E030E044E650E06DE071E08FEE92E256
S1133D700E94AE1C89838981813081F4F8948FEF8D
S1133D809FEF909357058093560581E080935105EA
S1133D9010924F0510924E050E94AF140F90DF91C0
S1133DA0CF910F91FF90EF90DF90CF90BF90AF90A5
S1133DB00895CF93DF93CDB7DEB7F89410925105F1
S1133DC00E94E414DF91CF910895CF93DF93CDB790
S1133DD0DEB7809158058F5F80935805DF91CF91AE
S1133DE00895CF93DF9300D01F92CDB7DEB7198229
S1133DF00FB6F8940F92809158058150809358051E
S1133E0080915805882309F071C080914D0588235D
S1133E1009F46CC049C080913F0590914005FC01B4
S1133E20868197819B838A838A819B810C960E94D9
S1133E30AF128A819B8102960E94AF128A819B8174
S1133E40FC01968980915005891730F48A819B8101
S1133E50FC018689809350058A819B81AC014E5F69
S1133E605F4F8A819B81FC018689282F30E0C9013C
S1133E70880F991F880F991F880F991F820F931F0E
S1133E8080509B4FBA010E94EA118A819B81FC01F8
S1133E9026898091FE049091FF04FC0186892817ED
S1133EA018F081E08093530580913A05882309F046
S1133EB0B2CF80915205882389F00CC00E94B41FB0
S1133EC0882319F081E08093530580915205815035
S1133ED08093520580915205882381F78091530580
S1133EE0813021F481E089830E94EB140F900FBE8E
S1133EF089810F900F900F90DF91CF910895CF9308
S1133F00DF9300D0CDB7DEB70FB6F8940F9280914F
S1133F104E0590914F059A8389830F900FBE898136
S1133F209A810F900F90DF91CF910895CF93DF93F3
S1133F3000D01F92CDB7DEB7198280914E059091C3
S1133F404F059B838A838A819B810F900F900F90EA
S1133F50DF91CF910895CF93DF93CDB7DEB78091F2
S1133F604D05DF91CF910895CF93DF93CDB7DEB7A1
S1133F7029970FB6F894DEBF0FBECDBF198280918A
S1133F805805882309F0C9C080914E0590914F05CA
S1133F90019690934F0580934E0580914E05909124
S1133FA04F059B838A838A819B81892BD9F48091D5
S1133FB03605909137059D838C83809138059091C7
S1133FC0390590933705809336058C819D819093B4
S1133FD0390580933805809154058F5F809354058B
S1133FE00E94A42480915605909157052A813B8113
S1133FF02817390708F477C0809136059091370562
S1134000FC018081882339F48FEF9FEF909357054B
S11340108093560568C08091360590913705FC0160
S113402085819681FC01868197819F838E838E8111
S11340309F81FC0182819381998788872A813B81B2
S1134040888599852817390738F488859985909348
S113405057058093560547C08E819F8102960E9422
S1134060AF128E819F81FC0184899589892B29F067
S11340708E819F810C960E94AF128E819F81FC01DC
S1134080968980915005891730F48E819F81FC01B7
S11340908689809350058E819F81AC014E5F5F4F6E
S11340A08E819F81FC018689282F30E0C901880F09
S11340B0991F880F991F880F991F820F931F805093
S11340C09B4FBA010E94EA118E819F81FC012689CF
S11340D08091FE049091FF04FC018689281710F05A
S11340E081E0898389CF8091FE049091FF04FC01D3
S11340F08689282F30E0C901880F991F880F991FDE
S1134100880F991F820F931F80509B4FFC01808161
S1134110823040F081E0898305C0809152058F5F31
S11341208093520580915305882311F081E089839F
S1134130898129960FB6F894DEBF0FBECDBFDF91FB
S1134140CF910895CF93DF9300D0CDB7DEB78091A0
S11341505805882321F081E0809353055DC01092B7
S1134160530505C08091500581508093500580917E
S11341705005282F30E0C901880F991F880F991F17
S1134180880F991F820F931F80509B4FFC018081E1
S1134190882341F380915005282F30E0C901880F0E
S11341A0991F880F991F880F991F820F931F8050A2
S11341B09B4F9A83898389819A81FC0181819281B1
S11341C0FC012281338189819A81FC01328321831C
S11341D089819A81FC012181328189819A810396A6
S11341E02817390769F489819A81FC0181819281B8
S11341F0FC012281338189819A81FC0132832183EC
S113420089819A81FC0181819281FC018681978157
S11342109093FF048093FE040F900F90DF91CF9151
S11342200895CF93DF9300D000D000D0CDB7DEB790
S11342309C838B837E836D838091FE049091FF0425
S11342409C01245F3F4F8B819C81B9010E943812ED
S11342508091FE049091FF0402960E94AF12209177
S11342604E0530914F058D819E81820F931F9A8355
S1134270898389819A810E94002426960FB6F89436
S1134280DEBF0FBECDBFDF91CF910895CF93DF93F3
S1134290CDB7DEB728970FB6F894DEBF0FBECDBFFB
S11342A09C838B837E836D8358874F838091FE0428
S11342B09091FF042D813E813068FC01358724876D
S11342C08091FE049091FF049C01245F3F4F8B81F9
S11342D09C81B9010E94EA118091FE049091FF042F
S11342E002960E94AF1220914E0530914F058F81A6
S11342F09885820F931F9A83898389819A810E946A
S1134300002428960FB6F894DEBF0FBECDBFDF9110
S1134310CF910895CF93DF9300D000D01F92CDB7F3
S1134320DEB79D838C838C819D81FC018581968180
S1134330FC01868197819B838A838A819B810C9669
S11343400E94AF1280915805882369F58A819B8168
S113435002960E94AF128A819B81FC01968980910A
S11343605005891730F48A819B81FC0186898093EA
S113437050058A819B81AC014E5F5F4F8A819B818E
S1134380FC018689282F30E0C901880F991F880F06
S1134390991F880F991F820F931F80509B4FBA015A
S11343A00E94EA1108C08A819B810C96BC018AE3B1
S11343B095E00E94EA118A819B81FC012689809103
S11343C0FE049091FF04FC018689821730F481E099
S11343D0898381E08093530501C0198289810F90FC
S11343E00F900F900F900F90DF91CF910895CF937E
S11343F0DF93CDB7DEB727970FB6F894DEBF0FBEB5
S1134400CDBF9D838C837F836E838E819F819C012E
S113441030688C819D81FC01318320838C819D8156
S1134420FC01868197819B838A838C819D810E9474
S1134430AF128A819B8102960E94AF128A819B816E
S1134440FC01968980915005891730F48A819B81FB
S1134450FC018689809350058A819B81AC014E5F63
S11344605F4F8A819B81FC018689282F30E0C90136
S1134470880F991F880F991F880F991F820F931F08
S113448080509B4FBA010E94EA118A819B81FC01F2
S113449026898091FE049091FF04FC01868982178D
S11344A030F481E0898381E08093530501C019824F
S11344B0898127960FB6F894DEBF0FBECDBFDF917A
S11344C0CF910895CF93DF9300D0CDB7DEB79A8311
S11344D089832091540589819A81FC01208320914C
S11344E04E0530914F0589819A81FC0132832183E5
S11344F00F900F90DF91CF910895CF93DF93CDB7B5
S1134500DEB727970FB6F894DEBF0FBECDBF9D83ED
S11345108C837F836E830FB6F8940F9280914E053F
S113452090914F059B838A838C819D81FC019081AE
S113453080915405981769F08C819D81FC0121813B
S113454032818A819B818217930718F081E08983E5
S113455030C08C819D81FC01818192812A813B81C3
S1134560281B390B8E819F81FC0180819181281742
S11345703907E8F48E819F81FC01208131818C818F
S11345809D81FC01418152818A819B81BA01681B12
S1134590790BCB01280F391F8E819F81FC01318358
S11345A020838C819D810E946222198202C081E055
S11345B089830F900FBE898127960FB6F894DEBFCA
S11345C00FBECDBFDF91CF910895CF93DF93CDB7C9
S11345D0DEB781E080935305DF91CF910895CF93A7
S11345E0DF9300D0CDB7DEB79A8389830E94C023BE
S11345F080910005823010F00E94EB14F7CF0F93E6
S11346001F93CF93DF93CDB7DEB72A970FB6F894F5
S1134610DEBF0FBECDBF9B838A837D836C834E83B5
S113462038872F831A870987198222C08981882FA6
S113463090E02981222F30E04C815D81240F351FC9
S1134640F90140812A813B81820F931F4996FC0125
S113465040838981882F90E02C813D81820F931FB4
S1134660FC018081882309F406C089818F5F8983D6
S113467089818830D8F28A819B81FC0110A28E81C5
S1134680843010F083E08E838A819B812E81FC012B
S1134690268B8A819B8102960E94D9118A819B81F3
S11346A00C960E94D9118A819B812A813B81FC014D
S11346B0318720878E81882F90E024E030E0281B0A
S11346C0390B8A819B81FC01358724878A819B81F0
S11346D02A813B81FC01338B228B8A819B81FC01E3
S11346E011A212A213A214A28A819B81FC0115A219
S11346F02A960FB6F894DEBF0FBECDBFDF91CF91DF
S11347001F910F910895CF93DF931F92CDB7DEB71A
S1134710198213C08981282F30E0C901880F991F9D
S1134720880F991F880F991F820F931F80509B4FEA
S11347300E94A41189818F5F89838981843050F319
S113474084E295E00E94A4118DE295E00E94A411F8
S11347508AE395E00E94A41183E495E00E94A411E9
S113476084E295E090933705809336058DE295E0D9
S113477090933905809338050F90DF91CF91089578
S1134780CF93DF9300D01F92CDB7DEB72FC00E9426
S1134790E51E9091430581E0992309F080E0898327
S11347A00E94F11E8981882309F50FB6F8940F92AF
S11347B08091480590914905FC01868197819B83EE
S11347C08A838A819B8102960E94AF1280914D0553
S11347D0815080934D0580914C05815080934C0508
S11347E00F900FBE8A819B810E948D2480914C057D
S11347F0882369F60F900F900F90DF91CF91089561
S1134800CF93DF9300D0CDB7DEB79A8389838091AD
S1134810FE049091FF0429813A81FC0133832283B1
S113482080914E0590914F0529813A8128173907C7
S113483078F48091FE049091FF049C012E5F3F4F19
S11348408091380590913905B9010E9438121DC034
S11348508091FE049091FF049C012E5F3F4F809154
S1134860360590913705B9010E943812809156059A
S11348709091570529813A812817390730F48981A5
S11348809A8190935705809356050F900F90DF916E
S1134890CF910895CF93DF93CDB7DEB728970FB6A6
S11348A0F894DEBF0FBECDBF9E838D8378876F8360
S11348B08F819885892B29F48D819E810E940A1607
S11348C002C08F8198859C838B838B819C81892BEB
S11348D0B9F086E290E00E940A169A83898389815E
S11348E09A81892B41F089819A812B813C81FC0139
S11348F0308F278B07C08B819C810E945F1602C07A
S11349001A82198289819A8128960FB6F894DEBF9B
S11349100FBECDBFDF91CF910895CF93DF9300D029
S1134920CDB7DEB79A83898389819A81FC0187890F
S1134930908D0E945F1689819A810E945F160F9064
S11349400F90DF91CF910895CF93DF9300D0CDB72F
S1134950DEB78091360590913705FC01808188236C
S113496039F48FEF9FEF909357058093560515C048
S11349708091360590913705FC0185819681FC0173
S1134980868197819A83898389819A81FC018281B6
S1134990938190935705809356050F900F90DF9164
S11349A0CF910895CF93DF9300D0CDB7DEB7809138
S11349B0FE049091FF04FC01848595859A83898384
S11349C08091FE049091FF042091FE043091FF0435
S11349D0F9012689222F30E044E050E0BA01621B3D
S11349E0730B9B01FC013587248789819A810F9081
S11349F00F90DF91CF910895CF93DF93CDB7DEB7BA
S1134A0029970FB6F894DEBF0FBECDBF8F83798789
S1134A1068870FB6F8940F928091FE049091FF047A
S1134A20FC0181A192A1A3A1B4A1892B8A2B8B2B78
S1134A3011F58091FE049091FF0421E0FC0125A36F
S1134A4088859985892BB9F08091FE049091FF04A3
S1134A5002960E94AF1220914E0530914F05888531
S1134A609985820F931F9A83898389819A810E94F1
S1134A7000240E94EB140F900FBE0FB6F8940F920F
S1134A808091FE049091FF04FC0181A192A1A3A155
S1134A90B4A18B839C83AD83BE838B819C81AD81C8
S1134AA0BE81892B8A2B8B2BF1F08F81882351F0C7
S1134AB08091FE049091FF04FC0111A212A213A2A2
S1134AC014A211C02091FE043091FF04F90181A1C8
S1134AD092A1A3A1B4A10197A109B109F90181A3EC
S1134AE092A3A3A3B4A38091FE049091FF04FC01BC
S1134AF015A20F900FBE8B819C81AD81BE81BC013C
S1134B00CD0129960FB6F894DEBF0FBECDBFDF915D
S1134B10CF910895EF92FF920F931F93CF93DF935A
S1134B20CDB7DEB72F970FB6F894DEBF0FBECDBF5B
S1134B306C837D838E839F83288739874A875B872D
S1134B401D870C87FF86EE860FB6F8940F9280912E
S1134B50FE049091FF04FC0185A18230E1F1609193
S1134B60FE047091FF04FB0121A132A143A154A1D1
S1134B708C819D81AE81BF8180959095A095B095E3
S1134B8082239323A423B523FB0181A392A3A3A38C
S1134B90B4A38091FE049091FF0421E0FC0125A3BD
S1134BA08E859F85892BB9F08091FE049091FF0436
S1134BB002960E94AF1220914E0530914F058E85CA
S1134BC09F85820F931F9B838A838A819B810E9486
S1134BD000240E94EB140F900FBE0FB6F8940F92AE
S1134BE08C859D85892B81F08091FE049091FF0432
S1134BF0FC0181A192A1A3A1B4A12C853D85F90159
S1134C0080839183A283B3838091FE049091FF04F7
S1134C10FC0185A1813011F419821CC06091FE044D
S1134C207091FF04FB0121A132A143A154A1888505
S1134C309985AA85BB8580959095A095B09582238A
S1134C409323A423B523FB0181A392A3A3A3B4A319
S1134C5081E089838091FE049091FF04FC0115A2F8
S1134C600F900FBE89812F960FB6F894DEBF0FBE4A
S1134C70CDBFDF91CF911F910F91FF90EF900895D9
S1134C800F931F93CF93DF93CDB7DEB72D970FB656
S1134C90F894DEBF0FBECDBF9E838D834F835887AC
S1134CA069877A872B871D870C8781E089838D81AB
S1134CB09E819B838A830FB6F8940F928C859D8581
S1134CC0892B71F08A819B81FC0181A192A1A3A10E
S1134CD0B4A12C853D85F90180839183A283B3839C
S1134CE08A819B81FC0185A18C838A819B8122E03E
S1134CF0FC0125A38B85882F90E08230910531F14A
S1134D008330910534F4009709F44FC0019739F0CA
S1134D104DC08330910561F10497B1F147C08A8198
S1134D209B81FC0121A132A143A154A18F819885CB
S1134D30A985BA85822B932BA42BB52B2A813B8181
S1134D40F90181A392A3A3A3B4A330C08A819B8158
S1134D50FC0181A192A1A3A1B4A10196A11DB11D41
S1134D602A813B81F90181A392A3A3A3B4A31EC00A
S1134D702A813B818F819885A985BA85F90181A310
S1134D8092A3A3A3B4A312C08C81823061F02A81C0
S1134D903B818F819885A985BA85F90181A392A366
S1134DA0A3A3B4A303C0198201C000008C81813085
S1134DB0D1F58A819B8102960E94AF128A819B81E0
S1134DC0FC01968980915005891730F48A819B8172
S1134DD0FC018689809350058A819B81AC014E5FDA
S1134DE05F4F8A819B81FC018689282F30E0C901AD
S1134DF0880F991F880F991F880F991F820F931F7F
S1134E0080509B4FBA010E94EA118A819B81FC0168
S1134E1026898091FE049091FF04FC018689821703
S1134E2010F40E94EB140F900FBE89812D960FB6DB
S1134E30F894DEBF0FBECDBFDF91CF911F910F91CC
S1134E400895EF92FF920F931F93CF93DF93CDB703
S1134E50DEB760970FB6F894DEBF0FBECDBF9F8359
S1134E608E83488759876A877B872C871E870D879F
S1134E70F88AEF8681E089838E819F819B838A8370
S1134E801C828D859E85892B71F08A819B81FC0112
S1134E9081A192A1A3A1B4A12D853E85F9018083AE
S1134EA09183A283B3838A819B81FC0185A18D8335
S1134EB08A819B8122E0FC0125A38C85882F90E0C8
S1134EC08230910531F18330910534F4009709F46F
S1134ED04FC0019739F04DC08330910561F10497BB
S1134EE0B1F147C08A819B81FC0121A132A143A178
S1134EF054A188859985AA85BB85822B932BA42BE5
S1134F00B52B2A813B81F90181A392A3A3A3B4A366
S1134F1030C08A819B81FC0181A192A1A3A1B4A18B
S1134F200196A11DB11D2A813B81F90181A392A3A0
S1134F30A3A3B4A31EC02A813B8188859985AA8531
S1134F40BB85F90181A392A3A3A3B4A312C08D814D
S1134F50823061F02A813B8188859985AA85BB8549
S1134F60F90181A392A3A3A3B4A303C0198201C02E
S1134F7000008D81813009F04EC08091580588234E
S1134F8069F58A819B8102960E94AF128A819B8176
S1134F90FC01968980915005891730F48A819B81A0
S1134FA0FC018689809350058A819B81AC014E5F08
S1134FB05F4F8A819B81FC018689282F30E0C901DB
S1134FC0880F991F880F991F880F991F820F931FAD
S1134FD080509B4FBA010E94EA1108C08A819B81CC
S1134FE00C96BC018AE395E00E94EA118A819B81B8
S1134FF0FC0126898091FE049091FF04FC018689BE
S1135000821748F48F859889892B29F08F85988990
S113501021E0FC012083898160960FB6F894DEBFFD
S11350200FBECDBFDF91CF911F910F91FF90EF90F5
S11350300895CF93DF93CDB7DEB728970FB6F894D2
S1135040DEBF0FBECDBF9E838D8378876F838D8136
S11350509E819A8389831B8289819A81FC0185A11F
S11350608C8389819A8122E0FC0125A389819A811C
S1135070FC0181A192A1A3A1B4A10196A11DB11D1E
S113508029813A81F90181A392A3A3A3B4A38C81BA
S1135090813009F04EC080915805882369F58981D3
S11350A09A8102960E94AF1289819A81FC019689A5
S11350B080915005891730F489819A81FC01868991
S11350C08093500589819A81AC014E5F5F4F89813D
S11350D09A81FC018689282F30E0C901880F991F25
S11350E0880F991F880F991F820F931F80509B4F21
S11350F0BA010E94EA1108C089819A810C96BC0108
S11351008AE395E00E94EA1189819A81FC0126894B
S11351108091FE049091FF04FC018689821748F473
S11351208F819885892B29F08F81988521E0FC0156
S1135130208328960FB6F894DEBF0FBECDBFDF9153
S1135140CF910895CF93DF9300D000D01F92CDB7B5
S1135150DEB79D838C838C819D819B838A838A8126
S11351609B81892B29F48091FE049091FF0402C055
S11351708A819B819B838A830FB6F8940F928A81DC
S11351809B81FC0185A1823039F48A819B81FC01D9
S113519015A281E0898301C019820F900FBE898115
S11351A00F900F900F900F900F90DF91CF91089573
S11351B0CF93DF9300D01F92CDB7DEB79B838A8352
S11351C0198241E060E081E00E94A20081E09981BF
S11351D0992309F080E08983498160E081E00E949D
S11351E036018AEF90E00E94681EF0CFCF93DF93E0
S11351F000D000D0CDB7DEB79C838B8382E0898357
S11352008AE08A8342E0CE010196BC0184E092E008
S11352100E94CA0184E690E00E94681EF3CFCF93F7
S1135220DF9300D0CDB7DEB79A8389830F900F90B8
S1135230DF91CF910895CF93DF9300D0CDB7DEB740
S11352409A8389830F900F90DF91CF910895EE0F89
S1135250FF1F0590F491E02D0994FB01DC0102C0CD
S113526001900D9241505040D8F70895F894FFCF23
S11352705354415455530048454152540049444CF9
S10552804500E3
S9030000FC
