S019000046726F6E7453656E736F724D6F64756C652E7372656322
S11300000C943E000C945B000C945B000C945B001D
S11300100C945B000C945B000C945B000C945B00F0
S11300200C945B000C945B000C945B000C945B00E0
S11300300C94FE040C945B000C945B000C945B0029
S11300400C945B000C945B000C9405010C945B0015
S11300500C945B000C945B000C945B000C945B00B0
S11300600C945B000C945B000C945B000C945B00A0
S11300700C945B000C945B000C945B0011241FBE79
S1130080CFEFD0E1DEBFCDBF11E0A0E0B1E0EEE202
S1130090FBE202C005900D92AC36B107D9F72FE010
S11300A0ACE6B1E001C01D92AD3BB207E1F70E949E
S11300B070110C9495150C940000EF92FF920F931D
S11300C01F93CF93DF93CDB7DEB72F970FB6F89476
S11300D0DEBF0FBECDBFED82FE820F831887298756
S11300E03A874B875C876D877E878F8789819A8162
S11300F09C838B832F960FB6F894DEBF0FBECDBFC3
S1130100DF91CF911F910F91FF90EF900895EF929F
S1130110FF920F931F93CF93DF93CDB7DEB72F9743
S11301200FB6F894DEBF0FBECDBFED82FE820F8303
S1130130188729873A874B875C876D877E878F87E7
S11301408B819C819A8389832F960FB6F894DEBFA6
S11301500FBECDBFDF91CF911F910F91FF90EF9014
S11301600895EF92FF920F931F93CF93DF93CDB730
S1130170DEB72F970FB6F894DEBF0FBECDBFED826A
S1130180FE820F83188729873A874B875C876D87A0
S11301907E878F8789819A819C838B832F960FB664
S11301A0F894DEBF0FBECDBFDF91CF911F910F91A9
S11301B0FF90EF900895EF92FF920F931F93CF93C8
S11301C0DF93CDB7DEB72F970FB6F894DEBF0FBE1F
S11301D0CDBFED82FE820F83188729873A874B872C
S11301E05C876D877E878F8789819A819C838B83C7
S11301F02F960FB6F894DEBF0FBECDBFDF91CF911F
S11302001F910F91FF90EF9008951F920F920FB6D8
S11302100F9211242F933F934F935F936F937F9388
S11302208F939F93AF93BF93CF93EF93FF93C0911B
S1130230ED008091EC00682F70E0807F8093ED00EA
S113024094E0769567959A95E1F72091F200809174
S1130250F30038E0839FC00111242295269527706E
S1130260822B90936D0180936C018091EF008F70CD
S113027080936E0120E030E0082E000C990B2817C3
S1130280390748F44091FA00F901E459FE4F4383D9
S11302902F5F3F4FF4CF1092EE0080E88093EF0081
S11302A0FB01EE0FFF1FE557F04F0190F081E02DA9
S11302B08CE691E00995C093ED00FF91EF91CF9109
S11302C0BF91AF919F918F917F916F915F914F916A
S11302D03F912F910F900FBE0F901F901895FB0127
S11302E08295807F8093ED008091EF00807C21F0E7
S11302F08091EE0086FF3DC01092EE001092EF0058
S113030022818081918133E0969587953A95E1F732
S11303108093F30080818295880F807E8093F20021
S11303201092F1002F3FA9F01092F000DF01139614
S113033020E030E09281492F50E02417350730F453
S11303408D918093FA002F5F3F4FF4CF8091EF009F
S113035006C084E08093F0009091EF008281892BA5
S11303608093EF008091EF0080648093EF0081E040
S1130370089580E008958F3014F081E00895E82F07
S1130380EE0FFF0BE557F04F31832083982F9295A2
S1130390907F9093ED00232BA1F41092EE00109225
S11303A0EF004091DE0021E030E0B90102C0660FA9
S11303B0771F8A95E2F7CB01809584238093DE0032
S11303C03EC09091EF00907CC1F61092EE00109226
S11303D0EF001092EC009B0193E0369527959A95D7
S11303E0E1F72093F3006295660F607E6093F2005C
S11303F09A0153E0369527955A95E1F72093F70033
S11304004295440F407E4093F6001092F5001092FE
S1130410F40090E89093EF0021E030E0A90102C0DD
S1130420440F551F8A95E2F7CA012091DE00822B02
S11304308093DE008091DF00892B8093DF0080E0D1
S1130440089586E08093E20084E08093E30083E1F2
S11304508093E40080E0982F9295907F9093ED0034
S11304601092EE001092EF008F5F8630A1F780911A
S1130470D80082608093D80080EA8093DB000895DE
S1130480FF920F931F93CF93DF931F92CDB7DEB7E5
S11304908C01F62E1982E62FF0E0EE0FFF1FE956CD
S11304A0F04F20E0AE014F5F5F4FB8018081918132
S11304B00E94ED068091A30F9091A40F009751F034
S11304C025E0F21639F020E0AE014F5F5F4FB8012E
S11304D00E94ED06898181110E9449040F90DF91E9
S11304E0CF911F910F91FF90089540E06BE00E941F
S11304F01F069093A40F8093A30F9093A20F809351
S1130500A10F0895CF92DF92EF92FF921F93CF93A2
S1130510DF937C016B01842F122F40E06BE00E947B
S11305201F06EC01892BA9F0E12FF0E0EE0FFF1F6D
S1130530E956F04F80819181892B59F4D183C0838E
S113054020E432E0A601B701812F0E94BB01CE0155
S113055002C080E090E0DF91CF911F91FF90EF9077
S1130560DF90CF900895E7E9FFE020E030E081914B
S11305709191892B41F02F5F3F4F26303105B9F718
S11305808FEF9FEF0895C9010895AF92BF92CF9264
S1130590DF92EF92FF920F931F93CF93DF937C012F
S11305A06B018B01000F111FF801E956F04F8FEF1B
S11305B09FEF91838083EA012197CF3F8FEFD80784
S11305C0E1F0B7018C2D0E946F015E0191E0A91A40
S11305D0B108882361F08091A30F9091A40F009734
S11305E071F020E0AE01B7010E94530608C081E01B
S11305F090E00E94240CE501E0CF80E001C081E09E
S1130600F801E956F04F11821082DF91CF911F91CA
S11306100F91FF90EF90DF90CF90BF90AF9008952F
S1130620FC010396928381832FEF3FEF348323836E
S1130630968385839087878310820895FC011186B1
S113064010860895CF93DF939C01FB01DC01119682
S1130650CD91DC911297D383C2838C819D81958344
S113066084838C819D81DC0113967C936E93129715
S11306707D836C8331872087F90180818F5F80833C
S1130680DF91CF9108950F931F93CF93DF938C0144
S1130690FB01808191818F3F2FEF920721F4E801C4
S11306A0AF81B8850EC0D801139612962D913C9156
S11306B01397E901488159818417950710F0D901EE
S11306C0F4CF12968D919C91139793838283EC01BE
S11306D0FD83EC83B583A4831396FC93EE93129766
S11306E011870087F80180818F5F8083DF91CF912C
S11306F01F910F910895CF93DF93FC01A085B185DD
S11307008281938124813581EC013D832C83C481D2
S1130710D5819B838A8311968D919C9112978E1714
S11307209F0721F41296DC93CE93119711861086BD
S11307308C9181508C93DF91CF91089531E1FC012C
S11307403083319722E220833197A3E3A08331974A
S113075060833197708331971082319760E86083AA
S113076031971082319762E06083319763E0608350
S1130770319764E06083319765E06083319766E088
S11307806083319767E06083319768E060833197D5
S113079069E06083319760E16083319730833197FA
S11307A032E13083319733E13083319734E1308360
S11307B0319735E13083319736E13083319737E132
S11307C03083319738E13083319739E13083319781
S11307D030E23083319731E230833197208331978F
S11307E023E220833197408331975083319726E267
S11307F02083319727E22083319728E220833197A1
S113080029E22083319720E32083319721E3208359
S1130810869708951092890089EF809388008BE071
S113082080938100EFE6F0E0808182608083109203
S1130830850010928400A091270FB091280FCD91CC
S1130840CDBFDD91DEBFFF91EF91DF91CF91BF91DD
S1130850AF919F918F917F916F915F914F913F9154
S11308602F911F910F91FF90EF90DF90CF90BF9049
S1130870AF909F908F907F906F905F904F903F903C
S11308802F901F900F900FBE0F90089581E0089550
S113089008950F920FB6F8940F921F9211242F927D
S11308A03F924F925F926F927F928F929F92AF92FC
S11308B0BF92CF92DF92EF92FF920F931F932F93E9
S11308C03F934F935F936F937F938F939F93AF93D4
S11308D0BF93CF93DF93EF93FF93A091270FB09132
S11308E0280F0DB60D920EB60D920E94790CA091B0
S11308F0270FB091280FCD91CDBFDD91DEBFFF91C1
S1130900EF91DF91CF91BF91AF919F918F917F91A3
S11309106F915F914F913F912F911F910F91FF9094
S1130920EF90DF90CF90BF90AF909F908F907F908B
S11309306F905F904F903F902F901F900F900FBE3D
S11309400F9008950F920FB6F8940F921F921124EE
S11309502F923F924F925F926F927F928F929F92CB
S1130960AF92BF92CF92DF92EF92FF920F931F93B9
S11309702F933F934F935F936F937F938F939F93A3
S1130980AF93BF93CF93DF93EF93FF93A091270F80
S1130990B091280F0DB60D920EB60D920E94CA0AA0
S11309A081110E94790CA091270FB091280FCD914D
S11309B0CDBFDD91DEBFFF91EF91DF91CF91BF916C
S11309C0AF919F918F917F916F915F914F913F91E3
S11309D02F911F910F91FF90EF90DF90CF90BF90D8
S11309E0AF909F908F907F906F905F904F903F90CB
S11309F02F901F900F900FBE0F9008950E94A20495
S1130A001895CF93DF93EC010E94B20A809177018D
S1130A1090917801892B31F48CE791E090937801DF
S1130A20809377012091790130917A01CE01820F70
S1130A30931F8B3A4DE0940770F42817390758F444
S1130A40C0917701D0917801C20FD31F90937A019E
S1130A508093790102C0C0E0D0E00E94790BCE01FE
S1130A60DF91CF910895089510927A01109279013F
S1130A7008952091790130917A018BEA9DE0821BDF
S1130A80930B08951F93CF93DF93EC01142F8C8D58
S1130A908823D9F1482F50E0111115C08C819D8114
S1130AA00E94B4122C8D8C819D81820F911D9D8397
S1130AB08C832A813B818217930738F1888199813D
S1130AC09D838C8322C08E819F810E94B4128C8D61
S1130AD090E09195819591092E813F81280F391FCE
S1130AE03F832E83488159812417350730F42A81A6
S1130AF03B81820F931F9F838E83123031F48A8D42
S1130B00882319F08A8D81508A8F8A8D8F5F8A8F0E
S1130B1080E0DF91CF911F910895FC01CB01448DBA
S1130B204423A1F050E026813781240F351F3783F9
S1130B302683628173812617370720F02081318153
S1130B4037832683668177810C94B41208950F93BA
S1130B501F93CF93DF93EC010FB6F8940F928C019F
S1130B600F5E1F4F9E8D19166CF48989882351F0EE
S1130B70C8010E94770D81110E94280E9E8D91500C
S1130B809E8FF0CF8FEF8E8F0F900FBE0FB6F8941D
S1130B900F928E01085F1F4F9D8D19166CF4888586
S1130BA0882351F0C8010E94770D81110E94280EFC
S1130BB09D8D91509D8FF0CF8FEF8D8F0F900FBE35
S1130BC0DF91CF911F910F910895CF93DF93EC01A3
S1130BD00FB6F8940F92288139819B8D4C8D949F88
S1130BE0C0011124F901E80FF91FFB83EA831A8E6F
S1130BF03D832C83841B9109820F931F9F838E83D3
S1130C008FEF8D8F8E8F61110CC08885882389F0BA
S1130C10CE0108960E94770D813059F40E94490450
S1130C2008C0CE0108960E941003CE0141960E948E
S1130C3010030F900FBE81E0DF91CF910895EF92E2
S1130C40FF921F93CF93DF931F92CDB7DEB7182F78
S1130C50662331F0869F90011124C901019602C0D8
S1130C6080E090E04F9669830E9401057C016981D0
S1130C70009789F0611104C0FC019183808304C052
S1130C804F96F70191838083F701138F648F61E09E
S1130C90C7010E94E505C7010F90DF91CF911F9115
S1130CA0FF90EF900895AF92BF92CF92DF92FF92A0
S1130CB00F931F93CF93DF9300D000D01F92CDB733
S1130CC0DEB78C016B015D834C83F22E90E05801FA
S1130CD088E0A80EB11C0FB6F8940F92F801228D8B
S1130CE0838D281718F0F2E0FF1218C04F2DB601BB
S1130CF0C8010E944205F8019189992349F0C8016D
S1130D0041960E94770D813029F40E94490402C063
S1130D108111FBCF0F900FBE81E050C02C813D812B
S1130D20232B19F40F900FBE48C0911104C0CE01BB
S1130D3001960E94EB0D0F900FBE0E94B20A0FB6EF
S1130D40F8940F92F801858D8F3F09F4158EF80100
S1130D50868D8F3F09F4168E0F900FBEBE016C5F17
S1130D607F4FCE0101960E94F60D811121C00FB66E
S1130D70F8940F92F801928D0F900FBE838D981303
S1130D8011C06C817D81C5010E94170DC8010E94AC
S1130D90A7050E94790B882311F091E09CCF0E9453
S1130DA04904FBCFC8010E94A7050E94790BF5CF27
S1130DB0C8010E94A7050E94790B80E00F900F9054
S1130DC00F900F900F90DF91CF911F910F91FF9093
S1130DD0DF90CF90BF90AF9008950F931F93CF9360
S1130DE0DF93EC019A8D8B8D981710F02230E9F483
S1130DF08A01422FCE010E9442058E8D8F3F81F4DD
S1130E008989882381F0CE0141960E94770D882339
S1130E1051F00115110539F081E0F801808306C015
S1130E208E8D8F5F8E8F81E001C080E0DF91CF9146
S1130E301F910F910895CF93DF93FC01928D838DC1
S1130E409817D0F4828D8F5F828F868D8F3F79F4CF
S1130E508189882379F0EB01CF0141960E94770DB7
S1130E60882341F0209731F081E0888306C0868D85
S1130E708F5F868F81E001C080E0DF91CF9108957C
S1130E80AF92BF92DF92EF92FF920F931F93CF9393
S1130E90DF9300D000D01F92CDB7DEB78C017B0169
S1130EA05D834C83D22E90E0580181E1A80EB11CE1
S1130EB00FB6F8940F92F801828D882339F1A68039
S1130EC0B780B701C8010E948D05F801D1100FC089
S1130ED0828D8150828F80858823A1F0C801089675
S1130EE00E94770D813071F40E9449040BC0B782CF
S1130EF0A6828189882331F0C80141960E94770D2A
S1130F008111F2CF0F900FBE81E04FC02C813D8143
S1130F10232B19F40F900FBE47C0911104C0CE01CA
S1130F2001960E94EB0D0F900FBE0E94B20A0FB6FD
S1130F30F8940F92F801858D8F3F09F4158EF8010E
S1130F40868D8F3F09F4168E0F900FBEBE016C5F25
S1130F507F4FCE0101960E94F60D811120C00FB67D
S1130F60F8940F92F801828D0F900FBE811111C079
S1130F706C817D81C5010E94170DC8010E94A705DF
S1130F800E94790B882311F091E092CF0E944904CA
S1130F90FBCFC8010E94A7050E94790BF5CFC801B9
S1130FA00E94A7050E94790B80E00F900F900F908C
S1130FB00F900F90DF91CF911F910F91FF90EF90C1
S1130FC0DF90BF90AF9008950F931F93CF93DF935B
S1130FD0FC01228D2223F9F08A01EC010E948D0587
S1130FE08A8D81508A8F8D8D8F3F81F488858823E7
S1130FF081F0CE0108960E94770D882351F00115E7
S1131000110539F081E0F801808306C08D8D8F5F72
S11310108D8F81E001C080E0DF91CF911F910F910E
S113102008950F931F93CF93DF93FC01228D222306
S113103049F0EC01068117810E948D051F830E8300
S113104081E001C080E0DF91CF911F910F9108955D
S11310500FB6F8940F92FC01828D0F900FBE089585
S11310600FB6F8940F92FC01228D0F900FBE838D62
S1131070821B0895FC01828D08950C943305FC01B4
S1131080928D81E0911180E00895FC01228D81E030
S1131090938D291380E00895E091530FF091540F3C
S11310A08081811103C08FEF9FEF0CC0E091530F3B
S11310B0F091540F0580F681E02D0680F781E02D34
S11310C08281938190932B0F80932A0F0895CF935D
S11310D0DF93E091270FF091280F9383828320916F
S11310E0320F3091330F8217930770F46091270FFA
S11310F07091280F8091510F9091520F6E5F7F4F26
S1131100DF91CF910C944303EC016091270F709110
S1131110280F8091530F9091540F6E5F7F4F0E9460
S1131120430380912A0F90912B0FC817D90720F4FD
S1131130D0932B0FC0932A0FDF91CF9108955F9224
S11311406F927F928F929F92AF92BF92CF92DF92D3
S1131150EF92FF920F931F93CF93DF934C01162FBF
S1131160572E5A013901C114D10439F4CA010E941D
S113117001056C01892B09F4D0C086E290E00E943D
S11311800105EC01009779F0D88ECF8A21E0A21AEC
S1131190B108AC0CBD1CBC01675E7F4FE12FF52D7F
S11311A0CF01089607C0C6010E943305B6C0E817F0
S11311B0F90749F09F014191DB014D93BD01D9012C
S11311C02C912111F4CF18A2102F043008F013E051
S11311D01E8B6E01B2E0CB0ED11CC6010E941E0311
S11311E0CE010C960E941E03D987C88784E090E044
S11311F0811B91099D878C87DB8BCA8B19A21AA24C
S11312001BA21CA21DA2A301B401C5010E949E033E
S113121099838883E114F10419F0F701D183C08321
S11312200FB6F8940F928091340F8F5F8093340F30
S11312308091270F9091280F892BD1F5D093280FF7
S1131240C093270F8091340F813009F040C087E6A6
S11312509FE00E94100380E79FE00E94100389E74B
S11312609FE00E94100382E89FE00E9410038EE535
S11312709FE00E94100385E59FE00E94100388E42C
S11312809FE00E9410038FE39FE00E94100385E318
S11312909FE00E9410038EE59FE09093540F80938B
S11312A0530F85E59FE09093520F8093510F0FC029
S11312B08091300F81110BC0E091270FF091280F1E
S11312C08689081720F0D093280FC093270F8091A8
S11312D02C0F8F5F80932C0F8E899091310F98176C
S11312E010F48093310FF9E08F9FC0011124B601EF
S11312F08959904F0E9422030F900FBE8091300FA6
S1131300882349F0E091270FF091280F86898017F0
S113131010F40E94490481E001C08FEFDF91CF9166
S11313201F910F91FF90EF90DF90CF90BF90AF90FF
S11313309F908F907F906F905F9008950F931F936D
S1131340CF93DF93EC010FB6F8940F92892B21F41D
S1131350C091270FD091280F8E010E5F1F4FC80137
S11313600E947B038C899D89892B21F0CE010C96E8
S11313700E947B03B8018FE39FE00E9422038091C7
S11313803E0F8F5F80933E0F80912C0F8F5F809371
S11313902C0F0F900FBE8091300F882389F080911D
S11313A0270F9091280FC817D90719F40E944904F0
S11313B007C00FB6F8940F920E944C080F900FBE0E
S11313C0DF91CF911F910F9108950F931F93CF93A6
S11313D0DF93009709F43CC02091270F3091280F28
S11313E082179307A9F10FB6F8940F92FC01228596
S11313F0338525533F4051F5FC0124893589FFE0AD
S113140028343F0719F1232B09F5EC018C010E5FF9
S11314101F4FC8010E947B039E898091310F891759
S113142010F49093310F29E0929FC0011124B80168
S11314308959904F0E942203E091270FF091280FC1
S11314409E898689981710F00E9449040F900FBE58
S1131450DF91CF911F910F910895EF92FF921F9307
S1131460CF93DF93EC018A859B8585539F4099F444
S11314708C899D892FE08834920769F0892B59F46F
S11314808091290F882349F0BE01645F7F4F88E46F
S11314909FE00E94220310E021C0E091270FF09109
S11314A0280F11E09E898689981708F410E07E01C0
S11314B082E0E80EF11CC7010E947B039E898091A3
S11314C0310F891710F49093310F29E0929FC001D6
S11314D01124B7018959904F0E942203812FDF9173
S11314E0CF911F91FF90EF900895AF92BF92CF924A
S11314F0DF92EF92FF920F93A12CB12CC12CD12C2F
S1131500E12CF12C00E020E030E044E650E066E617
S113151071E085E49CE00E949F088130B1F4F89466
S11315202FEF3FEF30932B0F20932A0F8093300F30
S11315301092330F1092320F0F91FF90EF90DF90C3
S1131540CF90BF90AF900C940A040F91FF90EF904E
S1131550DF90CF90BF90AF900895F8941092300F21
S11315600C9448048091290F8F5F8093290F08956C
S11315700FB6F8940F928091320F9091330F0F9021
S11315800FBE08958091320F9091330F089580918A
S1131590340F0895CF92DF92EF92FF920F931F932F
S11315A0CF93DF938091290F81118FC08091320FE7
S11315B09091330F01969093330F8093320FE09004
S11315C0320FF090330FE114F104B9F48091530F0A
S11315D09091540F2091510F3091520F3093540F2A
S11315E02093530F9093520F8093510F80912D0F9E
S11315F08F5F80932D0F0E944C0880912A0F909149
S11316002B0FC0E0E816F90608F44FC0D9E0E091CA
S1131610530FF091540F8081811103C08FEF9FEF1E
S113162011C0E091530FF091540F0580F681E02D25
S113163006811781D80112968D919C911397E81613
S1131640F90628F490932B0F80932A0F2EC068017B
S1131650B2E0CB0ED11CC6010E947B03F801848941
S11316609589892B21F0C8010C960E947B03D8012F
S113167056969C918091310F891710F49093310FF5
S1131680D99FC0011124B6018959904F0E942203A9
S1131690E091270FF091280FD80156969C918689E6
S11316A0981708F4B4CFC1E0B2CFE091270FF091BE
S11316B0280FE689B9E0EB9FF0011124E959F04FB6
S11316C08081823040F0C1E006C080912F0F8F5F8F
S11316D080932F0FC0E080912E0F8111C1E08C2FD9
S11316E0DF91CF911F910F91FF90EF90DF90CF90FA
S11316F00895EF92FF920F931F93CF93DF930FB64A
S1131700F8940F928091290F81508093290F809132
S1131710290F882311F080E053C08091340F88236F
S1131720D1F389E0F82EEE24E3948091480F8823C6
S113173051F1E0914D0FF0914E0FC681D781CE014A
S11317400C960E947B038E010E5F1F4FC8010E94FE
S11317507B039E898091310F891710F49093310F88
S1131760F99EC0011124B8018959904F0E942203A7
S1131770E091270FF091280F9E8986899817A8F287
S1131780E0922E0FD2CF80912F0F811109C080914A
S11317902E0F813009F0BFCF0E94490481E010C0B0
S11317A0C1E080912F0F882391F30E94CA0A81110E
S11317B0C0932E0F80912F0F815080932F0FF1CF64
S11317C00F900FBEDF91CF911F910F91FF90EF907B
S11317D008950F931F93CF93DF938C01EB010E9425
S11317E0B20A4091320F5091330FF80120813181B8
S11317F0C20FD31F4217530728F4C217D30748F464
S113180091E004C091E0C217D30720F04C175D07A4
S113181008F090E0F801D183C083992351F08091BE
S1131820270F9091280F02960E947B03CE010E94FD
S113183067080E94790B811102C00E944904DF915C
S1131840CF911F910F910895CF93DF93EC01892BD2
S113185019F40E94490416C00E94B20A2091320F62
S11318603091330FC20FD31F8091270F9091280F0F
S113187002960E947B03CE010E9467080E94790BA6
S1131880882339F3DF91CF91089580913E0F882307
S113189049F10E94B20AC0913F0F0E94790BCC23F8
S11318A0A1F30FB6F8940F92E091440FF091450F15
S11318B0C681D781CE0102960E947B038091340FAA
S11318C081508093340F80913E0F815080933E0F5E
S11318D00F900FBE8F89988D0E943305CE010E9410
S11318E03305D3CF8091670F823078F20E94490488
S11318F0CCCF8091290F882321F081E080932E0F93
S1131900089510922E0F99E0E091310F9E9FF001FF
S11319101124E959F04F8081811106C08091310F63
S113192081508093310FF0CF8091310F90E049E0E6
S1131930489F9001499F300D1124F901E959F04F56
S1131940A181B28112960D90BC91A02DB283A18386
S11319502659304FA217B30731F412962D913C91BA
S113196013973283218329E0289FF001299FF00DEA
S11319701124E959F04F0180F281E02D868197818D
S11319809093280F8093270F08950F931F93CF935D
S1131990DF93EC010FB6F8940F92892B21F4C091D8
S11319A0270FD091280F8E010E5F1F4FC8010E9490
S11319B07B038C899D89892B21F0CE010C960E9492
S11319C07B03B80185E39FE00E9422030F900FBEC2
S11319D08091270F9091280FC817D907C1F48091DF
S11319E0300F882319F00E9449041CC08091340FE1
S11319F09091350F981305C01092280F1092270F5D
S1131A0011C0DF91CF911F910F910C94790C8091AB
S1131A10300F882339F00FB6F8940F920E944C08C7
S1131A200F900FBEDF91CF911F910F910895CF9327
S1131A30DF93EB012091270F3091280FB901645FE8
S1131A407F4F0E9443038091270F9091280F0296A5
S1131A500E947B03CF3F8FEFD80761F46091270F7B
S1131A607091280F6E5F7F4F85E39FE0DF91CF91E8
S1131A700C9422038091320F9091330F8C0F9D1F91
S1131A80DF91CF910C946708CF93DF93EA01E09143
S1131A90270FF091280F7068758764876091270F6E
S1131AA07091280F645F7F4F0E9422038091270F5B
S1131AB09091280F02960E947B03CF3F8FEFD807A7
S1131AC061F46091270F7091280F6E5F7F4F85E35B
S1131AD09FE0DF91CF910C9422038091320F90917B
S1131AE0330F8C0F9D1FDF91CF910C9467080F93D8
S1131AF01F93CF93DF93DC011596ED91FC9116971C
S1131B00C681D7818E01045F1F4FC8010E947B03E9
S1131B108091290F811114C00A501109C8010E9433
S1131B207B039E898091310F891710F49093310FB4
S1131B30B9E09B9FC0011124B8018959904F03C09B
S1131B40B80188E49FE00E942203E091270FF091FE
S1131B50280F9E898689891720F481E080932E0FAF
S1131B6001C080E0DF91CF911F910F9108950F93F1
S1131B701F93CF93DF937068FC0171836083C681E8
S1131B80D7810E947B038E010E5F1F4FC8010E9404
S1131B907B039E898091310F891710F49093310F44
S1131BA0F9E09F9FC0011124B8018959904F0E9408
S1131BB02203E091270FF091280F9E8986898917C7
S1131BC020F481E080932E0F01C080E0DF91CF915B
S1131BD01F910F91089520912D0FFC0120832091D6
S1131BE0320F3091330F328321830895CF93DF93E3
S1131BF00FB6F8940F92E091320FF091330FDB019E
S1131C002D913C912F3FBFEF3B07D1F0B0912D0FA9
S1131C10EC01A88149815A81BA1719F0E417F50734
S1131C2088F4DF01A41BB50BA217B30758F4DB013A
S1131C304E1B5F0B240F351F2D933C930E94EB0D1D
S1131C4080E001C081E00F900FBEDF91CF91089535
S1131C5081E080932E0F0895E091270FF091280FD3
S1131C6084859585E091270FF091280FA091270F87
S1131C70B091280F56964C9124E030E0241B310992
S1131C803587248708950F931F93CF93DF93182FDD
S1131C90EB010FB6F8940F92E091270FF091280F03
S1131CA081A192A1A3A1B4A1892B8A2B8B2B41F5ED
S1131CB0E091270FF091280F81E085A3209701F18F
S1131CC08091270F9091280F02960E947B03CF3FAB
S1131CD08FEFD80759F46091270F7091280F6E5F2A
S1131CE07F4F85E39FE00E94220308C08091320F5A
S1131CF09091330F8C0F9D1F0E9467080E94490426
S1131D000F900FBE0FB6F8940F92E091270FF09149
S1131D10280F61A172A183A194A1611571058105A8
S1131D209105B9F0E091270FF091280F112329F0C4
S1131D3011A212A213A214A20CC001A112A123A1E8
S1131D4034A1015011092109310901A312A323A3CC
S1131D5034A3E091270FF091280F15A20F900FBE26
S1131D60DF91CF911F910F9108954F925F926F92DF
S1131D707F928F929F92AF92BF92EF92FF920F93B6
S1131D801F9329013A010FB6F8940F92E091270F9F
S1131D90F091280F25A1223009F441C0E091270FCA
S1131DA0F091280F21A132A143A154A14B015C0160
S1131DB080949094A094B094D501C4018223932379
S1131DC0A423B52381A392A3A3A3B4A3E091270FD3
S1131DD0F091280F81E085A3E114F10401F18091D1
S1131DE0270F9091280F02960E947B038FEFE8162D
S1131DF0F80659F46091270F7091280F6E5F7F4F9A
S1131E0085E39FE00E94220308C08091320F9091E5
S1131E10330F8E0D9F1D0E9467080E9449040F9086
S1131E200FBE0FB6F8940F920115110569F0E091F9
S1131E30270FF091280F81A192A1A3A1B4A1F801C9
S1131E4080839183A283B383E091270FF091280FBD
S1131E5085A18130C1F0E091270FF091280F81A175
S1131E6092A1A3A1B4A1B301A2014095509560959C
S1131E70709584239523A623B72381A392A3A3A3B8
S1131E80B4A381E001C080E0E091270FF091280F16
S1131E9015A20F900FBE1F910F91FF90EF90BF906E
S1131EA0AF909F908F907F906F905F904F90089528
S1131EB00F931F93CF93DF93FC010FB6F8940F9207
S1131EC00115110549F081A192A1A3A1B4A1E801D2
S1131ED088839983AA83BB8335A182E085A32230BA
S1131EE089F058F4213001F581A192A1A3A1B4A1F4
S1131EF0482B592B6A2B7B2B13C0233089F02430B9
S1131F0069F012C081A192A1A3A1B4A10196A11D5F
S1131F10B11D81A392A3A3A3B4A306C0323049F197
S1131F2041A352A363A374A3313009F5EF018F01D8
S1131F300E5F1F4FC8010E947B039E898091310F61
S1131F40891710F49093310F29E0929FC001112456
S1131F50B8018959904F0E942203E091270FF09114
S1131F60280F9E898689891710F40E94490481E00C
S1131F7001C080E00F900FBEDF91CF911F910F91B0
S1131F800895EF92FF920F931F93CF93DF93FC0179
S1131F900115110549F081A192A1A3A1B4A1E80101
S1131FA088839983AA83BB8335A182E085A32230E9
S1131FB089F058F4213001F581A192A1A3A1B4A123
S1131FC0482B592B6A2B7B2B13C0233089F02430E8
S1131FD069F012C081A192A1A3A1B4A10196A11D8F
S1131FE0B11D81A392A3A3A3B4A306C03230C1F14F
S1131FF041A352A363A374A3313011F081E031C033
S1132000EF018091290F811115C08F010E5F1F4FC1
S1132010C8010E947B032E898091310F821710F42E
S11320202093310FE9E02E9FC0011124B801895992
S1132030904F05C0BF01645F7F4F88E49FE00E941A
S11320402203E091270FF091280F9E898689891732
S1132050A8F6E114F10491F281E0E701888301C05C
S113206080E0DF91CF911F910F91FF90EF90089541
S1132070EF92FF920F931F93CF93DF93FC0125A15F
S113208082E085A381A192A1A3A1B4A10196A11D7F
S1132090B11D81A392A3A3A3B4A3213089F58B011D
S11320A0EF018091290F811116C07F0132E0E30E08
S11320B0F11CC7010E947B032E898091310F821786
S11320C010F42093310FE9E02E9FC0011124B701D1
S11320D08959904F05C0BF01645F7F4F88E49FE03A
S11320E00E942203E091270FF091280F9E89868990
S11320F0891730F40115110519F081E0F801808386
S1132100DF91CF911F910F91FF90EF900895009769
S113211021F48091270F9091280F0FB6F8940F9215
S1132120FC0125A1223019F415A281E001C080E050
S11321300F900FBE0895CF93DF9300D0CDB7DEB7D5
S11321400E94B80A9A83898341E060E081E00E949A
S1132150361210E001E01027412F60E081E00E9478
S113216075126AEF70E0CE0101960E94E90BF3CF7D
S1132170CF93DF93CDB7DEB728970FB6F894DEBFC1
S11321800FBECDBF8C010E94B80A98878F830D5F64
S11321901F4F7E0187E0E80EF11C86E0D82ED8019F
S11321A0FE0131968C9181931496EE15FF05D1F7BB
S11321B0FE013196A7E2B1E08D2D01900D928A9532
S11321C0E1F70E94B30244E650E0BC0184E291E0EE
S11321D00E94C50261E070E0C7010E94E90BDFCFF5
S11321E00895EF92FF920F931F93CF93DF93CDB790
S11321F0DEB72F970FB6F894DEBF0FBECDBF9D8715
S11322008C87EC85FD85EE0FFF1FEE0FFF1FEB554E
S1132210F04F20810FB6F8940F92822F90E0880F30
S1132220991FFC01EB5CFE4F60817181FC01EF5B47
S1132230FE4F8081918145E00E9482029F878E87B4
S11322400F900FBE8E859F85892B41F580E090E02D
S11322500E949E092F960FB6F894DEBF0FBECDBF25
S1132260DF91CF911F910F91FF90EF900895EC852E
S1132270FD85EE0FFF1FEE0FFF1FEB55F04F0180A2
S1132280F281E02DE980FA800B811C812D813E8151
S11322904F81588569857A858B8509958E859F85BB
S11322A020E04FEF5FEFBE016F5F7F4F0E9440075A
S11322B0EC85FD85EE0FFF1FEE0FFF1FEB55F04F72
S11322C083818F5F8383EC85FD85EE0FFF1FEE0F07
S11322D0FF1FEB55F04F81819281892BF9F2C7CF13
S11322E02F923F924F925F926F927F928F929F9222
S11322F0AF92BF92CF92DF92EF92FF920F931F9310
S1132300CF93DF9300D000D0CDB7DEB70E94210277
S1132310A12CB12CC12CD12CE12CF12C01E020E01A
S113232030E044E650E063E571E08BE990E10E941F
S11323309F088DE590E09093A70F8093A60F87E800
S113234090E09093AB0F8093AA0F81EB90E0909371
S1132350AF0F8093AE0F8BED90E09093B30F80930B
S1132360B20F85EA682E8FE0782E10E0812C912C34
S11323709AE5292E91E0392ECE0101962C01F30124
S113238010831382F401E25EFE4F8081813001F5F7
S11323909F928F923F922F925F924F920E94BD1212
S11323A0F401E050FF4F0081A12CB12CC12CD12CA1
S11323B0E12CF12C940144E650E0B20181EF90E16C
S11323C00E949F080F900F900F900F900F900F9006
S11323D0FFEF8F1A9F0A1F5F84E0680E711C16308E
S11323E071F6A12CB12CC12CD12CE12CF12C02E0E2
S11323F025EA3FE044E650E060E671E088EB90E1D6
S11324000E949F080E94750A80E090E00F900F9050
S11324100F900F90DF91CF911F910F91FF90EF904C
S1132420DF90CF90BF90AF909F908F907F906F90F0
S11324305F904F903F902F90089590917C00907EF4
S113244090937C008D3008F082E190917C00892B80
S113245080937C0080917A00806480937A008091DC
S11324607A0086FDFCCF8091790008958130B9F01F
S113247018F0823039F1089584B124B150E05195B7
S113248041955109482781E090E002C0880F991FC7
S11324906A95E2F748235923422744B9089587B13E
S11324A027B150E0519541955109482781E090E0CA
S11324B002C0880F991F6A95E2F7482359234227DF
S11324C047B908958AB12AB150E05195419551090F
S11324D0482781E090E002C0880F991F6A95E2F7CF
S11324E04823592342274AB908958130B9F018F096
S11324F0823039F1089585B125B150E05195419567
S11325005109482781E090E002C0880F991F6A951D
S1132510E2F748235923422745B9089588B128B1E1
S113252050E0519541955109482781E090E002C05F
S1132530880F991F6A95E2F748235923422748B91F
S113254008958BB12BB150E051954195510948271D
S113255081E090E002C0880F991F6A95E2F7482352
S1132560592342274BB90895FB01DC0102C00190B5
S11325700D9241505040D8F70895AEE0B0E0E3EC3E
S1132580F2E10C946C150D891E8986E08C831A8304
S113259009838FEF9FE79E838D83AE01475E5F4F74
S11325A06F89788DCE0101960E94E0122F813885C3
S11325B0F801E20FF31F10822E96E4E00C948815C4
S11325C0ACE0B0E0E6EEF2E10C945E157C016B0148
S11325D08A01FC0117821682838181FFBDC1CE016D
S11325E001964C01F7019381F60193FD859193FFC8
S11325F081916F01882309F4ABC1853239F493FDCD
S1132600859193FF81916F01853229F4B70190E0A0
S11326100E94C814E7CF512C312C20E02032A0F4C2
S11326208B3269F030F4803259F0833269F42061DE
S11326302CC08D3239F0803339F4216026C02260F9
S1132640246023C0286021C027FD27C030ED380F47
S11326503A3078F426FF06C0FAE05F9E300D11246C
S1132660532E13C08AE0389E300D1124332E20627D
S11326700CC08E3221F426FD6BC1206406C08C365A
S113268011F4206802C0883641F4F60193FD859167
S113269093FF81916F018111C1CF982F9F7D955434
S11326A0933028F40C5F1F4FFFE3F9830DC083368A
S11326B031F0833771F0833509F05BC022C0F80133
S11326C0808189830E5F1F4F44244394512C54010D
S11326D015C03801F2E06F0E711CF801A080B180C2
S11326E026FF03C0652D70E002C06FEF7FEFC501C8
S11326F02C870E94BD142C0183012C852F77222E58
S113270017C03801F2E06F0E711CF801A080B1808F
S113271026FF03C0652D70E002C06FEF7FEFC50197
S11327202C870E94B2142C012C852068222E830150
S113273023FC1BC0832D90E048165906B0F4B70162
S113274080E290E00E94C8143A94F4CFF50127FC8B
S1132750859127FE81915F01B70190E00E94C81422
S113276031103A94F1E04F1A51084114510471F7B1
S1132770E5C0843611F0893639F5F80127FF07C022
S113278060817181828193810C5F1F4F08C06081D9
S11327907181072E000C880B990B0E5F1F4F2F764B
S11327A0722E97FF09C090958095709561957F4F23
S11327B08F4F9F4F2068722E2AE030E0A4010E94C0
S11327C00015A82EA81844C0853729F42F7EB22EF0
S11327D02AE030E025C0F22FF97FBF2E8F36C1F0FA
S11327E018F4883579F0B4C0803719F0883721F0AF
S11327F0AFC02F2F2061B22EB4FE0DC08B2D84608C
S1132800B82E09C024FF0AC09F2F9660B92E06C0B7
S113281028E030E005C020E130E002C020E132E0F1
S1132820F801B7FE07C060817181828193810C5FDA
S11328301F4F06C06081718180E090E00E5F1F4FE2
S1132840A4010E940015A82EA818FB2DFF777F2E47
S113285076FE0BC0372D3E7FA51450F474FE0AC0DB
S113286072FC08C0372D3E7E05C0BA2C372D03C03C
S1132870BA2C01C0B52C34FF0DC0FE01EA0DF11DC8
S11328808081803311F4397E09C032FF06C0B394CD
S1132890B39404C0832F867809F0B39433FD13C036
S11328A030FF06C05A2CB31418F4530C5B18B32C25
S11328B0B31468F4B70180E290E03C870E94C81426
S11328C0B3943C85F5CFB31410F43B1801C0312CFC
S11328D034FF12C0B70180E390E03C870E94C81423
S11328E03C8532FF17C031FD03C088E790E002C089
S11328F088E590E0B7010CC0832F867859F031FF4A
S113290002C08BE201C080E237FD8DE2B70190E0A6
S11329100E94C814A51438F4B70180E390E00E9423
S1132920C8145A94F7CFAA94F401EA0DF11D8081DA
S1132930B70190E00E94C814A110F5CF332009F428
S113294051CEB70180E290E00E94C8143A94F6CFC9
S1132950F7018681978102C08FEF9FEF2C96E2E109
S11329600C947A15FC010590615070400110D8F761
S1132970809590958E0F9F1F0895FC0161507040C3
S113298001900110D8F7809590958E0F9F1F0895A0
S11329900F931F93CF93DF93FB01238121FD03C08A
S11329A08FEF9FEF28C022FF16C0468157812481F4
S11329B035814217530744F4A081B1819D012F5FF3
S11329C03F4F318320838C93268137812F5F3F4F84
S11329D03783268310C0EB01092F182F0084F1855B
S11329E0E02D0995892BE1F68E819F8101969F83C5
S11329F08E83812F902FDF91CF911F910F91089596
S1132A00FA01AA27283051F1203181F1E8946F931B
S1132A106E7F6E5F7F4F8F4F9F4FAF4FB1E03ED0C1
S1132A20B4E03CD0670F781F891F9A1FA11D680F5F
S1132A30791F8A1F911DA11D6A0F711D811D911D92
S1132A40A11D20D009F468943F912AE0269F112407
S1132A503019305D3193DEF6CF010895462F47706B
S1132A60405D4193B3E00FD0C9F7F6CF462F4F70C6
S1132A70405D4A3318F0495D31FD4052419302D024
S1132A80A9F7EACFB4E0A6959795879577956795CA
S1132A90BA95C9F700976105710508959B01AC01CA
S1132AA00A2E06945795479537952795BA95C9F7F1
S1132AB0620F731F841F951FA01D08952F923F92CC
S1132AC04F925F926F927F928F929F92AF92BF923A
S1132AD0CF92DF92EF92FF920F931F93CF93DF93E6
S1132AE0CDB7DEB7CA1BDB0B0FB6F894DEBF0FBE43
S1132AF0CDBF09942A88398848885F846E847D8490
S1132B008C849B84AA84B984C884DF80EE80FD8091
S1132B100C811B81AA81B981CE0FD11D0FB6F89407
S1112B20DEBF0FBECDBFED010895F894FFCFC8
S1132B2E030303030000FF03FF03FF03FF03FF0F71
S1132B3EFF0F0001010102010301FF0FFF0F01014D
S1132B4E0101000000030600000000000000000365
S1132B5E0303030000FF03FF03FF03FF03FF0FFF45
S1132B6E0F0001010102010301FF0FFF0F0101011B
S1132B7E01000053544154555300524356256400EA
S10F2B8E48454152540049444C450000A5
S9030000FC
