:100000000C943E000C945B000C945B000C945B0021
:100010000C945B000C945B000C945B000C945B00F4
:100020000C945B000C945B000C945B000C945B00E4
:100030000C945B000C945B000C945B000C945B00D4
:100040000C945B000C945B000C945B000C945B00C4
:100050000C945B000C945B000C945B000C945B00B4
:100060000C945B000C945B000C945B000C945B00A4
:100070000C945B000C945B000C945B0011241FBE7D
:10008000CFEFD0E1DEBFCDBF11E0A0E0B1E0ECEBFF
:10009000FBE202C005900D92AA30B107D9F727E024
:1000A000AAE0B1E001C01D92A138B207E1F70E94B9
:1000B0005D000C94DC150C940000AF92BF92CF92BF
:1000C000DF92EF92FF920F9341E060E081E00E94A7
:1000D0004A15A12CB12CC12CD12CE12CF12C02E021
:1000E00020E030E045E550E060E071E088EC95E12B
:1000F0000E944F0C0E94330E80E090E00F91FF9021
:10010000EF90DF90CF90BF90AF900895CF92DF92A5
:10011000EF92FF921F93CF93DF936C01162FF42E73
:100120008EE190E00E945A07EC01892B09F45DC032
:100130008091170190911801892B21F5D093180116
:10014000C09317018EE391E00E94410589E491E09C
:100150000E94410583E391E00E94410588E291E01D
:100160000E94410589E191E00E94410583E391E00D
:10017000909327018093260188E291E090932501D6
:1001800080932401111111E01D8E1C8E1A8FFB8E9D
:10019000FE01C192D1927F01CF010E945205CE0192
:1001A0000E960E945205DB87CA87DF8BCE8B82E0DA
:1001B00090E0A0E0B0E0811B9109A109B1098E8710
:1001C0009F87A88BB98B9A8D80911601891710F49F
:1001D00090931601FBE09F9FC0011124B701825C40
:1001E0009E4F0E94560581E001C08FEFDF91CF91B5
:1001F0001F91FF90EF90DF90CF900895CF92DF9204
:10020000EF92FF92CF93DF93EA01C0901201D0905A
:100210001301E0901401F0901501C60ED71EE81EE0
:10022000F91E809117019091180102960E94B40561
:10023000E0911701F0911801C282D382E482F58225
:100240008091120190911301A0911401B0911501B8
:10025000C816D906EA06FB0650F4BF016E5F7F4F51
:1002600080912401909125010E94770509C0BF016A
:100270006E5F7F4F80912601909127010E94770544
:10028000209749F06091170170911801625F7F4FCC
:10029000CE010E947705DF91CF91FF90EF90DF9024
:1002A000CF900895DF92EF92FF920F931F93CF9319
:1002B000DF9380911901882381F10F2EF9E1EF2E50
:1002C000F1E0FF2EF02D0F2EFBE0DF2EF02DF89445
:1002D000D7011796ED91FC911897C085D185CE0175
:1002E0000E960E94B40578948E010E5F1F4FC801D0
:1002F0000E94B4059A8D80911601891710F490938D
:100300001601D99EC0011124B801825C9E4F0E9443
:100310005605F70180818111DACF0E947A0E009193
:100320000E0110910F012091100130911101DC019B
:10033000CB01801B910BA20BB30B80930A0190930E
:100340000B01A0930C01B0930D010F2EFBE0FF2ECB
:10035000F02D8FC040911201509113016091140152
:10036000709115014F5F5F4F6F4F7F4F40931201A8
:100370005093130160931401709315010197A10923
:10038000B10980930A0190930B01A0930C01B093E3
:100390000D01452B462B472B81F48091260190912E
:1003A00027012091240130912501309327012093CA
:1003B00026019093250180932401E0912601F0917C
:1003C00027018081882309F454C00780F085E02D3F
:1003D000C085D1854A815B816C817D8180911201CC
:1003E00090911301A0911401B09115018417950704
:1003F000A607B70708F43DC016C00780F085E02DBA
:10040000C085D1854A815B816C817D81809112019B
:1004100090911301A0911401B091150184179507D3
:10042000A607B70730F1F8948E010E5F1F4FC80181
:100430000E94B405888D998D892B21F0CE010E96EE
:100440000E94B40578949A8D80911601891710F452
:1004500090931601F99EC0011124B801825C9E4F51
:100460000E945605E0912601F091270180818111BB
:10047000C4CF80910A0190910B01A0910C01B09121
:100480000D010097A105B10509F064CF809112011B
:1004900090911301A0911401B091150180930E0168
:1004A00090930F01A0931001B09311018091160158
:1004B000282F30E09BE0899FF0011124E25CFE4F81
:1004C0009081911119C0882309F44CC04BE005C0FC
:1004D000811103C01092160145C08150282F30E0D1
:1004E000429FF001439FF00D1124E25CFE4F90818A
:1004F000992371F3809316014BE0429FC001439F03
:10050000900D1124DC01A25CBE4F1196ED91FC917F
:1005100012970480F581E02D1296FC93EE931197CB
:100520008F5B9E4FE817F90729F484819581FD01BF
:10053000928381838BE0829FF001839FF00D1124D1
:10054000E25CFE4F0180F281E02D808591859093E1
:10055000180180931701DC01ED91FC9111975B96D6
:100560006C910995DF91CF911F910F91FF90EF90C2
:10057000DF9008950F931F93CF93DF93DC011796BD
:10058000ED91FC911897C085D1858E01025F1F4FB8
:10059000C8010E94B405B80189E191E00E945605A6
:1005A000E0911701F091180181E02A8D928D2917B1
:1005B00008F480E0DF91CF911F910F910895CF93C0
:1005C000DF938FE090E00E945A07EC01009741F022
:1005D000FC011192119211921192CF010E944105DA
:1005E000CE01DF91CF9108952F923F924F925F926B
:1005F0006F927F928F929F92AF92BF92CF92DF9233
:10060000EF92FF920F931F93CF93DF93EC014A0178
:100610005B01622E702E0E94740E288039804A8001
:100620005B8001110DC081E0B501A401422153217D
:1006300064217521452B462B472B79F480E00DC0B2
:1006400081E0B501A4014221532164217521841662
:100650009506A606B70609F080E0882381F066209B
:1006600009F46CC080949094A094B094822093205C
:10067000A420B52088829982AA82BB825FC0C1145F
:10068000D104E104F10409F459C0662029F040E0E6
:1006900050E060E071E003C040E050E0BA0171104A
:1006A0007460482959296A297B2997018601CE015E
:1006B00004960E9451110E94600F811102C00E9495
:1006C00081060E948E1291FD35C00FB6F8940F92EC
:1006D000688179818A819B8171100DC021E075014B
:1006E0006401C622D722E822F922CD28CE28CF28BD
:1006F00079F420E00DC021E075016401C622D72203
:10070000E822F9228C149D04AE04BF0409F020E015
:10071000222371F0662061F080949094A094B094AC
:1007200086229722A822B92288829982AA82BB8235
:100730000F900FBE1B012C01552402C00E94600FB8
:10074000C201B101DF91CF911F910F91FF90EF9006
:10075000DF90CF90BF90AF909F908F907F906F90E1
:100760005F904F903F902F9008950F931F930FB677
:10077000F8940F92FC010081118122813381409510
:1007800050956095709540235123622373234083D5
:100790005183628373830F900FBEC901B8011F910B
:1007A0000F910895FC016081718182819381089588
:1007B0004F925F926F927F928F929F92AF92BF9271
:1007C000CF92DF92EF92FF920F931F93CF93DF931D
:1007D000EC016A017B018C01095F1F4F0E94740EBE
:1007E000EB85FC8588819981AA81BB81C82AD92A99
:1007F000EA2AFB2AC882D982EA82FB820E171F07E7
:1008000009F445C0C12CD12C760199249394812CF4
:10081000A480B5804081518162817381DB01CA016E
:10082000BB2772FD0FC0488059806A807B804822B8
:1008300059226A227B22292D45284628472889F4F7
:10084000282D0FC0488059806A807B804822592219
:100850006A227B22292D84159505A605B70509F086
:10086000282D222371F070FF04C0C82AD92AEA2A51
:10087000FB2A488159816A817B817260CF010E9485
:10088000DC11EA2DFB2D0E171F0711F603C0C12C3A
:10089000D12C7601C094D094E094F0948881998111
:1008A000AA81BB81C822D922EA22FB22C882D9822E
:1008B000EA82FB820E94600F688179818A819B8134
:1008C000DF91CF911F910F91FF90EF90DF90CF902C
:1008D000BF90AF909F908F907F906F905F904F9060
:1008E00008952F923F924F925F926F927F928F92D4
:1008F0009F92AF92BF92CF92DF92EF92FF920F93AF
:100900001F93CF93DF9300D000D0CDB7DEB71C018B
:1009100049835A836B837C83480159010E94740E7A
:10092000D1014D905D906D907C9049815A816B8191
:100930007C81C1010E94D80389819A81AB81BC81ED
:10094000482A592A6A2A7B2AD301C201882199217F
:10095000AA21BB2188159905AA05BB0591F48095AC
:100960009095A095B095F10140815181628173818C
:1009700084239523A623B72380839183A283B38303
:1009800044C0C114D104E104F10471F0970186015F
:10099000B501A4017560C10104960E9451110E9425
:1009A000600F811109C006C0D1014D905D906D901E
:1009B0007C902BC00E9481060E948E1291FD21C066
:1009C0000FB6F8940F92F101608171818281938159
:1009D00075016401C622D722E822F922C814D9047D
:1009E000EA04FB0461F4C094D094E094F094C6222D
:1009F000D722E822F922C082D182E282F3820F90CC
:100A00000FBE2B013C01772402C00E94600FC3017E
:100A1000B2010F900F900F900F90DF91CF911F9127
:100A20000F91FF90EF90DF90CF90BF90AF909F908D
:100A30008F907F906F905F904F903F902F90089590
:100A4000CF93DF93EC010E94740E8C81882359F0C0
:100A500040E050E060E072E08B859C850E94DC11F4
:100A60008C818111F5CFCE010E948F070E94600F0B
:100A7000DF91CF9108950E94D80308950E94B50395
:100A80000895FC010396928381834FEF5FEFBA01D3
:100A90004383548365837683908787839287818796
:100AA00010820895FC01138612860895CF93DF9378
:100AB0009C01FB01DC011196CD91DC911297D5834D
:100AC000C4838E819F81978386838E819F81DC0181
:100AD00015967C936E9314977F836E83338722875A
:100AE000F90180818F5F8083DF91CF9108950F930B
:100AF0001F93CF93DF93EB01088119812A813B81FA
:100B00000F3F4FEF14072407340721F4FC01A185A0
:100B1000B28511C0DC01139601C0DF011496ED917E
:100B2000FC911597408151816281738104171507EB
:100B30002607370790F71496ED91FC911597FD83E2
:100B4000EC83D783C683BF83AE831596DC93CE93A5
:100B500014979B878A87FC0120812F5F2083DF9178
:100B6000CF911F910F910895CF93DF93FC01A28540
:100B7000B385C481D581868197819F838E83C68109
:100B8000D781848195819D838C831196CD91DC9151
:100B90001297CE17DF0731F48E819F8112969C93B6
:100BA0008E931197138612868C9181508C93DF91CE
:100BB000CF91089531E1FC013083319722E2208307
:100BC0003197A3E3A0833197608331977083319786
:100BD0001082319760E8608331971082319762E02C
:100BE0006083319763E06083319764E0608331977D
:100BF00065E06083319766E06083319767E06083EA
:100C0000319768E06083319769E06083319760E1F4
:100C1000608331973083319732E13083319733E10C
:100C20003083319734E13083319735E13083319728
:100C300036E13083319737E13083319738E13083C3
:100C4000319739E13083319730E23083319731E2A7
:100C5000308331972083319723E22083319740837B
:100C600031975083319726E22083319727E2208302
:100C7000319728E22083319729E22083319720E3BE
:100C80002083319721E3208386970895109289006D
:100C900089EF809388008BE080938100EFE6F0E09D
:100CA000808180618083A0917F07B0918007CD9182
:100CB000CDBFDD91DEBFFF91EF91DF91CF91BF916D
:100CC000AF919F918F917F916F915F914F913F91E4
:100CD0002F911F910F91FF90EF90DF90CF90BF90D9
:100CE000AF909F908F907F906F905F904F903F90CC
:100CF0002F901F900F900FBE0F90089581E00895E0
:100D000008950F920FB6F8940F921F9211242F920C
:100D10003F924F925F926F927F928F929F92AF928B
:100D2000BF92CF92DF92EF92FF920F931F932F9378
:100D30003F934F935F936F937F938F939F93AF9363
:100D4000BF93CF93DF93EF93FF93A0917F07B09171
:100D500080070DB60D920EB60D920E946810A091FC
:100D60007F07B0918007CD91CDBFDD91DEBFFF91B0
:100D7000EF91DF91CF91BF91AF919F918F917F9133
:100D80006F915F914F913F912F911F910F91FF9024
:100D9000EF90DF90CF90BF90AF909F908F907F901B
:100DA0006F905F904F903F902F901F900F900FBECD
:100DB0000F9008950F920FB6F8940F921F9211247E
:100DC0002F923F924F925F926F927F928F929F925B
:100DD000AF92BF92CF92DF92EF92FF920F931F9349
:100DE0002F933F934F935F936F937F938F939F9333
:100DF000AF93BF93CF93DF93EF93FF93A0917F07C0
:100E0000B09180070DB60D920EB60D920E94940E11
:100E100081110E946810A0917F07B0918007CD9149
:100E2000CDBFDD91DEBFFF91EF91DF91CF91BF91FB
:100E3000AF919F918F917F916F915F914F913F9172
:100E40002F911F910F91FF90EF90DF90CF90BF9067
:100E5000AF909F908F907F906F905F904F903F905A
:100E60002F901F900F900FBE0F9008951F920F921A
:100E70000FB60F9211242F933F934F935F936F936D
:100E80007F938F939F93AF93BF93EF93FF930E94B2
:100E9000940EFF91EF91BF91AF919F918F917F91B0
:100EA0006F915F914F913F912F910F900FBE0F90D7
:100EB0001F901895CF93DF93EC010E94740E8091E0
:100EC000540190915501892B31F489E591E090937B
:100ED0005501809354012091560130915701CE0164
:100EE000820F931F8B3D45E0940770F42817390754
:100EF00070F4C0915401D0915501C20FD31F90934B
:100F000057018093560105C0C0E0D0E002C0C0E0A8
:100F1000D0E00E94600FCE01DF91CF910895089537
:100F20001092570110925601089520915601309168
:100F300057018BED95E0821B930B08951F93CF9380
:100F4000DF93EC01142F88A18823E9F1411117C028
:100F5000482F50E08C819D810E94D31528A18C815F
:100F60009D81820F911D9D838C832A813B818217F5
:100F7000930748F1888199819D838C8324C0482FF1
:100F800050E08E819F810E94D31588A190E09195B9
:100F9000819591092E813F81280F391F3F832E8330
:100FA000488159812417350730F42A813B81820F0B
:100FB000931F9F838E83123031F48E8D882319F016
:100FC0008E8D81508E8F8E8D8F5F8E8F80E0DF9122
:100FD000CF911F910895FC0140A14423A9F050E056
:100FE00026813781240F351F3783268382819381A1
:100FF0002817390720F08081918197838683CB0160
:10100000668177810E94D31508950F931F93CF9324
:10101000DF93EC010FB6F8940F928AA11816BCF476
:101020008B89811105C013C09B89911104C00FC029
:101030008E010D5E1F4FC8010E949A1181110E94FE
:101040008A129AA191509AA39AA119166CF38FEF64
:101050008AA30F900FBE0FB6F8940F9289A11816AD
:10106000BCF48885811105C013C09885911104C016
:101070000FC08E01085F1F4FC8010E949A11811195
:101080000E948A1299A1915099A399A119166CF303
:101090008FEF89A30F900FBEDF91CF911F910F911A
:1010A0000895CF93DF93EC010FB6F8940F92488127
:1010B000598128A130E07F8D729FC001739F900DF0
:1010C0001124FA01E80FF91FFB83EA831E8E5D836A
:1010D0004C83821B930B840F951F9F838E838FEF0E
:1010E00089A38AA3611108C08885882369F0CE018D
:1010F00008960E949A1108C0CE0108960E944105E8
:10110000CE0143960E9441050F900FBE81E0DF9112
:10111000CF9108950F931F93CF93DF93082F162F2E
:101120006623B9F0869FC001112484960E945A0755
:10113000EC01009721F414C0D983C88303C08396BF
:10114000998388830F8F18A361E0CE010E94510814
:1011500007C083E290E00E945A07EC01892B61F7F7
:10116000CE01DF91CF911F910F9108959F92AF9281
:10117000BF92CF92DF92EF92FF920F931F93CF9384
:10118000DF93CDB7DEB729970FB6F894DEBF0FBE59
:10119000CDBF7C015B012E833F834887598710E0D8
:1011A000992493946C0188E0C80ED11C0FB6F89472
:1011B0000F92F701268D978D291710F0023089F4D0
:1011C000402FB501C7010E949E07F701838988233C
:1011D00021F0C70143960E949A110F900FBE81E043
:1011E00056C08E819F81A885B985892B8A2B8B2B30
:1011F00021F40F900FBE80E04AC0111105C0CE014E
:1012000001960E941212192D0F900FBE0E94740EAB
:101210000FB6F8940F92F70181A18F3F09F411A244
:10122000F70182A18F3F09F412A20F900FBEBE01F9
:101230006A5F7F4FCE0101960E942312811121C067
:101240000FB6F8940F92F701968D0F900FBE878D11
:10125000981311C04E815F8168857985C6010E940F
:101260001511C7010E9405080E94600F81119ECFD1
:101270000E9481069BCFC7010E9405080E94600F53
:1012800095CFC7010E9405080E94600F80E0299653
:101290000FB6F894DEBF0FBECDBFDF91CF911F9187
:1012A0000F91FF90EF90DF90CF90BF90AF909F9005
:1012B00008950F931F93CF93DF93FA01DC015E969D
:1012C0005C915E975F963C91531710F02230E9F4E1
:1012D000422F8F01EC010E949E078AA18F3F81F46B
:1012E0008B898823A1F0CE0143960E949A1188230E
:1012F00081F00115110579F081E0F80180830CC0BF
:101300008AA18F5F8AA381E007C080E005C081E0E9
:1013100003C081E001C081E0DF91CF911F910F9167
:101320000895CF93DF93FC01968D878D9817D0F4A5
:10133000868D8F5F868F82A18F3F79F48389882382
:1013400099F0EB01CF0143960E949A11882371F026
:10135000209771F081E088830CC082A18F5F82A307
:1013600081E007C080E005C081E003C081E001C0EA
:1013700081E0DF91CF9108959F92AF92BF92CF927B
:10138000DF92EF92FF920F931F93CF93DF93CDB72E
:10139000DEB729970FB6F894DEBF0FBECDBF7C0134
:1013A0005B012E833F834887598710E099249394EB
:1013B0006C0183E1C80ED11C0FB6F8940F92F701AF
:1013C000968D992311F1C680D780B501C7010E947F
:1013D000EB0701110CC0F701868D8150868F808547
:1013E000882379F0C70108960E949A110AC0F70174
:1013F000D782C6828389882321F0C70143960E9441
:101400009A110F900FBE81E055C08E819F81A885F3
:10141000B985892B8A2B8B2B21F40F900FBE80E08E
:1014200049C0111105C0CE0101960E941212192D5A
:101430000F900FBE0E94740E0FB6F8940F92F70132
:1014400081A18F3F09F411A2F70182A18F3F09F416
:1014500012A20F900FBEBE016A5F7F4FCE010196B0
:101460000E942312811120C00FB6F8940F92F70149
:10147000868D0F900FBE811111C04E815F816885EE
:101480007985C6010E941511C7010E9405080E94B6
:10149000600F811191CF0E9481068ECFC7010E94FB
:1014A00005080E94600F88CFC7010E9405080E94AE
:1014B000600F80E029960FB6F894DEBF0FBECDBF57
:1014C000DF91CF911F910F91FF90EF90DF90CF9020
:1014D000BF90AF909F9008950F931F93CF93DF938A
:1014E000FC01268D2223F9F08A01EC010E94EB0712
:1014F0008E8D81508E8F89A18F3F81F488858823BE
:10150000A1F0CE0108960E949A11882381F001155E
:10151000110579F081E0F80180830CC089A18F5F0B
:1015200089A381E007C080E005C081E003C081E0BD
:1015300001C081E0DF91CF911F910F9108950F932A
:101540001F93CF93DF93FC01268D222349F0EC01FA
:10155000068117810E94EB071F830E8381E001C083
:1015600080E0DF91CF911F910F9108950FB6F8940D
:101570000F92FC01868D0F900FBE08950FB6F89460
:101580000F92FC01268D0F900FBE878D821B089550
:10159000FC01868D08950E948F070895FC01968DA9
:1015A00081E0911180E00895FC01268D81E0978D06
:1015B000291380E008950F931F93CF93DF93EC01DD
:1015C00089019A01F8940FB6F8940F929E8D8F8D31
:1015D0000F900FBE981312C001151105210531059A
:1015E00051F0AE01485F5F4FC901B8010E94FE0093
:1015F00078948CEF1DC0789480E01AC07894F894A9
:101600009E8D981778F440E0CE010E949E078B894A
:10161000882351F0CE0143960E94BA02882331F00C
:101620008BEF05C080E003C081E001C081E07894C9
:10163000DF91CF911F910F9108950F931F93CF9337
:10164000DF93EC01FB0189019A01F8949E8D9111C1
:1016500012C0011511052105310551F0AE014D5E95
:101660005F4FC901B8010E94FE0078948CEF32C030
:10167000789480E02FC07894F8948E8D882321F19F
:1016800048A150E08E819F81840F951F9F838E8398
:101690002A813B818217930720F0888199819F835B
:1016A0008E838E8D81508E8F6E817F81CF010E94BF
:1016B000D3158885882351F0CE0108960E94BA027E
:1016C000882331F08BEF05C080E003C081E001C0CA
:1016D00081E07894DF91CF911F910F9108950F933E
:1016E0001F93CF93FC01368D278D3217B8F4C42F8A
:1016F0008C0140E00E949E07C1110DC0F801838952
:10170000882359F0C80143960E94BA0241E0811132
:1017100005C040E003C04C2F01C040E0842FCF91B2
:101720001F910F9108950F931F93CF93DF93FC01A7
:10173000868D882369F120A130E0A681B781A20FB0
:10174000B31FB783A68382819381A817B90720F0BE
:1017500080819181978386838A01CB01EF01468D39
:101760004150468F66817781A9010E94D315F80107
:10177000808181110FC08885882371F0CE01089681
:101780000E94BA02882351F081E0F801808307C0EB
:1017900080E005C081E003C081E001C081E0DF910D
:1017A000CF911F910F910895E0915C07F0915D0733
:1017B000808181110CC08FEF9FEFDC018093350792
:1017C00090933607A0933707B09338070895E091B8
:1017D0005C07F0915D070780F085E02D0084F185BE
:1017E000E02D82819381A481B58180933507909308
:1017F0003607A0933707B093380708950E948106F3
:10180000FDCFCF92DF92EF92FF926B017C01E091CE
:101810007F07F0918007628373838483958380912F
:101820003F0790914007A0914107B0914207C81629
:10183000D906EA06FB0668F460917F07709180077D
:1018400080915A0790915B076E5F7F4F0E947705EA
:1018500021C060917F077091800780915C07909113
:101860005D076E5F7F4F0E947705809135079091ED
:101870003607A0913707B0913807C816D906EA068F
:10188000FB0640F4C0923507D0923607E092370746
:10189000F0923807FF90EF90DF90CF9008954F922D
:1018A0005F926F927F928F929F92AF92BF92CF92F0
:1018B000DF92EF92FF920F93CF93DF934C01EB01F6
:1018C0005A012901C114D10439F4CA010E945A07EE
:1018D0006C01892B09F4A0C08AE290E00E945A07AB
:1018E0003C01009779F0FC01D48EC38EF1E0AF1A71
:1018F000B108CA0CDB1C8881F301858F88818111B6
:1019000005C014C0C6010E948F0786C0D3015E9631
:10191000FE0131969E01285F3F4FEF0181918D932B
:101920008881882319F0E217F307B9F7F30114A2AD
:10193000128EE3012296CE010E945205C3010E963B
:101940000E945205F3017386628681E090E0A0E078
:10195000B0E086879787A08BB18B778A668A15A2BD
:1019600016A217A210A611A6A201B401C6010E94D8
:10197000DA05F30191838083E114F10419F0F70192
:10198000718260820FB6F8940F92809143078F5F47
:101990008093430780917F0790918007892B49F4BA
:1019A0007092800760927F0780914307813081F4B5
:1019B00035C080913D0781110BC0E0917F07F09108
:1019C0008007828D081720F07092800760927F0751
:1019D000809139078F5F80933907F301828D909151
:1019E0003E07981710F480933E07FBE08F9FC001DD
:1019F0001124BE018C58984F0E9456050F900FBEBF
:101A000080913D07882331F080917F079091800776
:101A100081E025C081E023C08FEF21C084E797E0FB
:101A20000E94410589E697E00E9441058EE597E016
:101A30000E9441058FE497E00E94410584E497E00D
:101A40000E94410589E697E090935D0780935C07CB
:101A50008EE597E090935B0780935A07B9CFDF91AB
:101A6000CF910F91FF90EF90DF90CF90BF90AF900C
:101A70009F908F907F906F905F904F9008950FB6DA
:101A8000F8940F92009721F480917F07909180073E
:101A90000F900FBEFC01828D0895009721F4809174
:101AA0007F0790918007FC01828D08950F931F930B
:101AB000CF93DF93EC010FB6F8940F92892B21F4AA
:101AC000C0917F07D09180072A8D2223A1F18091B8
:101AD0007F07909180071A8E8E859F85A889B98986
:101AE000BB2344F081E090E0A0E0B0E08E879F87C8
:101AF000A88BB98B8BE0289F900111242C58384F6C
:101B00008C859D8582179307B1F48E010E5F1F4F60
:101B1000C8010E94B4059A8D80913E07891710F480
:101B200090933E072BE0929FC0011124B8018C587E
:101B3000984F0E9456050F900FBEDF91CF911F91D5
:101B40000F9108950F931F93CF93DF930097B1F1F7
:101B500020917F07309180078217930779F10FB6A4
:101B6000F8940F92FC01248535852454374021F5E3
:101B7000FC01208D318DF7E02F343F07E9F0232B56
:101B8000D9F4EC018C010E5F1F4FC8010E94B4050F
:101B90009A8D80913E07891710F490933E072BE0B1
:101BA000929FC0011124B8018C58984F0E9456058D
:101BB00080917F07909180070F900FBEDF91CF91AA
:101BC0001F910F910895EF92FF921F93CF93DF9390
:101BD000FC012485358524543740C9F5FC01208D4E
:101BE000318DF7E02F343F07A1F1232BA1F5EC0154
:101BF00080913407811122C0E0917F07F091800726
:101C000011E09A8D828D981708F410E07E0122E091
:101C1000E20EF11CC7010E94B4059A8D80913E0727
:101C2000891710F490933E074BE0949FC001112454
:101C3000B7018C58984F0E9456050EC0BE01625FD6
:101C40007F4F8FE497E00E94560510E005C010E03A
:101C500003C010E001C010E0812FDF91CF911F91F0
:101C6000FF90EF900895AF92BF92CF92DF92EF92E4
:101C7000FF920F93A12CB12CC12CD12CE12CF12C73
:101C800000E020E030E045E550E064E071E08EEFF8
:101C90009BE00E944F0C8130C9F4F8948FEF9FEFC6
:101CA000DC018093350790933607A0933707B093F4
:101CB000380781E080933D0710923F07109240075C
:101CC00010924107109242070E9446060F91FF9022
:101CD000EF90DF90CF90BF90AF900895F89410925E
:101CE0003D070E9480060895809134078F5F80939E
:101CF000340708950FB6F8940F9260913F077091E2
:101D0000400780914107909142070F900FBE0895C0
:101D100060913F0770914007809141079091420781
:101D20000895809143070895BF92CF92DF92EF927A
:101D3000FF920F931F93CF93DF938091340781110C
:101D4000AFC080913F0790914007A0914107B091AB
:101D500042070196A11DB11D80933F079093400754
:101D6000A0934107B0934207C0903F07D09040072F
:101D7000E0904107F0904207C114D104E104F1045E
:101D8000B9F480915C0790915D0720915A073091DA
:101D90005B0730935D0720935C0790935B0780930C
:101DA0005A0780913A078F5F80933A070E94D40BBD
:101DB0008091350790913607A0913707B091380789
:101DC000C816D906EA06FB0608F46FC0E0915C0766
:101DD000F0915D0780818823B9F0E0915C07F09174
:101DE0005D070780F085E02DC085D1858A819B81C4
:101DF000AC81BD81C816D906EA06FB0618F10F2E84
:101E0000FBE0BF2EF02D27C08FEF9FEFDC0180930A
:101E1000350790933607A0933707B093380745C02E
:101E2000E0915C07F0915D070780F085E02DC085AB
:101E3000D1858A819B81AC81BD81C816D906EA060D
:101E4000FB0648F48093350790933607A093370735
:101E5000B09338072AC08E010E5F1F4FC8010E9441
:101E6000B405888D998D892B21F0CE010E960E94A4
:101E7000B4059A8D80913E07891710F490933E0720
:101E8000B99EC0011124B8018C58984F0E94560584
:101E9000E0915C07F0915D0780818111C1CFB4CFE3
:101EA00080913C078F5F80933C0780E0DF91CF916A
:101EB0001F910F91FF90EF90DF90CF90BF9008950A
:101EC000CF92DF92EF92FF920F931F93CF93DF9306
:101ED0000FB6F8940F9280913407815080933407A5
:101EE00080913407811159C08091430781112CC022
:101EF00054C0D7011796ED91FC911897C085D185F4
:101F0000CE010E960E94B4058E010E5F1F4FC801D0
:101F10000E94B4059A8D80913E07891710F4909322
:101F20003E07D99EC0011124B8018C58984F0E94D9
:101F30005605E0917F07F09180079A8D828D981762
:101F400078F0C0923B070CC00F2EFFE4EF2EF7E0B5
:101F5000FF2EF02D0F2EFBE0DF2EF02DCC24C394AE
:101F6000F70180818111C5CF80913C07882399F0CA
:101F700080913C07882379F0C1E00E94940E811182
:101F8000C0933B0780913C07815080933C07809130
:101F90003C078111F2CF80913B070F900FBE80E08C
:101FA000DF91CF911F910F91FF90EF90DF90CF9035
:101FB0000895CF92DF92EF92FF920F931F93CF93EA
:101FC000DF93EC016A017B010E94740E80913F0750
:101FD00090914007A0914107B09142070881198173
:101FE0002A813B81C00ED11EE21EF31E801791078D
:101FF000A207B30778F4C016D106E206F30660F52F
:10200000C882D982EA82FB828C159D05AE05BF0588
:10201000B8F40BC0C016D106E206F306C0F08C156A
:102020009D05AE05BF0598F017C080917F07909180
:10203000800702960E94B405C701B6010E94010CF8
:102040000E94600F81110DC00E9481060AC0C882E3
:10205000D982EA82FB82E9CFC882D982EA82FB82F6
:10206000EFCFDF91CF911F910F91FF90EF90DF9015
:10207000CF900895CF92DF92EF92FF926B017C0197
:10208000672B682B692BE9F00E94740E80913F0743
:1020900090914007A0914107B0914207C80ED91E08
:1020A000EA1EFB1E80917F079091800702960E9496
:1020B000B405C701B6010E94010C0E94600F811196
:1020C00002C00E948106FF90EF90DF90CF900895AC
:1020D00080913407882321F081E080933B070895A5
:1020E00010923B07E0913E074BE0E49FF001112482
:1020F000EC58F84F8081811110C09BE080913E0721
:10210000815080933E07E0913E079E9FF00111248D
:10211000EC58F84F8081882389F380913E07282F5F
:1021200030E04BE0849FC0011124DC01AC58B84F73
:102130001196ED91FC9112970480F581E02D129695
:10214000FC93EE9311978958984FE817F90761F4BB
:10215000848195814BE0429FF001439FF00D112453
:10216000EC58F84F928381838BE0829FF001839F2C
:10217000F00D1124EC58F84F0180F281E02D80859C
:1021800091859093800780937F0708950F931F9305
:10219000CF93DF93EC010FB6F8940F92892B21F4C3
:1021A000C0917F07D09180078E010E5F1F4FC8013D
:1021B0000E94B405888D998D892B21F0CE010E9651
:1021C0000E94B405B80184E497E00E9456050F9080
:1021D0000FBE80917F0790918007C817D907A9F497
:1021E00080913D07882319F00E94810619C08091D3
:1021F000430790914407981305C0109280071092EE
:102200007F070EC00E9468100BC080913D07882395
:1022100039F00FB6F8940F920E94D40B0F900FBEB6
:10222000DF91CF911F910F910895CF92DF92EF929E
:10223000FF926A017B0120917F0730918007B901ED
:10224000625F7F4F0E94770580917F0790918007A2
:1022500002960E94B4058FEFC816D806E806F80665
:1022600059F460917F07709180076E5F7F4F84E41F
:1022700097E00E94560510C080913F07909140075B
:10228000A0914107B0914207BC01CD016C0D7D1DAD
:102290008E1D9F1D0E94010CFF90EF90DF90CF904C
:1022A0000895CF92DF92EF92FF920F931F936801F0
:1022B0007901E0917F07F091800770684687578722
:1022C000608B718B20917F0730918007B901625F2D
:1022D0007F4F0E94560580917F079091800702965C
:1022E0000E94B4058FEFC816D806E806F80659F420
:1022F00060917F07709180076E5F7F4F84E497E065
:102300000E94560510C080913F0790914007A09110
:102310004107B0914207BC01CD016C0D7D1D8E1DA2
:102320009F1D0E94010C1F910F91FF90EF90DF9075
:10233000CF9008950F931F93CF93DF93DC011796EF
:10234000ED91FC911897C085D1858E01025F1F4FDA
:10235000C8010E94B40580913407811116C00C5049
:102360001109C8010E94B4059A8D80913E07891712
:1023700010F490933E07BBE09B9FC0011124B8016D
:102380008C58984F0E94560505C0B8018FE497E01D
:102390000E945605E0917F07F09180079A8D828D0B
:1023A000891720F481E080933B0701C080E0DF9132
:1023B000CF911F910F9108950F931F93CF93DF93A8
:1023C0007068FC014083518362837383C085D1852B
:1023D0000E94B4058E010E5F1F4FC8010E94B40514
:1023E0009A8D80913E07891710F490933E07FBE089
:1023F0009F9FC0011124B8018C58984F0E94560528
:10240000E0917F07F09180079A8D828D891720F4E3
:1024100081E080933B0701C080E0DF91CF911F9165
:102420000F91089520913A07FC01208340913F07C6
:102430005091400760914107709142074183528358
:102440006383748308958F929F92AF92BF92CF92CD
:10245000DF92EF92FF920F931F93CF93DF93FB01D5
:102460000FB6F8940F9200913F071091400720910A
:1024700041073091420740815181628173814F3F12
:10248000AFEF5A076A077A0789F1A0913A07EC0182
:10249000B881BA1749F0C980DA80EB80FC800C154E
:1024A0001D052E053F0520F5DC011196CD90DD9030
:1024B000ED90FC901497480159018C189D08AE08C6
:1024C000BF0884169506A606B706A0F4C01AD10A5E
:1024D000E20AF30A4C0D5D1D6E1D7F1D4083518382
:1024E000628373830E94121280E005C080E003C003
:1024F00081E001C081E00F900FBEDF91CF911F916D
:102500000F91FF90EF90DF90CF90BF90AF909F9092
:102510008F90089581E080933B070895CF92DF92DA
:10252000EF92FF92E0917F07F091800766857785B3
:1025300080899189E0917F07F0918007A0917F07C2
:10254000B09180075A962C91C12CD12C7601C3945E
:10255000C21AD108E108F108C686D786E08AF18A56
:10256000FF90EF90DF90CF900895CF92DF92EF929F
:10257000FF920F931F93CF93C82F6A017B010FB671
:10258000F8940F92E0917F07F091800705A116A1C2
:1025900027A130A5012B022B032BA1F5E0917F078A
:1025A000F091800781E081A7452B462B472B51F105
:1025B00080917F079091800702960E94B4058FEF6B
:1025C000C816D806E806F80659F460917F0770919E
:1025D00080076E5F7F4F84E497E00E94560510C02D
:1025E00080913F0790914007A0914107B091420729
:1025F000BC01CD016C0D7D1D8E1D9F1D0E94010C27
:102600000E9481060F900FBE0FB6F8940F92E091D2
:102610007F07F091800765A176A187A190A561153C
:10262000710581059105D9F0CC2349F0E0917F0730
:10263000F091800715A216A217A210A610C0E09173
:102640007F07F091800705A116A127A130A50150B1
:1026500011092109310905A316A327A330A7E09189
:102660007F07F091800711A60F900FBECF911F91A9
:102670000F91FF90EF90DF90CF9008954F925F926F
:102680006F927F928F929F92AF92BF92CF92DF9282
:10269000EF92FF920F931F9349015A010FB6F894DE
:1026A0000F92E0917F07F091800721A5223009F475
:1026B0004BC0E0917F07F091800745A056A067A02E
:1026C00070A4DC01CB0180959095A095B0958421F4
:1026D0009521A621B72185A396A3A7A3B0A7E09132
:1026E0007F07F091800781E081A7C114D104E10444
:1026F000F10451F180917F079091800702960E942A
:10270000B4058FEFC816D806E806F80659F46091AC
:102710007F07709180076E5F7F4F84E497E00E948F
:10272000560510C080913F0790914007A091410746
:10273000B0914207BC01CD016C0D7D1D8E1D9F1D0A
:102740000E94010C0E9481060F900FBE0FB6F894F4
:102750000F920115110569F0E0917F07F091800754
:1027600085A196A1A7A1B0A5F80180839183A2833A
:10277000B383E0917F07F091800781A58130B1F0AC
:10278000E0917F07F091800785A196A1A7A1B0A550
:1027900080949094A094B09488229922AA22BB227B
:1027A00085A296A2A7A2B0A681E001C080E0E09138
:1027B0007F07F091800711A60F900FBE1F910F9118
:1027C000FF90EF90DF90CF90BF90AF909F908F9051
:1027D0007F906F905F904F9008950F931F93CF93CA
:1027E000DF93FC010FB6F8940F920115110549F023
:1027F00085A196A1A7A1B0A5E80188839983AA83A2
:10280000BB8381A592E091A72230B1F018F421306A
:1028100031F02AC02330E9F0243001F125C005A1B0
:1028200016A127A130A5402B512B622B732B45A35A
:1028300056A367A370A718C045A156A167A170A5AC
:102840004F5F5F4F6F4F7F4F45A356A367A370A79E
:102850000BC045A356A367A370A706C0823019F129
:1028600045A356A367A370A78130F9F4EF018F0148
:102870000E5F1F4FC8010E94B4059A8D80913E07DC
:10288000891710F490933E07DBE09D9FC00111244F
:10289000B8018C58984F0E94560580917F079091FF
:1028A000800781E003C080E001C081E00F900FBE8F
:1028B000DF91CF911F910F910895EF92FF920F93A7
:1028C0001F93CF93DF93FC010115110549F085A1FA
:1028D00096A1A7A1B0A5E80188839983AA83BB83A9
:1028E00081A592E091A72230B1F018F4213031F0A7
:1028F0002AC02330E9F0243001F125C005A116A13A
:1029000027A130A5402B512B622B732B45A356A337
:1029100067A370A718C045A156A167A170A54F5F16
:102920005F4F6F4F7F4F45A356A367A370A70BC0A0
:1029300045A356A367A370A706C08230C1F145A383
:1029400056A367A370A78130A1F5EF0180913407EA
:10295000811117C08F010E5F1F4FC8010E94B4057F
:102960009A8D80913E07891710F490933E07EBE013
:102970009E9FC0011124B8018C58984F0E945605A3
:1029800007C0BF01625F7F4F8FE497E00E9456054A
:10299000E0917F07F09180079A8D828D891758F416
:1029A000E114F10451F081E0E701888307C080E081
:1029B00005C081E003C081E001C081E0DF91CF91DB
:1029C0001F910F91FF90EF900895EF92FF920F9358
:1029D0001F93CF93DF93FC0121A582E081A785A1FE
:1029E00096A1A7A1B0A50196A11DB11D85A396A38F
:1029F000A7A3B0A7213099F58B01EF01809134078F
:102A0000811118C07F0122E0E20EF11CC7010E9473
:102A1000B4059A8D80913E07891710F490933E0774
:102A2000EBE09E9FC0011124B7018C58984F0E9483
:102A3000560507C0BF01625F7F4F8FE497E00E9499
:102A40005605E0917F07F09180079A8D828D891756
:102A500030F40115110519F081E0F8018083DF9150
:102A6000CF911F910F91FF90EF900895009721F45F
:102A700080917F07909180070FB6F8940F92FC0128
:102A800021A5223019F411A681E001C080E00F9049
:102A90000FBE08958130B9F018F0823039F10895F1
:102AA00084B124B150E0519541955109482781E006
:102AB00090E002C0880F991F6A95E2F748235923D6
:102AC000422744B9089587B127B150E05195419507
:102AD0005109482781E090E002C0880F991F6A954C
:102AE000E2F748235923422747B908958AB12AB10A
:102AF00050E0519541955109482781E090E002C08E
:102B0000880F991F6A95E2F74823592342274AB94B
:102B100008958130B9F018F0823039F1089585B107
:102B200025B150E0519541955109482781E090E049
:102B300002C0880F991F6A95E2F74823592342275C
:102B400045B9089588B128B150E051954195510992
:102B5000482781E090E002C0880F991F6A95E2F74C
:102B600048235923422748B908958BB12BB150E02F
:102B7000519541955109482781E090E002C0880FA6
:102B8000991F6A95E2F74823592342274BB90895C4
:102B9000C1E088B18C2788B968EE73E080E090E0EE
:102BA0000E943A10F6CFFB01DC0102C001900D92A9
:0C2BB00041505040D8F70895F894FFCF32
:0A2BBC004C45440049444C4500001C
:00000001FF
