S019000046726F6E7453656E736F724D6F64756C652E7372656322
S11300000C943E000C945B000C945B000C945B001D
S11300100C945B000C945B000C945B000C945B00F0
S11300200C945B000C945B000C945B000C945B00E0
S11300300C945B000C945B000C945B000C945B00D0
S11300400C945B000C945B000C945B000C945B00C0
S11300500C945B000C945B000C945B000C945B00B0
S11300600C945B000C945B000C945B000C945B00A0
S11300700C945B000C945B000C945B0011241FBE79
S1130080CFEFD0E1DEBFCDBF11E0A0E0B1E0E2ED03
S1130090FCE002C005900D92AA30B107D9F727E021
S11300A0AAE0B1E001C01D92A534B207E1F70E94B5
S11300B05D000C9467060C940000AF92BF92CF923F
S11300C0DF92EF92FF920F93A12CB12CC12CD12C73
S11300D0E12CF12C00E020E030E045E550E060E068
S11300E071E08EE496E00E9496020E94A20380E0F2
S11300F090E00F91FF90EF90DF90CF90BF90AF9082
S11301000895FC010396928381832FEF3FEF34839C
S11301102383968385839087878310820895FC01C7
S1130120118610860895CF93DF939C01FB01DC01B7
S11301301196CD91DC911297D383C2838C819D81DA
S1130140958384838C819D81DC0113967C936E93CB
S113015012977D836C8331872087F90180818F5FBB
S11301608083DF91CF910895CF93DF93EB01488192
S113017059814F3F2FEF520721F4FC01A781B0852D
S11301800DC0DC01139601C0DF011296ED91FC91C4
S113019013972081318142175307B0F71296ED91DE
S11301A0FC911397FB83EA83D583C483BD83AC831B
S11301B01396DC93CE93129799878887FC0120814C
S11301C02F5F2083DF91CF910895CF93DF93FC01BC
S11301D0A085B185C281D381848195819D838C83DF
S11301E0C481D581828193819B838A831196CD9129
S11301F0DC911297CE17DF0731F48C819D81129622
S11302009C938E931197118610868C9181508C93B8
S1130210DF91CF91089531E1FC013083319722E2DF
S113022020833197A3E3A083319760833197708350
S113023031971082319760E860833197108231974B
S113024062E06083319763E06083319764E06083A8
S1130250319765E06083319766E06083319767E0AA
S11302606083319768E06083319769E060833197F8
S113027060E1608331973083319732E13083319785
S113028033E13083319734E13083319735E1308382
S1130290319736E13083319737E13083319738E154
S11302A03083319739E13083319730E230833197AD
S11302B031E2308331972083319723E220833197D1
S11302C0408331975083319726E22083319727E288
S11302D02083319728E22083319729E220833197C4
S11302E020E32083319721E3208386970895109299
S11302F0890089EF809388008BE080938100EFE68A
S1130300F0E0808180618083A0914307B09144072D
S1130310CD91CDBFDD91DEBFFF91EF91DF91CF9104
S1130320BF91AF919F918F917F916F915F914F9109
S11303303F912F911F910F91FF90EF90DF90CF90FD
S1130340BF90AF909F908F907F906F905F904F90F1
S11303503F902F901F900F900FBE0F90089581E053
S113036008950F920FB6F8940F921F9211242F92B2
S11303703F924F925F926F927F928F929F92AF9231
S1130380BF92CF92DF92EF92FF920F931F932F931E
S11303903F934F935F936F937F938F939F93AF9309
S11303A0BF93CF93DF93EF93FF93A0914307B09153
S11303B044070DB60D920EB60D920E94A205A091AF
S11303C04307B0914407CD91CDBFDD91DEBFFF91CE
S11303D0EF91DF91CF91BF91AF919F918F917F91D9
S11303E06F915F914F913F912F911F910F91FF90CA
S11303F0EF90DF90CF90BF90AF909F908F907F90C1
S11304006F905F904F903F902F901F900F900FBE72
S11304100F900895CF93DF93EC010E94D403809151
S11304200A0190910B01892B31F48FE091E09093B4
S11304300B0180930A0120910C0130910D01CE0132
S1130440820F931F8B3D45E0940770F428173907FA
S113045070F4C0910A01D0910B01C20FD31F909385
S11304600D0180930C0105C0C0E0D0E002C0C0E0E3
S1130470D0E00E94A104CE01DF91CF9108950895A8
S1130480E0910B07F0910C078081811107C08FEF79
S11304909FEF9093EC068093EB060895E0910B0791
S11304A0F0910C070580F681E02D0680F781E02DA0
S11304B0828193819093EC068093EB060895CF9309
S11304C0DF93EC01E0914307F09144079383828327
S11304D08091F3069091F406C817D90768F46091E7
S11304E04307709144078091090790910A076E5F52
S11304F07F4F0E94B40017C0609143077091440776
S113050080910B0790910C076E5F7F4F0E94B4009F
S11305108091EB069091EC06C817D90720F4D0938C
S1130520EC06C093EB06DF91CF9108954F925F9252
S11305306F927F928F929F92AF92BF92CF92DF92EF
S1130540EF92FF920F931F93CF93DF934C01EB0134
S11305505A012901C114D10439F4CA010E940A02C2
S11305606C01892B09F4DCC086E290E00E940A0247
S11305703C01009779F0FC01D08EC78AF1E0AF1AF4
S1130580B108CA0CDB1C8881F301818F8881811139
S113059005C014C0C6010E943F02C2C0D3015A96CE
S11305A0FE0131969E01285F3F4FEF0181918D93AB
S11305B08881882319F0E217F307B9F7F30110A231
S11305C0102F043008F013E0F301168BE301229698
S11305D0CE010E948F00C3010C960E948F00F3018C
S11305E07186608684E090E0811B910995878487F9
S11305F0738A628A11A212A213A214A215A2A201E2
S1130600B401C6010E940B01F30191838083E114BC
S1130610F10419F0F701718260820FB6F8940F9219
S11306208091F5068F5F8093F50680914307909142
S11306304407892BA9F5709244076092430780917F
S1130640F5068130E1F58FE197E00E94810088E2B0
S113065097E00E94810081E397E00E9481008AE391
S113066097E00E94810086E197E00E9481008DE07E
S113067097E00E94810080E097E00E94810087EF6C
S113068096E00E94810086E197E090930C078093A6
S11306900B078DE097E090930A07809309070FC03A
S11306A08091F10681110BC0E0914307F09144075A
S11306B08689081720F0709244076092430780915E
S11306C0ED068F5F8093ED06F30186899091F20623
S11306D0981710F48093F20690E09C01220F331FC8
S11306E0220F331F220F331F820F931FBE01815E1F
S11306F0984F0E9493000F900FBE8091F1068823BB
S113070059F0E0914307F09144078689801730F44B
S11307100E94B10181E005C081E003C081E001C015
S11307208FEFDF91CF911F910F91FF90EF90DF90AA
S1130730CF90BF90AF909F908F907F906F905F907D
S11307404F900895AF92BF92CF92DF92EF92FF92B3
S11307500F93A12CB12CC12CD12CE12CF12C00E055
S113076020E030E045E550E064E071E085E695E0A6
S11307700E949602813081F4F8948FEF9FEF90935A
S1130780EC068093EB0681E08093F1061092F40668
S11307901092F3060E9477010F91FF90EF90DF9083
S11307A0CF90BF90AF9008958091EA068F5F8093B9
S11307B0EA0608950FB6F8940F928091F30690918B
S11307C0F4060F900FBE0895CF92DF92EF92FF923E
S11307D00F931F93CF93DF938091EA0681119BC0FF
S11307E08091F3069091F40601969093F406809319
S11307F0F306E090F306F090F406E114F104B9F482
S113080080910B0790910C072091090730910A07FA
S113081030930C0720930B0790930A0780930907E2
S11308208091EE068F5F8093EE060E9440028091D5
S1130830EB069091EC06E816F90610F4D12C53C09F
S1130840D12CCC24C394E0910B07F0910C07908138
S1130850911107C08FEF9FEF9093EC068093EB0606
S113086042C0E0910B07F0910C070580F681E02D62
S1130870C681D7812A813B81E216F30628F430939E
S1130880EC062093EB062FC08E010E5F1F4FC801AC
S11308900E94E5008C899D89892B21F0CE010C965C
S11308A00E94E5002E898091F206821710F42093AD
S11308B0F20630E0C901880F991F880F991F880F2D
S11308C0991F820F931FB801815E984F0E94930075
S11308D0E0914307F09144079E898689981708F4AC
S11308E0B2CFDC2CB0CFE0914307F0914407868966
S11308F090E0FC01EE0FFF1FEE0FFF1FEE0FFF1F36
S11309008E0F9F1FFC01E15EF84F8081823048F01A
S1130910DD24D39406C08091F0068F5F8093F006A7
S1130920D12C8091EF06882311F0DD24D3948D2DF2
S1130930DF91CF911F910F91FF90EF90DF90CF90B7
S11309400895DF92EF92FF920F931F93CF93DF935B
S11309500FB6F8940F928091EA0681508093EA06CC
S11309608091EA06811162C08091F506811133C03D
S113097060C0D7011596ED91FC911697C681D78179
S1130980CE010C960E94E5008E010E5F1F4FC80138
S11309900E94E5002E898091F206821710F42093BC
S11309A0F20630E0C901880F991F880F991F880F3C
S11309B0991F820F931FB801815E984F0E94930084
S11309C0E0914307F09144079E898689981758F06F
S11309D0D092EF0608C00F2EF0E0EF2EF7E0FF2EC6
S11309E0F02DDD24D394F70180818111C2CF809151
S11309F0F006882399F08091F006882379F0C1E00D
S1130A000E94E4038111C093EF068091F0068150A7
S1130A108093F0068091F0068111F2CF8091EF0669
S1130A20813031F40E94B10181E003C080E001C053
S1130A3080E00F900FBEDF91CF911F910F91FF9037
S1130A40EF90DF9008950F931F93CF93DF938C0162
S1130A50EB010E94D4038091F3069091F406F8010F
S1130A6020813181C20FD31F8217930748F4C21724
S1130A70D30710F5D183C0838C179D0790F407C06A
S1130A80C217D307A8F08C179D0790F015C080916A
S1130A9043079091440702960E94E500CE010E940C
S1130AA05F020E94A10481110BC00E94B10108C021
S1130AB0F801D183C083EBCFF801D183C083F1CF98
S1130AC0DF91CF911F910F91089507EF16E00F2E3C
S1130AD0FFE1EF2EF7E0FF2EF02D29C00E94D40392
S1130AE0D801CC910E94A104CC2309F10FB6F8944B
S1130AF00F92D8011596ED91FC911697C681D78176
S1130B00CE0102960E94E5008091F5068150809303
S1130B10F5068091F60681508093F6060F900FBE7D
S1130B208F89988D0E943F02CE010E943F028091DE
S1130B30F6068111D3CFF70180818230C0F30E9481
S1130B40B101F5CF8091EA06882321F081E08093FA
S1130B50EF0608951092EF068091F20690E0FC01F2
S1130B60EE0FFF1FEE0FFF1FEE0FFF1F8E0F9F1FD5
S1130B70FC01E15EF84F8081811117C08091F2067B
S1130B8081508093F2068091F20690E0FC01EE0F12
S1130B90FF1FEE0FFF1FEE0FFF1F8E0F9F1FFC01A5
S1130BA0E15EF84F8081882349F38091F20690E05A
S1130BB09C01220F331F220F331F220F331F280FD4
S1130BC0391FD901A15EB84F1196ED91FC9112978E
S1130BD00280F381E02D1296FC93EE9311972E5D23
S1130BE0384FE217F30729F422813381FD01328360
S1130BF02183FC01EE0FFF1FEE0FFF1FEE0FFF1FFF
S1130C008E0F9F1FFC01E15EF84F0180F281E02D01
S1130C108681978190934407809343070895813098
S1130C20B9F018F0823039F1089584B124B150E05C
S1130C30519541955109482781E090E002C0880F01
S1130C40991F6A95E2F748235923422744B9089526
S1130C5087B127B150E0519541955109482781E06A
S1130C6090E002C0880F991F6A95E2F74823592340
S1130C70422747B908958AB12AB150E05195419568
S1130C805109482781E090E002C0880F991F6A95B6
S1130C90E2F74823592342274AB90895CF93DF93B3
S1130CA000D0CDB7DEB741E060E081E00E940F06DE
S1130CB00E94DA039A83898311E088B1812788B975
S1130CC068EE73E0CE0101960E942305F6CFF894F6
S1050CD0FFCF50
S10D0CD24C45440049444C45000021
S9030000FC
